{
  "_format": "hh-sol-artifact-1",
  "contractName": "SupplyChain",
  "sourceName": "contracts/SupplyChain.sol",
  "abi": [
    {
      "inputs": [],
      "stateMutability": "nonpayable",
      "type": "constructor"
    },
    {
      "anonymous": false,
      "inputs": [
        {
          "indexed": true,
          "internalType": "uint256",
          "name": "productId",
          "type": "uint256"
        }
      ],
      "name": "ProductAddedToStore",
      "type": "event"
    },
    {
      "anonymous": false,
      "inputs": [
        {
          "indexed": true,
          "internalType": "uint256",
          "name": "productId",
          "type": "uint256"
        },
        {
          "indexed": false,
          "internalType": "string",
          "name": "name",
          "type": "string"
        },
        {
          "indexed": false,
          "internalType": "address",
          "name": "producer",
          "type": "address"
        }
      ],
      "name": "ProductCreated",
      "type": "event"
    },
    {
      "anonymous": false,
      "inputs": [
        {
          "indexed": true,
          "internalType": "uint256",
          "name": "productId",
          "type": "uint256"
        }
      ],
      "name": "ProductReceivedByRetailer",
      "type": "event"
    },
    {
      "anonymous": false,
      "inputs": [
        {
          "indexed": true,
          "internalType": "uint256",
          "name": "productId",
          "type": "uint256"
        }
      ],
      "name": "ProductReceivedBySupplier",
      "type": "event"
    },
    {
      "anonymous": false,
      "inputs": [
        {
          "indexed": true,
          "internalType": "uint256",
          "name": "productId",
          "type": "uint256"
        },
        {
          "indexed": false,
          "internalType": "address",
          "name": "retailer",
          "type": "address"
        }
      ],
      "name": "ProductSentToRetailer",
      "type": "event"
    },
    {
      "anonymous": false,
      "inputs": [
        {
          "indexed": true,
          "internalType": "uint256",
          "name": "productId",
          "type": "uint256"
        },
        {
          "indexed": false,
          "internalType": "address",
          "name": "supplier",
          "type": "address"
        }
      ],
      "name": "ProductSentToSupplier",
      "type": "event"
    },
    {
      "anonymous": false,
      "inputs": [
        {
          "indexed": true,
          "internalType": "uint256",
          "name": "productId",
          "type": "uint256"
        },
        {
          "indexed": false,
          "internalType": "address",
          "name": "consumer",
          "type": "address"
        }
      ],
      "name": "ProductSoldToConsumer",
      "type": "event"
    },
    {
      "anonymous": false,
      "inputs": [
        {
          "indexed": true,
          "internalType": "uint256",
          "name": "productId",
          "type": "uint256"
        },
        {
          "indexed": false,
          "internalType": "string",
          "name": "shippingInfo",
          "type": "string"
        }
      ],
      "name": "ShippingInfoUpdated",
      "type": "event"
    },
    {
      "inputs": [
        {
          "internalType": "address",
          "name": "_newOwner",
          "type": "address"
        }
      ],
      "name": "addOwner",
      "outputs": [],
      "stateMutability": "nonpayable",
      "type": "function"
    },
    {
      "inputs": [
        {
          "internalType": "string",
          "name": "_name",
          "type": "string"
        },
        {
          "internalType": "string",
          "name": "_description",
          "type": "string"
        },
        {
          "internalType": "uint256",
          "name": "_quantity",
          "type": "uint256"
        }
      ],
      "name": "addProduct",
      "outputs": [
        {
          "internalType": "uint256",
          "name": "",
          "type": "uint256"
        }
      ],
      "stateMutability": "nonpayable",
      "type": "function"
    },
    {
      "inputs": [
        {
          "internalType": "uint256",
          "name": "_productId",
          "type": "uint256"
        }
      ],
      "name": "addToStore",
      "outputs": [],
      "stateMutability": "nonpayable",
      "type": "function"
    },
    {
      "inputs": [
        {
          "internalType": "uint256",
          "name": "_productId",
          "type": "uint256"
        }
      ],
      "name": "getProduct",
      "outputs": [
        {
          "internalType": "uint256",
          "name": "id",
          "type": "uint256"
        },
        {
          "internalType": "string",
          "name": "name",
          "type": "string"
        },
        {
          "internalType": "string",
          "name": "description",
          "type": "string"
        },
        {
          "internalType": "uint256",
          "name": "quantity",
          "type": "uint256"
        },
        {
          "internalType": "uint256",
          "name": "createdAt",
          "type": "uint256"
        },
        {
          "internalType": "address",
          "name": "producer",
          "type": "address"
        },
        {
          "internalType": "address",
          "name": "supplier",
          "type": "address"
        },
        {
          "internalType": "address",
          "name": "retailer",
          "type": "address"
        },
        {
          "internalType": "address",
          "name": "consumer",
          "type": "address"
        },
        {
          "internalType": "enum SupplyChain.ProductStatus",
          "name": "status",
          "type": "uint8"
        },
        {
          "internalType": "string",
          "name": "shippingInfo",
          "type": "string"
        }
      ],
      "stateMutability": "view",
      "type": "function"
    },
    {
      "inputs": [
        {
          "internalType": "uint256",
          "name": "_productId",
          "type": "uint256"
        }
      ],
      "name": "getProductStatus",
      "outputs": [
        {
          "internalType": "enum SupplyChain.ProductStatus",
          "name": "",
          "type": "uint8"
        }
      ],
      "stateMutability": "view",
      "type": "function"
    },
    {
      "inputs": [
        {
          "internalType": "address",
          "name": "",
          "type": "address"
        }
      ],
      "name": "owners",
      "outputs": [
        {
          "internalType": "bool",
          "name": "",
          "type": "bool"
        }
      ],
      "stateMutability": "view",
      "type": "function"
    },
    {
      "inputs": [
        {
          "internalType": "address",
          "name": "",
          "type": "address"
        }
      ],
      "name": "producers",
      "outputs": [
        {
          "internalType": "bool",
          "name": "",
          "type": "bool"
        }
      ],
      "stateMutability": "view",
      "type": "function"
    },
    {
      "inputs": [],
      "name": "productCount",
      "outputs": [
        {
          "internalType": "uint256",
          "name": "",
          "type": "uint256"
        }
      ],
      "stateMutability": "view",
      "type": "function"
    },
    {
      "inputs": [
        {
          "internalType": "uint256",
          "name": "",
          "type": "uint256"
        }
      ],
      "name": "products",
      "outputs": [
        {
          "internalType": "uint256",
          "name": "id",
          "type": "uint256"
        },
        {
          "internalType": "string",
          "name": "name",
          "type": "string"
        },
        {
          "internalType": "string",
          "name": "description",
          "type": "string"
        },
        {
          "internalType": "uint256",
          "name": "quantity",
          "type": "uint256"
        },
        {
          "internalType": "uint256",
          "name": "createdAt",
          "type": "uint256"
        },
        {
          "internalType": "address",
          "name": "producer",
          "type": "address"
        },
        {
          "internalType": "address",
          "name": "supplier",
          "type": "address"
        },
        {
          "internalType": "address",
          "name": "retailer",
          "type": "address"
        },
        {
          "internalType": "address",
          "name": "consumer",
          "type": "address"
        },
        {
          "internalType": "enum SupplyChain.ProductStatus",
          "name": "status",
          "type": "uint8"
        },
        {
          "internalType": "string",
          "name": "shippingInfo",
          "type": "string"
        }
      ],
      "stateMutability": "view",
      "type": "function"
    },
    {
      "inputs": [
        {
          "internalType": "uint256",
          "name": "_productId",
          "type": "uint256"
        }
      ],
      "name": "receiveProduct",
      "outputs": [],
      "stateMutability": "nonpayable",
      "type": "function"
    },
    {
      "inputs": [
        {
          "internalType": "uint256",
          "name": "_productId",
          "type": "uint256"
        }
      ],
      "name": "receiveProductFromSupplier",
      "outputs": [],
      "stateMutability": "nonpayable",
      "type": "function"
    },
    {
      "inputs": [
        {
          "internalType": "address",
          "name": "_producer",
          "type": "address"
        }
      ],
      "name": "registerProducer",
      "outputs": [],
      "stateMutability": "nonpayable",
      "type": "function"
    },
    {
      "inputs": [
        {
          "internalType": "address",
          "name": "_retailer",
          "type": "address"
        }
      ],
      "name": "registerRetailer",
      "outputs": [],
      "stateMutability": "nonpayable",
      "type": "function"
    },
    {
      "inputs": [
        {
          "internalType": "address",
          "name": "_supplier",
          "type": "address"
        }
      ],
      "name": "registerSupplier",
      "outputs": [],
      "stateMutability": "nonpayable",
      "type": "function"
    },
    {
      "inputs": [
        {
          "internalType": "address",
          "name": "_ownerToRemove",
          "type": "address"
        }
      ],
      "name": "removeOwner",
      "outputs": [],
      "stateMutability": "nonpayable",
      "type": "function"
    },
    {
      "inputs": [
        {
          "internalType": "address",
          "name": "",
          "type": "address"
        }
      ],
      "name": "retailers",
      "outputs": [
        {
          "internalType": "bool",
          "name": "",
          "type": "bool"
        }
      ],
      "stateMutability": "view",
      "type": "function"
    },
    {
      "inputs": [
        {
          "internalType": "uint256",
          "name": "_productId",
          "type": "uint256"
        },
        {
          "internalType": "address",
          "name": "_consumer",
          "type": "address"
        }
      ],
      "name": "sellToConsumer",
      "outputs": [],
      "stateMutability": "nonpayable",
      "type": "function"
    },
    {
      "inputs": [
        {
          "internalType": "uint256",
          "name": "_productId",
          "type": "uint256"
        },
        {
          "internalType": "address",
          "name": "_retailer",
          "type": "address"
        }
      ],
      "name": "sendToRetailer",
      "outputs": [],
      "stateMutability": "nonpayable",
      "type": "function"
    },
    {
      "inputs": [
        {
          "internalType": "uint256",
          "name": "_productId",
          "type": "uint256"
        },
        {
          "internalType": "address",
          "name": "_supplier",
          "type": "address"
        }
      ],
      "name": "sendToSupplier",
      "outputs": [],
      "stateMutability": "nonpayable",
      "type": "function"
    },
    {
      "inputs": [
        {
          "internalType": "address",
          "name": "",
          "type": "address"
        }
      ],
      "name": "suppliers",
      "outputs": [
        {
          "internalType": "bool",
          "name": "",
          "type": "bool"
        }
      ],
      "stateMutability": "view",
      "type": "function"
    },
    {
      "inputs": [
        {
          "internalType": "uint256",
          "name": "_productId",
          "type": "uint256"
        },
        {
          "internalType": "string",
          "name": "_shippingInfo",
          "type": "string"
        }
      ],
      "name": "updateShippingInfo",
      "outputs": [],
      "stateMutability": "nonpayable",
      "type": "function"
    }
  ],
  "bytecode": "0x6080604052348015600f57600080fd5b506001600560003373ffffffffffffffffffffffffffffffffffffffff1673ffffffffffffffffffffffffffffffffffffffff16815260200190815260200160002060006101000a81548160ff021916908315150217905550613c93806100776000396000f3fe608060405234801561001057600080fd5b50600436106101375760003560e01c80638120b970116100b8578063ba1203281161007c578063ba12032814610380578063bf1911691461039c578063cf7f5e5f146103b8578063d9925409146103d4578063e0f6ef87146103f0578063f28ea1c11461040e57610137565b80638120b970146102c25780638345750b146102de5780639a268f35146102fa578063a83006da1461032a578063b9db15b41461034657610137565b806329d78328116100ff57806329d78328146102185780633c530ace146102345780634a75c285146102505780637065cb481461026c5780637acc0b201461028857610137565b8063022914a71461013c57806313f6b1bb1461016c57806316dc15fe1461019c578063173825d9146101cc57806326324eff146101e8575b600080fd5b6101566004803603810190610151919061296c565b61043e565b60405161016391906129b4565b60405180910390f35b61018660048036038101906101819190612a05565b61045e565b6040516101939190612aa9565b60405180910390f35b6101b660048036038101906101b1919061296c565b6104e1565b6040516101c391906129b4565b60405180910390f35b6101e660048036038101906101e1919061296c565b610501565b005b61020260048036038101906101fd919061296c565b6106c5565b60405161020f91906129b4565b60405180910390f35b610232600480360381019061022d9190612a05565b6106e5565b005b61024e6004803603810190610249919061296c565b610963565b005b61026a60048036038101906102659190612c0a565b610a49565b005b6102866004803603810190610281919061296c565b610d09565b005b6102a2600480360381019061029d9190612a05565b610e5f565b6040516102b99b9a99989796959493929190612d03565b60405180910390f35b6102dc60048036038101906102d79190612a05565b6110de565b005b6102f860048036038101906102f39190612dc3565b61135c565b005b610314600480360381019061030f919061296c565b6116c6565b60405161032191906129b4565b60405180910390f35b610344600480360381019061033f919061296c565b6116e6565b005b610360600480360381019061035b9190612a05565b6117cd565b6040516103779b9a99989796959493929190612d03565b60405180910390f35b61039a60048036038101906103959190612dc3565b611bc8565b005b6103b660048036038101906103b19190612dc3565b611f32565b005b6103d260048036038101906103cd919061296c565b612210565b005b6103ee60048036038101906103e99190612a05565b6122f7565b005b6103f8612575565b6040516104059190612e03565b60405180910390f35b61042860048036038101906104239190612e1e565b61257b565b6040516104359190612e03565b60405180910390f35b60056020528060005260406000206000915054906101000a900460ff1681565b60008060008084815260200190815260200160002060000154036104b7576040517f08c379a00000000000000000000000000000000000000000000000000000000081526004016104ae90612ef5565b60405180910390fd5b60008083815260200190815260200160002060080160149054906101000a900460ff169050919050565b60026020528060005260406000206000915054906101000a900460ff1681565b600560003373ffffffffffffffffffffffffffffffffffffffff1673ffffffffffffffffffffffffffffffffffffffff16815260200190815260200160002060009054906101000a900460ff1661058d576040517f08c379a000000000000000000000000000000000000000000000000000000000815260040161058490612f87565b60405180910390fd5b600073ffffffffffffffffffffffffffffffffffffffff168173ffffffffffffffffffffffffffffffffffffffff16036105fc576040517f08c379a00000000000000000000000000000000000000000000000000000000081526004016105f390612ff3565b60405180910390fd5b3373ffffffffffffffffffffffffffffffffffffffff168173ffffffffffffffffffffffffffffffffffffffff160361066a576040517f08c379a00000000000000000000000000000000000000000000000000000000081526004016106619061305f565b60405180910390fd5b6000600560008373ffffffffffffffffffffffffffffffffffffffff1673ffffffffffffffffffffffffffffffffffffffff16815260200190815260200160002060006101000a81548160ff02191690831515021790555050565b60016020528060005260406000206000915054906101000a900460ff1681565b600260003373ffffffffffffffffffffffffffffffffffffffff1673ffffffffffffffffffffffffffffffffffffffff16815260200190815260200160002060009054906101000a900460ff16610771576040517f08c379a0000000000000000000000000000000000000000000000000000000008152600401610768906130f1565b60405180910390fd5b600080600083815260200190815260200160002060000154036107c9576040517f08c379a00000000000000000000000000000000000000000000000000000000081526004016107c090612ef5565b60405180910390fd5b3373ffffffffffffffffffffffffffffffffffffffff1660008083815260200190815260200160002060060160009054906101000a900473ffffffffffffffffffffffffffffffffffffffff1673ffffffffffffffffffffffffffffffffffffffff161461086c576040517f08c379a000000000000000000000000000000000000000000000000000000000815260040161086390613183565b60405180910390fd5b600160068111156108805761087f612a32565b5b60008083815260200190815260200160002060080160149054906101000a900460ff1660068111156108b5576108b4612a32565b5b146108f5576040517f08c379a00000000000000000000000000000000000000000000000000000000081526004016108ec90613215565b60405180910390fd5b600260008083815260200190815260200160002060080160146101000a81548160ff0219169083600681111561092e5761092d612a32565b5b0217905550807fc7428d66281c5b2ce8456a9d4979a4dd51f4a2f95a6e8124350d927d924f715f60405160405180910390a250565b600560003373ffffffffffffffffffffffffffffffffffffffff1673ffffffffffffffffffffffffffffffffffffffff16815260200190815260200160002060009054906101000a900460ff166109ef576040517f08c379a00000000000000000000000000000000000000000000000000000000081526004016109e690612f87565b60405180910390fd5b60018060008373ffffffffffffffffffffffffffffffffffffffff1673ffffffffffffffffffffffffffffffffffffffff16815260200190815260200160002060006101000a81548160ff02191690831515021790555050565b600260003373ffffffffffffffffffffffffffffffffffffffff1673ffffffffffffffffffffffffffffffffffffffff16815260200190815260200160002060009054906101000a900460ff16610ad5576040517f08c379a0000000000000000000000000000000000000000000000000000000008152600401610acc906130f1565b60405180910390fd5b60008060008481526020019081526020016000206000015403610b2d576040517f08c379a0000000000000000000000000000000000000000000000000000000008152600401610b2490612ef5565b60405180910390fd5b3373ffffffffffffffffffffffffffffffffffffffff1660008084815260200190815260200160002060060160009054906101000a900473ffffffffffffffffffffffffffffffffffffffff1673ffffffffffffffffffffffffffffffffffffffff1614610bd0576040517f08c379a0000000000000000000000000000000000000000000000000000000008152600401610bc790613183565b60405180910390fd5b60026006811115610be457610be3612a32565b5b60008084815260200190815260200160002060080160149054906101000a900460ff166006811115610c1957610c18612a32565b5b1480610c6b575060036006811115610c3457610c33612a32565b5b60008084815260200190815260200160002060080160149054906101000a900460ff166006811115610c6957610c68612a32565b5b145b610caa576040517f08c379a0000000000000000000000000000000000000000000000000000000008152600401610ca190613281565b60405180910390fd5b806000808481526020019081526020016000206009019081610ccc91906134ad565b50817f45eb2a65b0af2ef9e3cf2d800ea946cf7f32cc5b7d57c129e52f2a217fe5212382604051610cfd919061357f565b60405180910390a25050565b600560003373ffffffffffffffffffffffffffffffffffffffff1673ffffffffffffffffffffffffffffffffffffffff16815260200190815260200160002060009054906101000a900460ff16610d95576040517f08c379a0000000000000000000000000000000000000000000000000000000008152600401610d8c90612f87565b60405180910390fd5b600073ffffffffffffffffffffffffffffffffffffffff168173ffffffffffffffffffffffffffffffffffffffff1603610e04576040517f08c379a0000000000000000000000000000000000000000000000000000000008152600401610dfb90612ff3565b60405180910390fd5b6001600560008373ffffffffffffffffffffffffffffffffffffffff1673ffffffffffffffffffffffffffffffffffffffff16815260200190815260200160002060006101000a81548160ff02191690831515021790555050565b6000602052806000526040600020600091509050806000015490806001018054610e88906132d0565b80601f0160208091040260200160405190810160405280929190818152602001828054610eb4906132d0565b8015610f015780601f10610ed657610100808354040283529160200191610f01565b820191906000526020600020905b815481529060010190602001808311610ee457829003601f168201915b505050505090806002018054610f16906132d0565b80601f0160208091040260200160405190810160405280929190818152602001828054610f42906132d0565b8015610f8f5780601f10610f6457610100808354040283529160200191610f8f565b820191906000526020600020905b815481529060010190602001808311610f7257829003601f168201915b5050505050908060030154908060040154908060050160009054906101000a900473ffffffffffffffffffffffffffffffffffffffff16908060060160009054906101000a900473ffffffffffffffffffffffffffffffffffffffff16908060070160009054906101000a900473ffffffffffffffffffffffffffffffffffffffff16908060080160009054906101000a900473ffffffffffffffffffffffffffffffffffffffff16908060080160149054906101000a900460ff169080600901805461105b906132d0565b80601f0160208091040260200160405190810160405280929190818152602001828054611087906132d0565b80156110d45780601f106110a9576101008083540402835291602001916110d4565b820191906000526020600020905b8154815290600101906020018083116110b757829003601f168201915b505050505090508b565b600360003373ffffffffffffffffffffffffffffffffffffffff1673ffffffffffffffffffffffffffffffffffffffff16815260200190815260200160002060009054906101000a900460ff1661116a576040517f08c379a000000000000000000000000000000000000000000000000000000000815260040161116190613613565b60405180910390fd5b600080600083815260200190815260200160002060000154036111c2576040517f08c379a00000000000000000000000000000000000000000000000000000000081526004016111b990612ef5565b60405180910390fd5b3373ffffffffffffffffffffffffffffffffffffffff1660008083815260200190815260200160002060070160009054906101000a900473ffffffffffffffffffffffffffffffffffffffff1673ffffffffffffffffffffffffffffffffffffffff1614611265576040517f08c379a000000000000000000000000000000000000000000000000000000000815260040161125c906136a5565b60405180910390fd5b6003600681111561127957611278612a32565b5b60008083815260200190815260200160002060080160149054906101000a900460ff1660068111156112ae576112ad612a32565b5b146112ee576040517f08c379a00000000000000000000000000000000000000000000000000000000081526004016112e590613737565b60405180910390fd5b600460008083815260200190815260200160002060080160146101000a81548160ff0219169083600681111561132757611326612a32565b5b0217905550807f21c4402dd4a1ebff6d7fb038f59a4fbdb8f8b1a618e6205e815677045d686d8860405160405180910390a250565b600260003373ffffffffffffffffffffffffffffffffffffffff1673ffffffffffffffffffffffffffffffffffffffff16815260200190815260200160002060009054906101000a900460ff166113e8576040517f08c379a00000000000000000000000000000000000000000000000000000000081526004016113df906130f1565b60405180910390fd5b60008060008481526020019081526020016000206000015403611440576040517f08c379a000000000000000000000000000000000000000000000000000000000815260040161143790612ef5565b60405180910390fd5b3373ffffffffffffffffffffffffffffffffffffffff1660008084815260200190815260200160002060060160009054906101000a900473ffffffffffffffffffffffffffffffffffffffff1673ffffffffffffffffffffffffffffffffffffffff16146114e3576040517f08c379a00000000000000000000000000000000000000000000000000000000081526004016114da90613183565b60405180910390fd5b600260068111156114f7576114f6612a32565b5b60008084815260200190815260200160002060080160149054906101000a900460ff16600681111561152c5761152b612a32565b5b1461156c576040517f08c379a0000000000000000000000000000000000000000000000000000000008152600401611563906137c9565b60405180910390fd5b600360008273ffffffffffffffffffffffffffffffffffffffff1673ffffffffffffffffffffffffffffffffffffffff16815260200190815260200160002060009054906101000a900460ff166115f8576040517f08c379a00000000000000000000000000000000000000000000000000000000081526004016115ef90613835565b60405180910390fd5b8060008084815260200190815260200160002060070160006101000a81548173ffffffffffffffffffffffffffffffffffffffff021916908373ffffffffffffffffffffffffffffffffffffffff160217905550600360008084815260200190815260200160002060080160146101000a81548160ff0219169083600681111561168557611684612a32565b5b0217905550817f91167d82f762420abffc44418508e57c6772d5991839c46a46e3ecdace56f597826040516116ba9190613855565b60405180910390a25050565b60036020528060005260406000206000915054906101000a900460ff1681565b600560003373ffffffffffffffffffffffffffffffffffffffff1673ffffffffffffffffffffffffffffffffffffffff16815260200190815260200160002060009054906101000a900460ff16611772576040517f08c379a000000000000000000000000000000000000000000000000000000000815260040161176990612f87565b60405180910390fd5b6001600360008373ffffffffffffffffffffffffffffffffffffffff1673ffffffffffffffffffffffffffffffffffffffff16815260200190815260200160002060006101000a81548160ff02191690831515021790555050565b60006060806000806000806000806000606060008060008e81526020019081526020016000206040518061016001604052908160008201548152602001600182018054611819906132d0565b80601f0160208091040260200160405190810160405280929190818152602001828054611845906132d0565b80156118925780601f1061186757610100808354040283529160200191611892565b820191906000526020600020905b81548152906001019060200180831161187557829003601f168201915b505050505081526020016002820180546118ab906132d0565b80601f01602080910402602001604051908101604052809291908181526020018280546118d7906132d0565b80156119245780601f106118f957610100808354040283529160200191611924565b820191906000526020600020905b81548152906001019060200180831161190757829003601f168201915b5050505050815260200160038201548152602001600482015481526020016005820160009054906101000a900473ffffffffffffffffffffffffffffffffffffffff1673ffffffffffffffffffffffffffffffffffffffff1673ffffffffffffffffffffffffffffffffffffffff1681526020016006820160009054906101000a900473ffffffffffffffffffffffffffffffffffffffff1673ffffffffffffffffffffffffffffffffffffffff1673ffffffffffffffffffffffffffffffffffffffff1681526020016007820160009054906101000a900473ffffffffffffffffffffffffffffffffffffffff1673ffffffffffffffffffffffffffffffffffffffff1673ffffffffffffffffffffffffffffffffffffffff1681526020016008820160009054906101000a900473ffffffffffffffffffffffffffffffffffffffff1673ffffffffffffffffffffffffffffffffffffffff1673ffffffffffffffffffffffffffffffffffffffff1681526020016008820160149054906101000a900460ff166006811115611abe57611abd612a32565b5b6006811115611ad057611acf612a32565b5b8152602001600982018054611ae4906132d0565b80601f0160208091040260200160405190810160405280929190818152602001828054611b10906132d0565b8015611b5d5780601f10611b3257610100808354040283529160200191611b5d565b820191906000526020600020905b815481529060010190602001808311611b4057829003601f168201915b5050505050815250509050806000015181602001518260400151836060015184608001518560a001518660c001518760e001518861010001518961012001518a61014001519b509b509b509b509b509b509b509b509b509b509b505091939597999b90929496989a50565b600160003373ffffffffffffffffffffffffffffffffffffffff1673ffffffffffffffffffffffffffffffffffffffff16815260200190815260200160002060009054906101000a900460ff16611c54576040517f08c379a0000000000000000000000000000000000000000000000000000000008152600401611c4b906138e2565b60405180910390fd5b60008060008481526020019081526020016000206000015403611cac576040517f08c379a0000000000000000000000000000000000000000000000000000000008152600401611ca390612ef5565b60405180910390fd5b3373ffffffffffffffffffffffffffffffffffffffff1660008084815260200190815260200160002060050160009054906101000a900473ffffffffffffffffffffffffffffffffffffffff1673ffffffffffffffffffffffffffffffffffffffff1614611d4f576040517f08c379a0000000000000000000000000000000000000000000000000000000008152600401611d4690613974565b60405180910390fd5b60006006811115611d6357611d62612a32565b5b60008084815260200190815260200160002060080160149054906101000a900460ff166006811115611d9857611d97612a32565b5b14611dd8576040517f08c379a0000000000000000000000000000000000000000000000000000000008152600401611dcf90613a06565b60405180910390fd5b600260008273ffffffffffffffffffffffffffffffffffffffff1673ffffffffffffffffffffffffffffffffffffffff16815260200190815260200160002060009054906101000a900460ff16611e64576040517f08c379a0000000000000000000000000000000000000000000000000000000008152600401611e5b90613a72565b60405180910390fd5b8060008084815260200190815260200160002060060160006101000a81548173ffffffffffffffffffffffffffffffffffffffff021916908373ffffffffffffffffffffffffffffffffffffffff160217905550600160008084815260200190815260200160002060080160146101000a81548160ff02191690836006811115611ef157611ef0612a32565b5b0217905550817f01b0f0e8876adb51c001ea8baae2aa3b6bdf8b3c42811817358cef1d56c0af0082604051611f269190613855565b60405180910390a25050565b600360003373ffffffffffffffffffffffffffffffffffffffff1673ffffffffffffffffffffffffffffffffffffffff16815260200190815260200160002060009054906101000a900460ff16611fbe576040517f08c379a0000000000000000000000000000000000000000000000000000000008152600401611fb590613613565b60405180910390fd5b60008060008481526020019081526020016000206000015403612016576040517f08c379a000000000000000000000000000000000000000000000000000000000815260040161200d90612ef5565b60405180910390fd5b3373ffffffffffffffffffffffffffffffffffffffff1660008084815260200190815260200160002060070160009054906101000a900473ffffffffffffffffffffffffffffffffffffffff1673ffffffffffffffffffffffffffffffffffffffff16146120b9576040517f08c379a00000000000000000000000000000000000000000000000000000000081526004016120b0906136a5565b60405180910390fd5b600560068111156120cd576120cc612a32565b5b60008084815260200190815260200160002060080160149054906101000a900460ff16600681111561210257612101612a32565b5b14612142576040517f08c379a000000000000000000000000000000000000000000000000000000000815260040161213990613b04565b60405180910390fd5b8060008084815260200190815260200160002060080160006101000a81548173ffffffffffffffffffffffffffffffffffffffff021916908373ffffffffffffffffffffffffffffffffffffffff160217905550600660008084815260200190815260200160002060080160146101000a81548160ff021916908360068111156121cf576121ce612a32565b5b0217905550817fe3ea93cf6348155aedd9f5e3a1d8f1fd886a956f1401763612b9b694b3363e86826040516122049190613855565b60405180910390a25050565b600560003373ffffffffffffffffffffffffffffffffffffffff1673ffffffffffffffffffffffffffffffffffffffff16815260200190815260200160002060009054906101000a900460ff1661229c576040517f08c379a000000000000000000000000000000000000000000000000000000000815260040161229390612f87565b60405180910390fd5b6001600260008373ffffffffffffffffffffffffffffffffffffffff1673ffffffffffffffffffffffffffffffffffffffff16815260200190815260200160002060006101000a81548160ff02191690831515021790555050565b600360003373ffffffffffffffffffffffffffffffffffffffff1673ffffffffffffffffffffffffffffffffffffffff16815260200190815260200160002060009054906101000a900460ff16612383576040517f08c379a000000000000000000000000000000000000000000000000000000000815260040161237a90613613565b60405180910390fd5b600080600083815260200190815260200160002060000154036123db576040517f08c379a00000000000000000000000000000000000000000000000000000000081526004016123d290612ef5565b60405180910390fd5b3373ffffffffffffffffffffffffffffffffffffffff1660008083815260200190815260200160002060070160009054906101000a900473ffffffffffffffffffffffffffffffffffffffff1673ffffffffffffffffffffffffffffffffffffffff161461247e576040517f08c379a0000000000000000000000000000000000000000000000000000000008152600401612475906136a5565b60405180910390fd5b6004600681111561249257612491612a32565b5b60008083815260200190815260200160002060080160149054906101000a900460ff1660068111156124c7576124c6612a32565b5b14612507576040517f08c379a00000000000000000000000000000000000000000000000000000000081526004016124fe90613b96565b60405180910390fd5b600560008083815260200190815260200160002060080160146101000a81548160ff021916908360068111156125405761253f612a32565b5b0217905550807fed910afbb4f908c3787081c1d1df242d8cab386852b5e4553acbe05cdaf182cd60405160405180910390a250565b60045481565b6000600160003373ffffffffffffffffffffffffffffffffffffffff1673ffffffffffffffffffffffffffffffffffffffff16815260200190815260200160002060009054906101000a900460ff16612609576040517f08c379a0000000000000000000000000000000000000000000000000000000008152600401612600906138e2565b60405180910390fd5b6004600081548092919061261c90613be5565b919050555060405180610160016040528060045481526020018581526020018481526020018381526020014281526020013373ffffffffffffffffffffffffffffffffffffffff168152602001600073ffffffffffffffffffffffffffffffffffffffff168152602001600073ffffffffffffffffffffffffffffffffffffffff168152602001600073ffffffffffffffffffffffffffffffffffffffff168152602001600060068111156126d4576126d3612a32565b5b815260200160405180602001604052806000815250815250600080600454815260200190815260200160002060008201518160000155602082015181600101908161271f91906134ad565b50604082015181600201908161273591906134ad565b50606082015181600301556080820151816004015560a08201518160050160006101000a81548173ffffffffffffffffffffffffffffffffffffffff021916908373ffffffffffffffffffffffffffffffffffffffff16021790555060c08201518160060160006101000a81548173ffffffffffffffffffffffffffffffffffffffff021916908373ffffffffffffffffffffffffffffffffffffffff16021790555060e08201518160070160006101000a81548173ffffffffffffffffffffffffffffffffffffffff021916908373ffffffffffffffffffffffffffffffffffffffff1602179055506101008201518160080160006101000a81548173ffffffffffffffffffffffffffffffffffffffff021916908373ffffffffffffffffffffffffffffffffffffffff1602179055506101208201518160080160146101000a81548160ff0219169083600681111561289357612892612a32565b5b02179055506101408201518160090190816128ae91906134ad565b509050506004547faf6ffb6277511513e7d579327cc1fc57f0266df2fb11a60b13487b8c9cd2c38885336040516128e6929190613c2d565b60405180910390a260045490509392505050565b6000604051905090565b600080fd5b600080fd5b600073ffffffffffffffffffffffffffffffffffffffff82169050919050565b60006129398261290e565b9050919050565b6129498161292e565b811461295457600080fd5b50565b60008135905061296681612940565b92915050565b60006020828403121561298257612981612904565b5b600061299084828501612957565b91505092915050565b60008115159050919050565b6129ae81612999565b82525050565b60006020820190506129c960008301846129a5565b92915050565b6000819050919050565b6129e2816129cf565b81146129ed57600080fd5b50565b6000813590506129ff816129d9565b92915050565b600060208284031215612a1b57612a1a612904565b5b6000612a29848285016129f0565b91505092915050565b7f4e487b7100000000000000000000000000000000000000000000000000000000600052602160045260246000fd5b60078110612a7257612a71612a32565b5b50565b6000819050612a8382612a61565b919050565b6000612a9382612a75565b9050919050565b612aa381612a88565b82525050565b6000602082019050612abe6000830184612a9a565b92915050565b600080fd5b600080fd5b6000601f19601f8301169050919050565b7f4e487b7100000000000000000000000000000000000000000000000000000000600052604160045260246000fd5b612b1782612ace565b810181811067ffffffffffffffff82111715612b3657612b35612adf565b5b80604052505050565b6000612b496128fa565b9050612b558282612b0e565b919050565b600067ffffffffffffffff821115612b7557612b74612adf565b5b612b7e82612ace565b9050602081019050919050565b82818337600083830152505050565b6000612bad612ba884612b5a565b612b3f565b905082815260208101848484011115612bc957612bc8612ac9565b5b612bd4848285612b8b565b509392505050565b600082601f830112612bf157612bf0612ac4565b5b8135612c01848260208601612b9a565b91505092915050565b60008060408385031215612c2157612c20612904565b5b6000612c2f858286016129f0565b925050602083013567ffffffffffffffff811115612c5057612c4f612909565b5b612c5c85828601612bdc565b9150509250929050565b612c6f816129cf565b82525050565b600081519050919050565b600082825260208201905092915050565b60005b83811015612caf578082015181840152602081019050612c94565b60008484015250505050565b6000612cc682612c75565b612cd08185612c80565b9350612ce0818560208601612c91565b612ce981612ace565b840191505092915050565b612cfd8161292e565b82525050565b600061016082019050612d19600083018e612c66565b8181036020830152612d2b818d612cbb565b90508181036040830152612d3f818c612cbb565b9050612d4e606083018b612c66565b612d5b608083018a612c66565b612d6860a0830189612cf4565b612d7560c0830188612cf4565b612d8260e0830187612cf4565b612d90610100830186612cf4565b612d9e610120830185612a9a565b818103610140830152612db18184612cbb565b90509c9b505050505050505050505050565b60008060408385031215612dda57612dd9612904565b5b6000612de8858286016129f0565b9250506020612df985828601612957565b9150509250929050565b6000602082019050612e186000830184612c66565b92915050565b600080600060608486031215612e3757612e36612904565b5b600084013567ffffffffffffffff811115612e5557612e54612909565b5b612e6186828701612bdc565b935050602084013567ffffffffffffffff811115612e8257612e81612909565b5b612e8e86828701612bdc565b9250506040612e9f868287016129f0565b9150509250925092565b7f50726f6475637420646f6573206e6f7420657869737400000000000000000000600082015250565b6000612edf601683612c80565b9150612eea82612ea9565b602082019050919050565b60006020820190508181036000830152612f0e81612ed2565b9050919050565b7f4f6e6c79206f776e65722063616e20706572666f726d2074686973206163746960008201527f6f6e000000000000000000000000000000000000000000000000000000000000602082015250565b6000612f71602283612c80565b9150612f7c82612f15565b604082019050919050565b60006020820190508181036000830152612fa081612f64565b9050919050565b7f496e76616c6964206f776e657220616464726573730000000000000000000000600082015250565b6000612fdd601583612c80565b9150612fe882612fa7565b602082019050919050565b6000602082019050818103600083015261300c81612fd0565b9050919050565b7f4f776e65722063616e6e6f742072656d6f76652073656c660000000000000000600082015250565b6000613049601883612c80565b915061305482613013565b602082019050919050565b600060208201905081810360008301526130788161303c565b9050919050565b7f4f6e6c7920737570706c6965722063616e20706572666f726d2074686973206160008201527f6374696f6e000000000000000000000000000000000000000000000000000000602082015250565b60006130db602583612c80565b91506130e68261307f565b604082019050919050565b6000602082019050818103600083015261310a816130ce565b9050919050565b7f596f7520617265206e6f742074686520737570706c696572206f66207468697360008201527f2070726f64756374000000000000000000000000000000000000000000000000602082015250565b600061316d602883612c80565b915061317882613111565b604082019050919050565b6000602082019050818103600083015261319c81613160565b9050919050565b7f50726f64756374206d7573742062652073656e7420746f20737570706c69657260008201527f2066697273740000000000000000000000000000000000000000000000000000602082015250565b60006131ff602683612c80565b915061320a826131a3565b604082019050919050565b6000602082019050818103600083015261322e816131f2565b9050919050565b7f496e76616c69642070726f647563742073746174757300000000000000000000600082015250565b600061326b601683612c80565b915061327682613235565b602082019050919050565b6000602082019050818103600083015261329a8161325e565b9050919050565b7f4e487b7100000000000000000000000000000000000000000000000000000000600052602260045260246000fd5b600060028204905060018216806132e857607f821691505b6020821081036132fb576132fa6132a1565b5b50919050565b60008190508160005260206000209050919050565b60006020601f8301049050919050565b600082821b905092915050565b6000600883026133637fffffffffffffffffffffffffffffffffffffffffffffffffffffffffffffffff82613326565b61336d8683613326565b95508019841693508086168417925050509392505050565b6000819050919050565b60006133aa6133a56133a0846129cf565b613385565b6129cf565b9050919050565b6000819050919050565b6133c48361338f565b6133d86133d0826133b1565b848454613333565b825550505050565b600090565b6133ed6133e0565b6133f88184846133bb565b505050565b5b8181101561341c576134116000826133e5565b6001810190506133fe565b5050565b601f8211156134615761343281613301565b61343b84613316565b8101602085101561344a578190505b61345e61345685613316565b8301826133fd565b50505b505050565b600082821c905092915050565b600061348460001984600802613466565b1980831691505092915050565b600061349d8383613473565b9150826002028217905092915050565b6134b682612c75565b67ffffffffffffffff8111156134cf576134ce612adf565b5b6134d982546132d0565b6134e4828285613420565b600060209050601f8311600181146135175760008415613505578287015190505b61350f8582613491565b865550613577565b601f19841661352586613301565b60005b8281101561354d57848901518255600182019150602085019450602081019050613528565b8683101561356a5784890151613566601f891682613473565b8355505b6001600288020188555050505b505050505050565b600060208201905081810360008301526135998184612cbb565b905092915050565b7f4f6e6c792072657461696c65722063616e20706572666f726d2074686973206160008201527f6374696f6e000000000000000000000000000000000000000000000000000000602082015250565b60006135fd602583612c80565b9150613608826135a1565b604082019050919050565b6000602082019050818103600083015261362c816135f0565b9050919050565b7f596f7520617265206e6f74207468652072657461696c6572206f66207468697360008201527f2070726f64756374000000000000000000000000000000000000000000000000602082015250565b600061368f602883612c80565b915061369a82613633565b604082019050919050565b600060208201905081810360008301526136be81613682565b9050919050565b7f50726f64756374206d7573742062652073656e7420746f2072657461696c657260008201527f2066697273740000000000000000000000000000000000000000000000000000602082015250565b6000613721602683612c80565b915061372c826136c5565b604082019050919050565b6000602082019050818103600083015261375081613714565b9050919050565b7f50726f64756374206d757374206265207265636569766564206279207375707060008201527f6c69657220666972737400000000000000000000000000000000000000000000602082015250565b60006137b3602a83612c80565b91506137be82613757565b604082019050919050565b600060208201905081810360008301526137e2816137a6565b9050919050565b7f496e76616c69642072657461696c657220616464726573730000000000000000600082015250565b600061381f601883612c80565b915061382a826137e9565b602082019050919050565b6000602082019050818103600083015261384e81613812565b9050919050565b600060208201905061386a6000830184612cf4565b92915050565b7f4f6e6c792070726f64756365722063616e20706572666f726d2074686973206160008201527f6374696f6e000000000000000000000000000000000000000000000000000000602082015250565b60006138cc602583612c80565b91506138d782613870565b604082019050919050565b600060208201905081810360008301526138fb816138bf565b9050919050565b7f596f7520617265206e6f74207468652070726f6475636572206f66207468697360008201527f2070726f64756374000000000000000000000000000000000000000000000000602082015250565b600061395e602883612c80565b915061396982613902565b604082019050919050565b6000602082019050818103600083015261398d81613951565b9050919050565b7f50726f64756374206d75737420626520696e204372656174656420737461747560008201527f7300000000000000000000000000000000000000000000000000000000000000602082015250565b60006139f0602183612c80565b91506139fb82613994565b604082019050919050565b60006020820190508181036000830152613a1f816139e3565b9050919050565b7f496e76616c696420737570706c69657220616464726573730000000000000000600082015250565b6000613a5c601883612c80565b9150613a6782613a26565b602082019050919050565b60006020820190508181036000830152613a8b81613a4f565b9050919050565b7f50726f64756374206d75737420626520617661696c61626c6520666f7220736160008201527f6c65000000000000000000000000000000000000000000000000000000000000602082015250565b6000613aee602283612c80565b9150613af982613a92565b604082019050919050565b60006020820190508181036000830152613b1d81613ae1565b9050919050565b7f50726f64756374206d757374206265207265636569766564206279207265746160008201527f696c657220666972737400000000000000000000000000000000000000000000602082015250565b6000613b80602a83612c80565b9150613b8b82613b24565b604082019050919050565b60006020820190508181036000830152613baf81613b73565b9050919050565b7f4e487b7100000000000000000000000000000000000000000000000000000000600052601160045260246000fd5b6000613bf0826129cf565b91507fffffffffffffffffffffffffffffffffffffffffffffffffffffffffffffffff8203613c2257613c21613bb6565b5b600182019050919050565b60006040820190508181036000830152613c478185612cbb565b9050613c566020830184612cf4565b939250505056fea2646970667358221220e9f71d19dc01443aecfd517402e9f71b5f592484ad744b6bacc60e1c1612f6f364736f6c634300081c0033",
  "linkReferences": {},
  "deployedLinkReferences": {},
  "uiAddresses": {
    "owner": "0xf39Fd6e51aad88F6F4ce6aB8827279cffFb92266",
    "producers": [
      "0x70997970C51812dc3A010C7d01b50e0d17dc79C8",
      "0x9965507D1a55bcC2695C58ba16FB37d819B0A4dc",
      "0xa0Ee7A142d267C1f36714E4a8F75612F20a79720"
    ],
    "suppliers": [
      "0x3C44CdDdB6a900fa2b585dd299e03d12FA4293BC",
      "0x976EA74026E726554dB657fA54763abd0C3a0aa9",
      "0xBcd4042DE499D14e55001CcbB24a551F3b954096"
    ],
    "retailers": [
      "0x90F79bf6EB2c4f870365E785982E1f101E93b906",
      "0x14dC79964da2C08b23698B3D3cc7Ca32193d9955",
      "0x71bE63f3384f5fb98995898A86B02Fb2426c5788"
    ],
    "consumers": [
      "0x15d34AAf54267DB7D7c367839AAf71A00a2C6A65",
      "0x23618e81E3f5cdF7f54C3d65f7FBc0aBf5B21E8f",
      "0xFABB0ac9d68B0B445fB7357272Ff202C5651694a"
    ],
    "extra": [
      "0x1CBd3b2770909D4e10f157cABC84C7264073C9Ec",
      "0xdF3e18d64BC6A983f673Ab319CCaE4f1a57C7097",
      "0xcd3B766CCDd6AE721141F452C550Ca635964ce71",
      "0x2546BcD3c84621e976D8185a91A922aE77ECEc30",
      "0xbDA5747bFD65F08deb54cb465eB87D40e51B197E",
      "0xdD2FD4581271e230360230F9337D5c0430Bf44C0",
      "0x8626f6940E2eb28930eFb4CeF49B2d1F2C9C1199"
    ]
  }
}