{
  "_format": "hh-sol-artifact-1",
  "contractName": "SupplyChain",
  "sourceName": "contracts/SupplyChain.sol",
  "abi": [
    {
      "inputs": [],
      "stateMutability": "nonpayable",
      "type": "constructor"
    },
    {
      "anonymous": false,
      "inputs": [
        {
          "indexed": true,
          "internalType": "address",
          "name": "owner",
          "type": "address"
        }
      ],
      "name": "OwnerAdded",
      "type": "event"
    },
    {
      "anonymous": false,
      "inputs": [
        {
          "indexed": true,
          "internalType": "address",
          "name": "owner",
          "type": "address"
        }
      ],
      "name": "OwnerRemoved",
      "type": "event"
    },
    {
      "anonymous": false,
      "inputs": [
        {
          "indexed": true,
          "internalType": "address",
          "name": "producer",
          "type": "address"
        }
      ],
      "name": "ProducerRegistered",
      "type": "event"
    },
    {
      "anonymous": false,
      "inputs": [
        {
          "indexed": true,
          "internalType": "uint256",
          "name": "productId",
          "type": "uint256"
        }
      ],
      "name": "ProductAddedToStore",
      "type": "event"
    },
    {
      "anonymous": false,
      "inputs": [
        {
          "indexed": true,
          "internalType": "uint256",
          "name": "productId",
          "type": "uint256"
        },
        {
          "indexed": false,
          "internalType": "string",
          "name": "name",
          "type": "string"
        },
        {
          "indexed": false,
          "internalType": "address",
          "name": "producer",
          "type": "address"
        }
      ],
      "name": "ProductCreated",
      "type": "event"
    },
    {
      "anonymous": false,
      "inputs": [
        {
          "indexed": true,
          "internalType": "uint256",
          "name": "productId",
          "type": "uint256"
        }
      ],
      "name": "ProductReceivedByRetailer",
      "type": "event"
    },
    {
      "anonymous": false,
      "inputs": [
        {
          "indexed": true,
          "internalType": "uint256",
          "name": "productId",
          "type": "uint256"
        }
      ],
      "name": "ProductReceivedBySupplier",
      "type": "event"
    },
    {
      "anonymous": false,
      "inputs": [
        {
          "indexed": true,
          "internalType": "uint256",
          "name": "productId",
          "type": "uint256"
        },
        {
          "indexed": false,
          "internalType": "address",
          "name": "retailer",
          "type": "address"
        }
      ],
      "name": "ProductSentToRetailer",
      "type": "event"
    },
    {
      "anonymous": false,
      "inputs": [
        {
          "indexed": true,
          "internalType": "uint256",
          "name": "productId",
          "type": "uint256"
        },
        {
          "indexed": false,
          "internalType": "address",
          "name": "supplier",
          "type": "address"
        }
      ],
      "name": "ProductSentToSupplier",
      "type": "event"
    },
    {
      "anonymous": false,
      "inputs": [
        {
          "indexed": true,
          "internalType": "uint256",
          "name": "productId",
          "type": "uint256"
        },
        {
          "indexed": false,
          "internalType": "address",
          "name": "consumer",
          "type": "address"
        }
      ],
      "name": "ProductSoldToConsumer",
      "type": "event"
    },
    {
      "anonymous": false,
      "inputs": [
        {
          "indexed": true,
          "internalType": "address",
          "name": "retailer",
          "type": "address"
        }
      ],
      "name": "RetailerRegistered",
      "type": "event"
    },
    {
      "anonymous": false,
      "inputs": [
        {
          "indexed": true,
          "internalType": "uint256",
          "name": "productId",
          "type": "uint256"
        },
        {
          "indexed": false,
          "internalType": "string",
          "name": "shippingInfo",
          "type": "string"
        }
      ],
      "name": "ShippingInfoUpdated",
      "type": "event"
    },
    {
      "anonymous": false,
      "inputs": [
        {
          "indexed": true,
          "internalType": "address",
          "name": "supplier",
          "type": "address"
        }
      ],
      "name": "SupplierRegistered",
      "type": "event"
    },
    {
      "inputs": [
        {
          "internalType": "address",
          "name": "_newOwner",
          "type": "address"
        }
      ],
      "name": "addOwner",
      "outputs": [],
      "stateMutability": "nonpayable",
      "type": "function"
    },
    {
      "inputs": [
        {
          "internalType": "string",
          "name": "_name",
          "type": "string"
        },
        {
          "internalType": "string",
          "name": "_description",
          "type": "string"
        },
        {
          "internalType": "uint256",
          "name": "_quantity",
          "type": "uint256"
        }
      ],
      "name": "addProduct",
      "outputs": [
        {
          "internalType": "uint256",
          "name": "",
          "type": "uint256"
        }
      ],
      "stateMutability": "nonpayable",
      "type": "function"
    },
    {
      "inputs": [
        {
          "internalType": "uint256",
          "name": "_productId",
          "type": "uint256"
        }
      ],
      "name": "addToStore",
      "outputs": [],
      "stateMutability": "nonpayable",
      "type": "function"
    },
    {
      "inputs": [
        {
          "internalType": "uint256",
          "name": "_productId",
          "type": "uint256"
        }
      ],
      "name": "getProduct",
      "outputs": [
        {
          "internalType": "uint256",
          "name": "id",
          "type": "uint256"
        },
        {
          "internalType": "string",
          "name": "name",
          "type": "string"
        },
        {
          "internalType": "string",
          "name": "description",
          "type": "string"
        },
        {
          "internalType": "uint256",
          "name": "quantity",
          "type": "uint256"
        },
        {
          "internalType": "uint256",
          "name": "createdAt",
          "type": "uint256"
        },
        {
          "internalType": "address",
          "name": "producer",
          "type": "address"
        },
        {
          "internalType": "address",
          "name": "supplier",
          "type": "address"
        },
        {
          "internalType": "address",
          "name": "retailer",
          "type": "address"
        },
        {
          "internalType": "address",
          "name": "consumer",
          "type": "address"
        },
        {
          "internalType": "enum SupplyChain.ProductStatus",
          "name": "status",
          "type": "uint8"
        },
        {
          "internalType": "string",
          "name": "shippingInfo",
          "type": "string"
        }
      ],
      "stateMutability": "view",
      "type": "function"
    },
    {
      "inputs": [
        {
          "internalType": "uint256",
          "name": "_productId",
          "type": "uint256"
        }
      ],
      "name": "getProductStatus",
      "outputs": [
        {
          "internalType": "enum SupplyChain.ProductStatus",
          "name": "",
          "type": "uint8"
        }
      ],
      "stateMutability": "view",
      "type": "function"
    },
    {
      "inputs": [
        {
          "internalType": "address",
          "name": "",
          "type": "address"
        }
      ],
      "name": "owners",
      "outputs": [
        {
          "internalType": "bool",
          "name": "",
          "type": "bool"
        }
      ],
      "stateMutability": "view",
      "type": "function"
    },
    {
      "inputs": [
        {
          "internalType": "address",
          "name": "",
          "type": "address"
        }
      ],
      "name": "producers",
      "outputs": [
        {
          "internalType": "bool",
          "name": "",
          "type": "bool"
        }
      ],
      "stateMutability": "view",
      "type": "function"
    },
    {
      "inputs": [],
      "name": "productCount",
      "outputs": [
        {
          "internalType": "uint256",
          "name": "",
          "type": "uint256"
        }
      ],
      "stateMutability": "view",
      "type": "function"
    },
    {
      "inputs": [
        {
          "internalType": "uint256",
          "name": "",
          "type": "uint256"
        }
      ],
      "name": "products",
      "outputs": [
        {
          "internalType": "uint256",
          "name": "id",
          "type": "uint256"
        },
        {
          "internalType": "string",
          "name": "name",
          "type": "string"
        },
        {
          "internalType": "string",
          "name": "description",
          "type": "string"
        },
        {
          "internalType": "uint256",
          "name": "quantity",
          "type": "uint256"
        },
        {
          "internalType": "uint256",
          "name": "createdAt",
          "type": "uint256"
        },
        {
          "internalType": "address",
          "name": "producer",
          "type": "address"
        },
        {
          "internalType": "address",
          "name": "supplier",
          "type": "address"
        },
        {
          "internalType": "address",
          "name": "retailer",
          "type": "address"
        },
        {
          "internalType": "address",
          "name": "consumer",
          "type": "address"
        },
        {
          "internalType": "enum SupplyChain.ProductStatus",
          "name": "status",
          "type": "uint8"
        },
        {
          "internalType": "string",
          "name": "shippingInfo",
          "type": "string"
        }
      ],
      "stateMutability": "view",
      "type": "function"
    },
    {
      "inputs": [
        {
          "internalType": "uint256",
          "name": "_productId",
          "type": "uint256"
        }
      ],
      "name": "receiveProduct",
      "outputs": [],
      "stateMutability": "nonpayable",
      "type": "function"
    },
    {
      "inputs": [
        {
          "internalType": "uint256",
          "name": "_productId",
          "type": "uint256"
        }
      ],
      "name": "receiveProductFromSupplier",
      "outputs": [],
      "stateMutability": "nonpayable",
      "type": "function"
    },
    {
      "inputs": [
        {
          "internalType": "address",
          "name": "_producer",
          "type": "address"
        }
      ],
      "name": "registerProducer",
      "outputs": [],
      "stateMutability": "nonpayable",
      "type": "function"
    },
    {
      "inputs": [
        {
          "internalType": "address",
          "name": "_retailer",
          "type": "address"
        }
      ],
      "name": "registerRetailer",
      "outputs": [],
      "stateMutability": "nonpayable",
      "type": "function"
    },
    {
      "inputs": [
        {
          "internalType": "address",
          "name": "_supplier",
          "type": "address"
        }
      ],
      "name": "registerSupplier",
      "outputs": [],
      "stateMutability": "nonpayable",
      "type": "function"
    },
    {
      "inputs": [
        {
          "internalType": "address",
          "name": "_ownerToRemove",
          "type": "address"
        }
      ],
      "name": "removeOwner",
      "outputs": [],
      "stateMutability": "nonpayable",
      "type": "function"
    },
    {
      "inputs": [
        {
          "internalType": "address",
          "name": "",
          "type": "address"
        }
      ],
      "name": "retailers",
      "outputs": [
        {
          "internalType": "bool",
          "name": "",
          "type": "bool"
        }
      ],
      "stateMutability": "view",
      "type": "function"
    },
    {
      "inputs": [
        {
          "internalType": "uint256",
          "name": "_productId",
          "type": "uint256"
        },
        {
          "internalType": "address",
          "name": "_consumer",
          "type": "address"
        }
      ],
      "name": "sellToConsumer",
      "outputs": [],
      "stateMutability": "nonpayable",
      "type": "function"
    },
    {
      "inputs": [
        {
          "internalType": "uint256",
          "name": "_productId",
          "type": "uint256"
        },
        {
          "internalType": "address",
          "name": "_retailer",
          "type": "address"
        }
      ],
      "name": "sendToRetailer",
      "outputs": [],
      "stateMutability": "nonpayable",
      "type": "function"
    },
    {
      "inputs": [
        {
          "internalType": "uint256",
          "name": "_productId",
          "type": "uint256"
        },
        {
          "internalType": "address",
          "name": "_supplier",
          "type": "address"
        }
      ],
      "name": "sendToSupplier",
      "outputs": [],
      "stateMutability": "nonpayable",
      "type": "function"
    },
    {
      "inputs": [
        {
          "internalType": "address",
          "name": "",
          "type": "address"
        }
      ],
      "name": "suppliers",
      "outputs": [
        {
          "internalType": "bool",
          "name": "",
          "type": "bool"
        }
      ],
      "stateMutability": "view",
      "type": "function"
    },
    {
      "inputs": [
        {
          "internalType": "uint256",
          "name": "_productId",
          "type": "uint256"
        },
        {
          "internalType": "string",
          "name": "_shippingInfo",
          "type": "string"
        }
      ],
      "name": "updateShippingInfo",
      "outputs": [],
      "stateMutability": "nonpayable",
      "type": "function"
    }
  ],
  "bytecode": "0x6080604052348015600f57600080fd5b506001600560003373ffffffffffffffffffffffffffffffffffffffff1673ffffffffffffffffffffffffffffffffffffffff16815260200190815260200160002060006101000a81548160ff021916908315150217905550613de2806100776000396000f3fe608060405234801561001057600080fd5b50600436106101375760003560e01c80638120b970116100b8578063ba1203281161007c578063ba12032814610380578063bf1911691461039c578063cf7f5e5f146103b8578063d9925409146103d4578063e0f6ef87146103f0578063f28ea1c11461040e57610137565b80638120b970146102c25780638345750b146102de5780639a268f35146102fa578063a83006da1461032a578063b9db15b41461034657610137565b806329d78328116100ff57806329d78328146102185780633c530ace146102345780634a75c285146102505780637065cb481461026c5780637acc0b201461028857610137565b8063022914a71461013c57806313f6b1bb1461016c57806316dc15fe1461019c578063173825d9146101cc57806326324eff146101e8575b600080fd5b61015660048036038101906101519190612abb565b61043e565b6040516101639190612b03565b60405180910390f35b61018660048036038101906101819190612b54565b61045e565b6040516101939190612bf8565b60405180910390f35b6101b660048036038101906101b19190612abb565b6104e1565b6040516101c39190612b03565b60405180910390f35b6101e660048036038101906101e19190612abb565b610501565b005b61020260048036038101906101fd9190612abb565b610708565b60405161020f9190612b03565b60405180910390f35b610232600480360381019061022d9190612b54565b610728565b005b61024e60048036038101906102499190612abb565b6109a6565b005b61026a60048036038101906102659190612d59565b610acf565b005b61028660048036038101906102819190612abb565b610d8f565b005b6102a2600480360381019061029d9190612b54565b610f28565b6040516102b99b9a99989796959493929190612e52565b60405180910390f35b6102dc60048036038101906102d79190612b54565b6111a7565b005b6102f860048036038101906102f39190612f12565b611425565b005b610314600480360381019061030f9190612abb565b61178f565b6040516103219190612b03565b60405180910390f35b610344600480360381019061033f9190612abb565b6117af565b005b610360600480360381019061035b9190612b54565b6118d9565b6040516103779b9a99989796959493929190612e52565b60405180910390f35b61039a60048036038101906103959190612f12565b611cd4565b005b6103b660048036038101906103b19190612f12565b61203e565b005b6103d260048036038101906103cd9190612abb565b61231c565b005b6103ee60048036038101906103e99190612b54565b612446565b005b6103f86126c4565b6040516104059190612f52565b60405180910390f35b61042860048036038101906104239190612f6d565b6126ca565b6040516104359190612f52565b60405180910390f35b60056020528060005260406000206000915054906101000a900460ff1681565b60008060008084815260200190815260200160002060000154036104b7576040517f08c379a00000000000000000000000000000000000000000000000000000000081526004016104ae90613044565b60405180910390fd5b60008083815260200190815260200160002060080160149054906101000a900460ff169050919050565b60026020528060005260406000206000915054906101000a900460ff1681565b600560003373ffffffffffffffffffffffffffffffffffffffff1673ffffffffffffffffffffffffffffffffffffffff16815260200190815260200160002060009054906101000a900460ff1661058d576040517f08c379a0000000000000000000000000000000000000000000000000000000008152600401610584906130d6565b60405180910390fd5b600073ffffffffffffffffffffffffffffffffffffffff168173ffffffffffffffffffffffffffffffffffffffff16036105fc576040517f08c379a00000000000000000000000000000000000000000000000000000000081526004016105f390613142565b60405180910390fd5b3373ffffffffffffffffffffffffffffffffffffffff168173ffffffffffffffffffffffffffffffffffffffff160361066a576040517f08c379a0000000000000000000000000000000000000000000000000000000008152600401610661906131ae565b60405180910390fd5b6000600560008373ffffffffffffffffffffffffffffffffffffffff1673ffffffffffffffffffffffffffffffffffffffff16815260200190815260200160002060006101000a81548160ff0219169083151502179055508073ffffffffffffffffffffffffffffffffffffffff167f58619076adf5bb0943d100ef88d52d7c3fd691b19d3a9071b555b651fbf418da60405160405180910390a250565b60016020528060005260406000206000915054906101000a900460ff1681565b600260003373ffffffffffffffffffffffffffffffffffffffff1673ffffffffffffffffffffffffffffffffffffffff16815260200190815260200160002060009054906101000a900460ff166107b4576040517f08c379a00000000000000000000000000000000000000000000000000000000081526004016107ab90613240565b60405180910390fd5b6000806000838152602001908152602001600020600001540361080c576040517f08c379a000000000000000000000000000000000000000000000000000000000815260040161080390613044565b60405180910390fd5b3373ffffffffffffffffffffffffffffffffffffffff1660008083815260200190815260200160002060060160009054906101000a900473ffffffffffffffffffffffffffffffffffffffff1673ffffffffffffffffffffffffffffffffffffffff16146108af576040517f08c379a00000000000000000000000000000000000000000000000000000000081526004016108a6906132d2565b60405180910390fd5b600160068111156108c3576108c2612b81565b5b60008083815260200190815260200160002060080160149054906101000a900460ff1660068111156108f8576108f7612b81565b5b14610938576040517f08c379a000000000000000000000000000000000000000000000000000000000815260040161092f90613364565b60405180910390fd5b600260008083815260200190815260200160002060080160146101000a81548160ff0219169083600681111561097157610970612b81565b5b0217905550807fc7428d66281c5b2ce8456a9d4979a4dd51f4a2f95a6e8124350d927d924f715f60405160405180910390a250565b600560003373ffffffffffffffffffffffffffffffffffffffff1673ffffffffffffffffffffffffffffffffffffffff16815260200190815260200160002060009054906101000a900460ff16610a32576040517f08c379a0000000000000000000000000000000000000000000000000000000008152600401610a29906130d6565b60405180910390fd5b60018060008373ffffffffffffffffffffffffffffffffffffffff1673ffffffffffffffffffffffffffffffffffffffff16815260200190815260200160002060006101000a81548160ff0219169083151502179055508073ffffffffffffffffffffffffffffffffffffffff167f523dd2bfefd64323042504bb6d7886a60e66bef86e7379de81fc45837853c3fa60405160405180910390a250565b600260003373ffffffffffffffffffffffffffffffffffffffff1673ffffffffffffffffffffffffffffffffffffffff16815260200190815260200160002060009054906101000a900460ff16610b5b576040517f08c379a0000000000000000000000000000000000000000000000000000000008152600401610b5290613240565b60405180910390fd5b60008060008481526020019081526020016000206000015403610bb3576040517f08c379a0000000000000000000000000000000000000000000000000000000008152600401610baa90613044565b60405180910390fd5b3373ffffffffffffffffffffffffffffffffffffffff1660008084815260200190815260200160002060060160009054906101000a900473ffffffffffffffffffffffffffffffffffffffff1673ffffffffffffffffffffffffffffffffffffffff1614610c56576040517f08c379a0000000000000000000000000000000000000000000000000000000008152600401610c4d906132d2565b60405180910390fd5b60026006811115610c6a57610c69612b81565b5b60008084815260200190815260200160002060080160149054906101000a900460ff166006811115610c9f57610c9e612b81565b5b1480610cf1575060036006811115610cba57610cb9612b81565b5b60008084815260200190815260200160002060080160149054906101000a900460ff166006811115610cef57610cee612b81565b5b145b610d30576040517f08c379a0000000000000000000000000000000000000000000000000000000008152600401610d27906133d0565b60405180910390fd5b806000808481526020019081526020016000206009019081610d5291906135fc565b50817f45eb2a65b0af2ef9e3cf2d800ea946cf7f32cc5b7d57c129e52f2a217fe5212382604051610d8391906136ce565b60405180910390a25050565b600560003373ffffffffffffffffffffffffffffffffffffffff1673ffffffffffffffffffffffffffffffffffffffff16815260200190815260200160002060009054906101000a900460ff16610e1b576040517f08c379a0000000000000000000000000000000000000000000000000000000008152600401610e12906130d6565b60405180910390fd5b600073ffffffffffffffffffffffffffffffffffffffff168173ffffffffffffffffffffffffffffffffffffffff1603610e8a576040517f08c379a0000000000000000000000000000000000000000000000000000000008152600401610e8190613142565b60405180910390fd5b6001600560008373ffffffffffffffffffffffffffffffffffffffff1673ffffffffffffffffffffffffffffffffffffffff16815260200190815260200160002060006101000a81548160ff0219169083151502179055508073ffffffffffffffffffffffffffffffffffffffff167f994a936646fe87ffe4f1e469d3d6aa417d6b855598397f323de5b449f765f0c360405160405180910390a250565b6000602052806000526040600020600091509050806000015490806001018054610f519061341f565b80601f0160208091040260200160405190810160405280929190818152602001828054610f7d9061341f565b8015610fca5780601f10610f9f57610100808354040283529160200191610fca565b820191906000526020600020905b815481529060010190602001808311610fad57829003601f168201915b505050505090806002018054610fdf9061341f565b80601f016020809104026020016040519081016040528092919081815260200182805461100b9061341f565b80156110585780601f1061102d57610100808354040283529160200191611058565b820191906000526020600020905b81548152906001019060200180831161103b57829003601f168201915b5050505050908060030154908060040154908060050160009054906101000a900473ffffffffffffffffffffffffffffffffffffffff16908060060160009054906101000a900473ffffffffffffffffffffffffffffffffffffffff16908060070160009054906101000a900473ffffffffffffffffffffffffffffffffffffffff16908060080160009054906101000a900473ffffffffffffffffffffffffffffffffffffffff16908060080160149054906101000a900460ff16908060090180546111249061341f565b80601f01602080910402602001604051908101604052809291908181526020018280546111509061341f565b801561119d5780601f106111725761010080835404028352916020019161119d565b820191906000526020600020905b81548152906001019060200180831161118057829003601f168201915b505050505090508b565b600360003373ffffffffffffffffffffffffffffffffffffffff1673ffffffffffffffffffffffffffffffffffffffff16815260200190815260200160002060009054906101000a900460ff16611233576040517f08c379a000000000000000000000000000000000000000000000000000000000815260040161122a90613762565b60405180910390fd5b6000806000838152602001908152602001600020600001540361128b576040517f08c379a000000000000000000000000000000000000000000000000000000000815260040161128290613044565b60405180910390fd5b3373ffffffffffffffffffffffffffffffffffffffff1660008083815260200190815260200160002060070160009054906101000a900473ffffffffffffffffffffffffffffffffffffffff1673ffffffffffffffffffffffffffffffffffffffff161461132e576040517f08c379a0000000000000000000000000000000000000000000000000000000008152600401611325906137f4565b60405180910390fd5b6003600681111561134257611341612b81565b5b60008083815260200190815260200160002060080160149054906101000a900460ff16600681111561137757611376612b81565b5b146113b7576040517f08c379a00000000000000000000000000000000000000000000000000000000081526004016113ae90613886565b60405180910390fd5b600460008083815260200190815260200160002060080160146101000a81548160ff021916908360068111156113f0576113ef612b81565b5b0217905550807f21c4402dd4a1ebff6d7fb038f59a4fbdb8f8b1a618e6205e815677045d686d8860405160405180910390a250565b600260003373ffffffffffffffffffffffffffffffffffffffff1673ffffffffffffffffffffffffffffffffffffffff16815260200190815260200160002060009054906101000a900460ff166114b1576040517f08c379a00000000000000000000000000000000000000000000000000000000081526004016114a890613240565b60405180910390fd5b60008060008481526020019081526020016000206000015403611509576040517f08c379a000000000000000000000000000000000000000000000000000000000815260040161150090613044565b60405180910390fd5b3373ffffffffffffffffffffffffffffffffffffffff1660008084815260200190815260200160002060060160009054906101000a900473ffffffffffffffffffffffffffffffffffffffff1673ffffffffffffffffffffffffffffffffffffffff16146115ac576040517f08c379a00000000000000000000000000000000000000000000000000000000081526004016115a3906132d2565b60405180910390fd5b600260068111156115c0576115bf612b81565b5b60008084815260200190815260200160002060080160149054906101000a900460ff1660068111156115f5576115f4612b81565b5b14611635576040517f08c379a000000000000000000000000000000000000000000000000000000000815260040161162c90613918565b60405180910390fd5b600360008273ffffffffffffffffffffffffffffffffffffffff1673ffffffffffffffffffffffffffffffffffffffff16815260200190815260200160002060009054906101000a900460ff166116c1576040517f08c379a00000000000000000000000000000000000000000000000000000000081526004016116b890613984565b60405180910390fd5b8060008084815260200190815260200160002060070160006101000a81548173ffffffffffffffffffffffffffffffffffffffff021916908373ffffffffffffffffffffffffffffffffffffffff160217905550600360008084815260200190815260200160002060080160146101000a81548160ff0219169083600681111561174e5761174d612b81565b5b0217905550817f91167d82f762420abffc44418508e57c6772d5991839c46a46e3ecdace56f5978260405161178391906139a4565b60405180910390a25050565b60036020528060005260406000206000915054906101000a900460ff1681565b600560003373ffffffffffffffffffffffffffffffffffffffff1673ffffffffffffffffffffffffffffffffffffffff16815260200190815260200160002060009054906101000a900460ff1661183b576040517f08c379a0000000000000000000000000000000000000000000000000000000008152600401611832906130d6565b60405180910390fd5b6001600360008373ffffffffffffffffffffffffffffffffffffffff1673ffffffffffffffffffffffffffffffffffffffff16815260200190815260200160002060006101000a81548160ff0219169083151502179055508073ffffffffffffffffffffffffffffffffffffffff167f38fdd8eb5b0a95606a3c195a848b5d3fb08512d7b4160f0abfb19aa832bbed5f60405160405180910390a250565b60006060806000806000806000806000606060008060008e815260200190815260200160002060405180610160016040529081600082015481526020016001820180546119259061341f565b80601f01602080910402602001604051908101604052809291908181526020018280546119519061341f565b801561199e5780601f106119735761010080835404028352916020019161199e565b820191906000526020600020905b81548152906001019060200180831161198157829003601f168201915b505050505081526020016002820180546119b79061341f565b80601f01602080910402602001604051908101604052809291908181526020018280546119e39061341f565b8015611a305780601f10611a0557610100808354040283529160200191611a30565b820191906000526020600020905b815481529060010190602001808311611a1357829003601f168201915b5050505050815260200160038201548152602001600482015481526020016005820160009054906101000a900473ffffffffffffffffffffffffffffffffffffffff1673ffffffffffffffffffffffffffffffffffffffff1673ffffffffffffffffffffffffffffffffffffffff1681526020016006820160009054906101000a900473ffffffffffffffffffffffffffffffffffffffff1673ffffffffffffffffffffffffffffffffffffffff1673ffffffffffffffffffffffffffffffffffffffff1681526020016007820160009054906101000a900473ffffffffffffffffffffffffffffffffffffffff1673ffffffffffffffffffffffffffffffffffffffff1673ffffffffffffffffffffffffffffffffffffffff1681526020016008820160009054906101000a900473ffffffffffffffffffffffffffffffffffffffff1673ffffffffffffffffffffffffffffffffffffffff1673ffffffffffffffffffffffffffffffffffffffff1681526020016008820160149054906101000a900460ff166006811115611bca57611bc9612b81565b5b6006811115611bdc57611bdb612b81565b5b8152602001600982018054611bf09061341f565b80601f0160208091040260200160405190810160405280929190818152602001828054611c1c9061341f565b8015611c695780601f10611c3e57610100808354040283529160200191611c69565b820191906000526020600020905b815481529060010190602001808311611c4c57829003601f168201915b5050505050815250509050806000015181602001518260400151836060015184608001518560a001518660c001518760e001518861010001518961012001518a61014001519b509b509b509b509b509b509b509b509b509b509b505091939597999b90929496989a50565b600160003373ffffffffffffffffffffffffffffffffffffffff1673ffffffffffffffffffffffffffffffffffffffff16815260200190815260200160002060009054906101000a900460ff16611d60576040517f08c379a0000000000000000000000000000000000000000000000000000000008152600401611d5790613a31565b60405180910390fd5b60008060008481526020019081526020016000206000015403611db8576040517f08c379a0000000000000000000000000000000000000000000000000000000008152600401611daf90613044565b60405180910390fd5b3373ffffffffffffffffffffffffffffffffffffffff1660008084815260200190815260200160002060050160009054906101000a900473ffffffffffffffffffffffffffffffffffffffff1673ffffffffffffffffffffffffffffffffffffffff1614611e5b576040517f08c379a0000000000000000000000000000000000000000000000000000000008152600401611e5290613ac3565b60405180910390fd5b60006006811115611e6f57611e6e612b81565b5b60008084815260200190815260200160002060080160149054906101000a900460ff166006811115611ea457611ea3612b81565b5b14611ee4576040517f08c379a0000000000000000000000000000000000000000000000000000000008152600401611edb90613b55565b60405180910390fd5b600260008273ffffffffffffffffffffffffffffffffffffffff1673ffffffffffffffffffffffffffffffffffffffff16815260200190815260200160002060009054906101000a900460ff16611f70576040517f08c379a0000000000000000000000000000000000000000000000000000000008152600401611f6790613bc1565b60405180910390fd5b8060008084815260200190815260200160002060060160006101000a81548173ffffffffffffffffffffffffffffffffffffffff021916908373ffffffffffffffffffffffffffffffffffffffff160217905550600160008084815260200190815260200160002060080160146101000a81548160ff02191690836006811115611ffd57611ffc612b81565b5b0217905550817f01b0f0e8876adb51c001ea8baae2aa3b6bdf8b3c42811817358cef1d56c0af008260405161203291906139a4565b60405180910390a25050565b600360003373ffffffffffffffffffffffffffffffffffffffff1673ffffffffffffffffffffffffffffffffffffffff16815260200190815260200160002060009054906101000a900460ff166120ca576040517f08c379a00000000000000000000000000000000000000000000000000000000081526004016120c190613762565b60405180910390fd5b60008060008481526020019081526020016000206000015403612122576040517f08c379a000000000000000000000000000000000000000000000000000000000815260040161211990613044565b60405180910390fd5b3373ffffffffffffffffffffffffffffffffffffffff1660008084815260200190815260200160002060070160009054906101000a900473ffffffffffffffffffffffffffffffffffffffff1673ffffffffffffffffffffffffffffffffffffffff16146121c5576040517f08c379a00000000000000000000000000000000000000000000000000000000081526004016121bc906137f4565b60405180910390fd5b600560068111156121d9576121d8612b81565b5b60008084815260200190815260200160002060080160149054906101000a900460ff16600681111561220e5761220d612b81565b5b1461224e576040517f08c379a000000000000000000000000000000000000000000000000000000000815260040161224590613c53565b60405180910390fd5b8060008084815260200190815260200160002060080160006101000a81548173ffffffffffffffffffffffffffffffffffffffff021916908373ffffffffffffffffffffffffffffffffffffffff160217905550600660008084815260200190815260200160002060080160146101000a81548160ff021916908360068111156122db576122da612b81565b5b0217905550817fe3ea93cf6348155aedd9f5e3a1d8f1fd886a956f1401763612b9b694b3363e868260405161231091906139a4565b60405180910390a25050565b600560003373ffffffffffffffffffffffffffffffffffffffff1673ffffffffffffffffffffffffffffffffffffffff16815260200190815260200160002060009054906101000a900460ff166123a8576040517f08c379a000000000000000000000000000000000000000000000000000000000815260040161239f906130d6565b60405180910390fd5b6001600260008373ffffffffffffffffffffffffffffffffffffffff1673ffffffffffffffffffffffffffffffffffffffff16815260200190815260200160002060006101000a81548160ff0219169083151502179055508073ffffffffffffffffffffffffffffffffffffffff167fbcffc870b52d3cb785b17c2c7426be70f9181ce49c43cc7b479ebcfac2d7a1c860405160405180910390a250565b600360003373ffffffffffffffffffffffffffffffffffffffff1673ffffffffffffffffffffffffffffffffffffffff16815260200190815260200160002060009054906101000a900460ff166124d2576040517f08c379a00000000000000000000000000000000000000000000000000000000081526004016124c990613762565b60405180910390fd5b6000806000838152602001908152602001600020600001540361252a576040517f08c379a000000000000000000000000000000000000000000000000000000000815260040161252190613044565b60405180910390fd5b3373ffffffffffffffffffffffffffffffffffffffff1660008083815260200190815260200160002060070160009054906101000a900473ffffffffffffffffffffffffffffffffffffffff1673ffffffffffffffffffffffffffffffffffffffff16146125cd576040517f08c379a00000000000000000000000000000000000000000000000000000000081526004016125c4906137f4565b60405180910390fd5b600460068111156125e1576125e0612b81565b5b60008083815260200190815260200160002060080160149054906101000a900460ff16600681111561261657612615612b81565b5b14612656576040517f08c379a000000000000000000000000000000000000000000000000000000000815260040161264d90613ce5565b60405180910390fd5b600560008083815260200190815260200160002060080160146101000a81548160ff0219169083600681111561268f5761268e612b81565b5b0217905550807fed910afbb4f908c3787081c1d1df242d8cab386852b5e4553acbe05cdaf182cd60405160405180910390a250565b60045481565b6000600160003373ffffffffffffffffffffffffffffffffffffffff1673ffffffffffffffffffffffffffffffffffffffff16815260200190815260200160002060009054906101000a900460ff16612758576040517f08c379a000000000000000000000000000000000000000000000000000000000815260040161274f90613a31565b60405180910390fd5b6004600081548092919061276b90613d34565b919050555060405180610160016040528060045481526020018581526020018481526020018381526020014281526020013373ffffffffffffffffffffffffffffffffffffffff168152602001600073ffffffffffffffffffffffffffffffffffffffff168152602001600073ffffffffffffffffffffffffffffffffffffffff168152602001600073ffffffffffffffffffffffffffffffffffffffff1681526020016000600681111561282357612822612b81565b5b815260200160405180602001604052806000815250815250600080600454815260200190815260200160002060008201518160000155602082015181600101908161286e91906135fc565b50604082015181600201908161288491906135fc565b50606082015181600301556080820151816004015560a08201518160050160006101000a81548173ffffffffffffffffffffffffffffffffffffffff021916908373ffffffffffffffffffffffffffffffffffffffff16021790555060c08201518160060160006101000a81548173ffffffffffffffffffffffffffffffffffffffff021916908373ffffffffffffffffffffffffffffffffffffffff16021790555060e08201518160070160006101000a81548173ffffffffffffffffffffffffffffffffffffffff021916908373ffffffffffffffffffffffffffffffffffffffff1602179055506101008201518160080160006101000a81548173ffffffffffffffffffffffffffffffffffffffff021916908373ffffffffffffffffffffffffffffffffffffffff1602179055506101208201518160080160146101000a81548160ff021916908360068111156129e2576129e1612b81565b5b02179055506101408201518160090190816129fd91906135fc565b509050506004547faf6ffb6277511513e7d579327cc1fc57f0266df2fb11a60b13487b8c9cd2c3888533604051612a35929190613d7c565b60405180910390a260045490509392505050565b6000604051905090565b600080fd5b600080fd5b600073ffffffffffffffffffffffffffffffffffffffff82169050919050565b6000612a8882612a5d565b9050919050565b612a9881612a7d565b8114612aa357600080fd5b50565b600081359050612ab581612a8f565b92915050565b600060208284031215612ad157612ad0612a53565b5b6000612adf84828501612aa6565b91505092915050565b60008115159050919050565b612afd81612ae8565b82525050565b6000602082019050612b186000830184612af4565b92915050565b6000819050919050565b612b3181612b1e565b8114612b3c57600080fd5b50565b600081359050612b4e81612b28565b92915050565b600060208284031215612b6a57612b69612a53565b5b6000612b7884828501612b3f565b91505092915050565b7f4e487b7100000000000000000000000000000000000000000000000000000000600052602160045260246000fd5b60078110612bc157612bc0612b81565b5b50565b6000819050612bd282612bb0565b919050565b6000612be282612bc4565b9050919050565b612bf281612bd7565b82525050565b6000602082019050612c0d6000830184612be9565b92915050565b600080fd5b600080fd5b6000601f19601f8301169050919050565b7f4e487b7100000000000000000000000000000000000000000000000000000000600052604160045260246000fd5b612c6682612c1d565b810181811067ffffffffffffffff82111715612c8557612c84612c2e565b5b80604052505050565b6000612c98612a49565b9050612ca48282612c5d565b919050565b600067ffffffffffffffff821115612cc457612cc3612c2e565b5b612ccd82612c1d565b9050602081019050919050565b82818337600083830152505050565b6000612cfc612cf784612ca9565b612c8e565b905082815260208101848484011115612d1857612d17612c18565b5b612d23848285612cda565b509392505050565b600082601f830112612d4057612d3f612c13565b5b8135612d50848260208601612ce9565b91505092915050565b60008060408385031215612d7057612d6f612a53565b5b6000612d7e85828601612b3f565b925050602083013567ffffffffffffffff811115612d9f57612d9e612a58565b5b612dab85828601612d2b565b9150509250929050565b612dbe81612b1e565b82525050565b600081519050919050565b600082825260208201905092915050565b60005b83811015612dfe578082015181840152602081019050612de3565b60008484015250505050565b6000612e1582612dc4565b612e1f8185612dcf565b9350612e2f818560208601612de0565b612e3881612c1d565b840191505092915050565b612e4c81612a7d565b82525050565b600061016082019050612e68600083018e612db5565b8181036020830152612e7a818d612e0a565b90508181036040830152612e8e818c612e0a565b9050612e9d606083018b612db5565b612eaa608083018a612db5565b612eb760a0830189612e43565b612ec460c0830188612e43565b612ed160e0830187612e43565b612edf610100830186612e43565b612eed610120830185612be9565b818103610140830152612f008184612e0a565b90509c9b505050505050505050505050565b60008060408385031215612f2957612f28612a53565b5b6000612f3785828601612b3f565b9250506020612f4885828601612aa6565b9150509250929050565b6000602082019050612f676000830184612db5565b92915050565b600080600060608486031215612f8657612f85612a53565b5b600084013567ffffffffffffffff811115612fa457612fa3612a58565b5b612fb086828701612d2b565b935050602084013567ffffffffffffffff811115612fd157612fd0612a58565b5b612fdd86828701612d2b565b9250506040612fee86828701612b3f565b9150509250925092565b7f50726f6475637420646f6573206e6f7420657869737400000000000000000000600082015250565b600061302e601683612dcf565b915061303982612ff8565b602082019050919050565b6000602082019050818103600083015261305d81613021565b9050919050565b7f4f6e6c79206f776e65722063616e20706572666f726d2074686973206163746960008201527f6f6e000000000000000000000000000000000000000000000000000000000000602082015250565b60006130c0602283612dcf565b91506130cb82613064565b604082019050919050565b600060208201905081810360008301526130ef816130b3565b9050919050565b7f496e76616c6964206f776e657220616464726573730000000000000000000000600082015250565b600061312c601583612dcf565b9150613137826130f6565b602082019050919050565b6000602082019050818103600083015261315b8161311f565b9050919050565b7f4f776e65722063616e6e6f742072656d6f76652073656c660000000000000000600082015250565b6000613198601883612dcf565b91506131a382613162565b602082019050919050565b600060208201905081810360008301526131c78161318b565b9050919050565b7f4f6e6c7920737570706c6965722063616e20706572666f726d2074686973206160008201527f6374696f6e000000000000000000000000000000000000000000000000000000602082015250565b600061322a602583612dcf565b9150613235826131ce565b604082019050919050565b600060208201905081810360008301526132598161321d565b9050919050565b7f596f7520617265206e6f742074686520737570706c696572206f66207468697360008201527f2070726f64756374000000000000000000000000000000000000000000000000602082015250565b60006132bc602883612dcf565b91506132c782613260565b604082019050919050565b600060208201905081810360008301526132eb816132af565b9050919050565b7f50726f64756374206d7573742062652073656e7420746f20737570706c69657260008201527f2066697273740000000000000000000000000000000000000000000000000000602082015250565b600061334e602683612dcf565b9150613359826132f2565b604082019050919050565b6000602082019050818103600083015261337d81613341565b9050919050565b7f496e76616c69642070726f647563742073746174757300000000000000000000600082015250565b60006133ba601683612dcf565b91506133c582613384565b602082019050919050565b600060208201905081810360008301526133e9816133ad565b9050919050565b7f4e487b7100000000000000000000000000000000000000000000000000000000600052602260045260246000fd5b6000600282049050600182168061343757607f821691505b60208210810361344a576134496133f0565b5b50919050565b60008190508160005260206000209050919050565b60006020601f8301049050919050565b600082821b905092915050565b6000600883026134b27fffffffffffffffffffffffffffffffffffffffffffffffffffffffffffffffff82613475565b6134bc8683613475565b95508019841693508086168417925050509392505050565b6000819050919050565b60006134f96134f46134ef84612b1e565b6134d4565b612b1e565b9050919050565b6000819050919050565b613513836134de565b61352761351f82613500565b848454613482565b825550505050565b600090565b61353c61352f565b61354781848461350a565b505050565b5b8181101561356b57613560600082613534565b60018101905061354d565b5050565b601f8211156135b05761358181613450565b61358a84613465565b81016020851015613599578190505b6135ad6135a585613465565b83018261354c565b50505b505050565b600082821c905092915050565b60006135d3600019846008026135b5565b1980831691505092915050565b60006135ec83836135c2565b9150826002028217905092915050565b61360582612dc4565b67ffffffffffffffff81111561361e5761361d612c2e565b5b613628825461341f565b61363382828561356f565b600060209050601f8311600181146136665760008415613654578287015190505b61365e85826135e0565b8655506136c6565b601f19841661367486613450565b60005b8281101561369c57848901518255600182019150602085019450602081019050613677565b868310156136b957848901516136b5601f8916826135c2565b8355505b6001600288020188555050505b505050505050565b600060208201905081810360008301526136e88184612e0a565b905092915050565b7f4f6e6c792072657461696c65722063616e20706572666f726d2074686973206160008201527f6374696f6e000000000000000000000000000000000000000000000000000000602082015250565b600061374c602583612dcf565b9150613757826136f0565b604082019050919050565b6000602082019050818103600083015261377b8161373f565b9050919050565b7f596f7520617265206e6f74207468652072657461696c6572206f66207468697360008201527f2070726f64756374000000000000000000000000000000000000000000000000602082015250565b60006137de602883612dcf565b91506137e982613782565b604082019050919050565b6000602082019050818103600083015261380d816137d1565b9050919050565b7f50726f64756374206d7573742062652073656e7420746f2072657461696c657260008201527f2066697273740000000000000000000000000000000000000000000000000000602082015250565b6000613870602683612dcf565b915061387b82613814565b604082019050919050565b6000602082019050818103600083015261389f81613863565b9050919050565b7f50726f64756374206d757374206265207265636569766564206279207375707060008201527f6c69657220666972737400000000000000000000000000000000000000000000602082015250565b6000613902602a83612dcf565b915061390d826138a6565b604082019050919050565b60006020820190508181036000830152613931816138f5565b9050919050565b7f496e76616c69642072657461696c657220616464726573730000000000000000600082015250565b600061396e601883612dcf565b915061397982613938565b602082019050919050565b6000602082019050818103600083015261399d81613961565b9050919050565b60006020820190506139b96000830184612e43565b92915050565b7f4f6e6c792070726f64756365722063616e20706572666f726d2074686973206160008201527f6374696f6e000000000000000000000000000000000000000000000000000000602082015250565b6000613a1b602583612dcf565b9150613a26826139bf565b604082019050919050565b60006020820190508181036000830152613a4a81613a0e565b9050919050565b7f596f7520617265206e6f74207468652070726f6475636572206f66207468697360008201527f2070726f64756374000000000000000000000000000000000000000000000000602082015250565b6000613aad602883612dcf565b9150613ab882613a51565b604082019050919050565b60006020820190508181036000830152613adc81613aa0565b9050919050565b7f50726f64756374206d75737420626520696e204372656174656420737461747560008201527f7300000000000000000000000000000000000000000000000000000000000000602082015250565b6000613b3f602183612dcf565b9150613b4a82613ae3565b604082019050919050565b60006020820190508181036000830152613b6e81613b32565b9050919050565b7f496e76616c696420737570706c69657220616464726573730000000000000000600082015250565b6000613bab601883612dcf565b9150613bb682613b75565b602082019050919050565b60006020820190508181036000830152613bda81613b9e565b9050919050565b7f50726f64756374206d75737420626520617661696c61626c6520666f7220736160008201527f6c65000000000000000000000000000000000000000000000000000000000000602082015250565b6000613c3d602283612dcf565b9150613c4882613be1565b604082019050919050565b60006020820190508181036000830152613c6c81613c30565b9050919050565b7f50726f64756374206d757374206265207265636569766564206279207265746160008201527f696c657220666972737400000000000000000000000000000000000000000000602082015250565b6000613ccf602a83612dcf565b9150613cda82613c73565b604082019050919050565b60006020820190508181036000830152613cfe81613cc2565b9050919050565b7f4e487b7100000000000000000000000000000000000000000000000000000000600052601160045260246000fd5b6000613d3f82612b1e565b91507fffffffffffffffffffffffffffffffffffffffffffffffffffffffffffffffff8203613d7157613d70613d05565b5b600182019050919050565b60006040820190508181036000830152613d968185612e0a565b9050613da56020830184612e43565b939250505056fea26469706673582212209dbc7a8c24ee69b1c48e9cab4ce06989d0aa4931d70fd9d4fc01ea379e77e82364736f6c634300081c0033",
  "linkReferences": {},
  "deployedLinkReferences": {},
  "uiAddresses": {
    "owner": "0xf39Fd6e51aad88F6F4ce6aB8827279cffFb92266",
    "producers": [
      "0x70997970C51812dc3A010C7d01b50e0d17dc79C8",
      "0x9965507D1a55bcC2695C58ba16FB37d819B0A4dc",
      "0xa0Ee7A142d267C1f36714E4a8F75612F20a79720"
    ],
    "suppliers": [
      "0x3C44CdDdB6a900fa2b585dd299e03d12FA4293BC",
      "0x976EA74026E726554dB657fA54763abd0C3a0aa9",
      "0xBcd4042DE499D14e55001CcbB24a551F3b954096"
    ],
    "retailers": [
      "0x90F79bf6EB2c4f870365E785982E1f101E93b906",
      "0x14dC79964da2C08b23698B3D3cc7Ca32193d9955",
      "0x71bE63f3384f5fb98995898A86B02Fb2426c5788"
    ],
    "consumers": [
      "0x15d34AAf54267DB7D7c367839AAf71A00a2C6A65",
      "0x23618e81E3f5cdF7f54C3d65f7FBc0aBf5B21E8f",
      "0xFABB0ac9d68B0B445fB7357272Ff202C5651694a"
    ],
    "extra": [
      "0x1CBd3b2770909D4e10f157cABC84C7264073C9Ec",
      "0xdF3e18d64BC6A983f673Ab319CCaE4f1a57C7097",
      "0xcd3B766CCDd6AE721141F452C550Ca635964ce71",
      "0x2546BcD3c84621e976D8185a91A922aE77ECEc30",
      "0xbDA5747bFD65F08deb54cb465eB87D40e51B197E",
      "0xdD2FD4581271e230360230F9337D5c0430Bf44C0",
      "0x8626f6940E2eb28930eFb4CeF49B2d1F2C9C1199"
    ],
    "metamask": [
      "0x7D0A9C42B9953A1Adc0A8a15a6a66bB489994E57",
      "0x44DA5566ef04234363B4882d856D590ab435096e",
      "0x933d4350BCA858e6De702A929878a413352885d8",
      "0x2fa965d296F182848588F9A3Ed97AF2E9fdF2d76",
      "0xB6Ce9Af39c7CA87F179666C05204d72516649dfC",
      "0x5560e14d290bc0459cA186b647637238dDE2cdFb",
      "0x8567da95C79EfCD36f953478D4f3AdEC117ae179",
      "0x24dC4ef5604ee51c616c1a7F42906F44CF196afE",
      "0xE5A1385f95ACd5caD8192fb82F13F065aeBA86Cc",
      "0xd51c949838F9e35851b5C9be3f6309101B0687C2",
      "0x984E3ea2679d8Febc93D0C885712158deBcef02e",
      "0x171c52193664A2c624c5551C442A8bbde2D3a93e",
      "0xC693c588981179b5e3F951e12C38E74EA6082d1c",
      "0x34E817073401Aaa0f21215d769Cd9e3500B2e69e",
      "0x423536D127f738b31999B2259d1FF842C2d47080"
    ],
    "metamaskOwners": [
      "0x7D0A9C42B9953A1Adc0A8a15a6a66bB489994E57"
    ],
    "metamaskProducers": [
      "0x44DA5566ef04234363B4882d856D590ab435096e",
      "0x933d4350BCA858e6De702A929878a413352885d8"
    ],
    "metamaskSuppliers": [
      "0x2fa965d296F182848588F9A3Ed97AF2E9fdF2d76",
      "0xB6Ce9Af39c7CA87F179666C05204d72516649dfC"
    ],
    "metamaskRetailers": [
      "0x5560e14d290bc0459cA186b647637238dDE2cdFb",
      "0x8567da95C79EfCD36f953478D4f3AdEC117ae179"
    ],
    "metamaskConsumers": [
      "0x24dC4ef5604ee51c616c1a7F42906F44CF196afE",
      "0xE5A1385f95ACd5caD8192fb82F13F065aeBA86Cc",
      "0xd51c949838F9e35851b5C9be3f6309101B0687C2",
      "0x984E3ea2679d8Febc93D0C885712158deBcef02e",
      "0x171c52193664A2c624c5551C442A8bbde2D3a93e",
      "0xC693c588981179b5e3F951e12C38E74EA6082d1c",
      "0x34E817073401Aaa0f21215d769Cd9e3500B2e69e",
      "0x423536D127f738b31999B2259d1FF842C2d47080"
    ]
  }
}