{
  "_format": "hh-sol-artifact-1",
  "contractName": "SupplyChain",
  "sourceName": "contracts/SupplyChain.sol",
  "abi": [
    {
      "inputs": [],
      "stateMutability": "nonpayable",
      "type": "constructor"
    },
    {
      "anonymous": false,
      "inputs": [
        {
          "indexed": true,
          "internalType": "address",
          "name": "owner",
          "type": "address"
        }
      ],
      "name": "OwnerAdded",
      "type": "event"
    },
    {
      "anonymous": false,
      "inputs": [
        {
          "indexed": true,
          "internalType": "address",
          "name": "owner",
          "type": "address"
        }
      ],
      "name": "OwnerRemoved",
      "type": "event"
    },
    {
      "anonymous": false,
      "inputs": [
        {
          "indexed": true,
          "internalType": "address",
          "name": "producer",
          "type": "address"
        }
      ],
      "name": "ProducerRegistered",
      "type": "event"
    },
    {
      "anonymous": false,
      "inputs": [
        {
          "indexed": true,
          "internalType": "uint256",
          "name": "productId",
          "type": "uint256"
        }
      ],
      "name": "ProductAddedToStore",
      "type": "event"
    },
    {
      "anonymous": false,
      "inputs": [
        {
          "indexed": true,
          "internalType": "uint256",
          "name": "productId",
          "type": "uint256"
        },
        {
          "indexed": false,
          "internalType": "string",
          "name": "name",
          "type": "string"
        },
        {
          "indexed": false,
          "internalType": "address",
          "name": "producer",
          "type": "address"
        }
      ],
      "name": "ProductCreated",
      "type": "event"
    },
    {
      "anonymous": false,
      "inputs": [
        {
          "indexed": true,
          "internalType": "uint256",
          "name": "productId",
          "type": "uint256"
        }
      ],
      "name": "ProductReceivedByRetailer",
      "type": "event"
    },
    {
      "anonymous": false,
      "inputs": [
        {
          "indexed": true,
          "internalType": "uint256",
          "name": "productId",
          "type": "uint256"
        }
      ],
      "name": "ProductReceivedBySupplier",
      "type": "event"
    },
    {
      "anonymous": false,
      "inputs": [
        {
          "indexed": true,
          "internalType": "uint256",
          "name": "productId",
          "type": "uint256"
        },
        {
          "indexed": false,
          "internalType": "address",
          "name": "retailer",
          "type": "address"
        }
      ],
      "name": "ProductSentToRetailer",
      "type": "event"
    },
    {
      "anonymous": false,
      "inputs": [
        {
          "indexed": true,
          "internalType": "uint256",
          "name": "productId",
          "type": "uint256"
        },
        {
          "indexed": false,
          "internalType": "address",
          "name": "supplier",
          "type": "address"
        }
      ],
      "name": "ProductSentToSupplier",
      "type": "event"
    },
    {
      "anonymous": false,
      "inputs": [
        {
          "indexed": true,
          "internalType": "uint256",
          "name": "productId",
          "type": "uint256"
        },
        {
          "indexed": false,
          "internalType": "address",
          "name": "consumer",
          "type": "address"
        }
      ],
      "name": "ProductSoldToConsumer",
      "type": "event"
    },
    {
      "anonymous": false,
      "inputs": [
        {
          "indexed": true,
          "internalType": "uint256",
          "name": "quotationId",
          "type": "uint256"
        },
        {
          "indexed": true,
          "internalType": "uint256",
          "name": "productId",
          "type": "uint256"
        },
        {
          "indexed": true,
          "internalType": "address",
          "name": "producer",
          "type": "address"
        }
      ],
      "name": "QuotationApproved",
      "type": "event"
    },
    {
      "anonymous": false,
      "inputs": [
        {
          "indexed": true,
          "internalType": "uint256",
          "name": "quotationId",
          "type": "uint256"
        },
        {
          "indexed": true,
          "internalType": "address",
          "name": "consumer",
          "type": "address"
        },
        {
          "indexed": false,
          "internalType": "string",
          "name": "productName",
          "type": "string"
        },
        {
          "indexed": false,
          "internalType": "uint256",
          "name": "requestedQuantity",
          "type": "uint256"
        }
      ],
      "name": "QuotationCreated",
      "type": "event"
    },
    {
      "anonymous": false,
      "inputs": [
        {
          "indexed": true,
          "internalType": "uint256",
          "name": "quotationId",
          "type": "uint256"
        },
        {
          "indexed": true,
          "internalType": "uint256",
          "name": "productId",
          "type": "uint256"
        },
        {
          "indexed": true,
          "internalType": "address",
          "name": "consumer",
          "type": "address"
        }
      ],
      "name": "QuotationFulfilled",
      "type": "event"
    },
    {
      "anonymous": false,
      "inputs": [
        {
          "indexed": true,
          "internalType": "uint256",
          "name": "quotationId",
          "type": "uint256"
        },
        {
          "indexed": true,
          "internalType": "address",
          "name": "producer",
          "type": "address"
        }
      ],
      "name": "QuotationRejected",
      "type": "event"
    },
    {
      "anonymous": false,
      "inputs": [
        {
          "indexed": false,
          "internalType": "uint256[]",
          "name": "quotationIds",
          "type": "uint256[]"
        },
        {
          "indexed": true,
          "internalType": "uint256",
          "name": "productId",
          "type": "uint256"
        },
        {
          "indexed": true,
          "internalType": "address",
          "name": "producer",
          "type": "address"
        }
      ],
      "name": "QuotationsBatchApproved",
      "type": "event"
    },
    {
      "anonymous": false,
      "inputs": [
        {
          "indexed": true,
          "internalType": "address",
          "name": "retailer",
          "type": "address"
        }
      ],
      "name": "RetailerRegistered",
      "type": "event"
    },
    {
      "anonymous": false,
      "inputs": [
        {
          "indexed": true,
          "internalType": "uint256",
          "name": "productId",
          "type": "uint256"
        },
        {
          "indexed": false,
          "internalType": "string",
          "name": "shippingInfo",
          "type": "string"
        }
      ],
      "name": "ShippingInfoUpdated",
      "type": "event"
    },
    {
      "anonymous": false,
      "inputs": [
        {
          "indexed": true,
          "internalType": "address",
          "name": "supplier",
          "type": "address"
        }
      ],
      "name": "SupplierRegistered",
      "type": "event"
    },
    {
      "inputs": [
        {
          "internalType": "address",
          "name": "_newOwner",
          "type": "address"
        }
      ],
      "name": "addOwner",
      "outputs": [],
      "stateMutability": "nonpayable",
      "type": "function"
    },
    {
      "inputs": [
        {
          "internalType": "string",
          "name": "_name",
          "type": "string"
        },
        {
          "internalType": "string",
          "name": "_description",
          "type": "string"
        },
        {
          "internalType": "uint256",
          "name": "_quantity",
          "type": "uint256"
        }
      ],
      "name": "addProduct",
      "outputs": [
        {
          "internalType": "uint256",
          "name": "",
          "type": "uint256"
        }
      ],
      "stateMutability": "nonpayable",
      "type": "function"
    },
    {
      "inputs": [
        {
          "internalType": "uint256",
          "name": "_productId",
          "type": "uint256"
        }
      ],
      "name": "addToStore",
      "outputs": [],
      "stateMutability": "nonpayable",
      "type": "function"
    },
    {
      "inputs": [
        {
          "internalType": "uint256[]",
          "name": "_quotationIds",
          "type": "uint256[]"
        },
        {
          "internalType": "uint256",
          "name": "_totalQuantity",
          "type": "uint256"
        }
      ],
      "name": "approveQuotations",
      "outputs": [
        {
          "internalType": "uint256",
          "name": "",
          "type": "uint256"
        }
      ],
      "stateMutability": "nonpayable",
      "type": "function"
    },
    {
      "inputs": [
        {
          "internalType": "address",
          "name": "",
          "type": "address"
        },
        {
          "internalType": "uint256",
          "name": "",
          "type": "uint256"
        }
      ],
      "name": "consumerQuotations",
      "outputs": [
        {
          "internalType": "uint256",
          "name": "",
          "type": "uint256"
        }
      ],
      "stateMutability": "view",
      "type": "function"
    },
    {
      "inputs": [
        {
          "internalType": "string",
          "name": "_productName",
          "type": "string"
        },
        {
          "internalType": "string",
          "name": "_description",
          "type": "string"
        },
        {
          "internalType": "uint256",
          "name": "_requestedQuantity",
          "type": "uint256"
        }
      ],
      "name": "createQuotation",
      "outputs": [
        {
          "internalType": "uint256",
          "name": "",
          "type": "uint256"
        }
      ],
      "stateMutability": "nonpayable",
      "type": "function"
    },
    {
      "inputs": [
        {
          "internalType": "uint256",
          "name": "_productId",
          "type": "uint256"
        },
        {
          "internalType": "uint256[]",
          "name": "_quotationIds",
          "type": "uint256[]"
        }
      ],
      "name": "fulfillQuotations",
      "outputs": [],
      "stateMutability": "nonpayable",
      "type": "function"
    },
    {
      "inputs": [
        {
          "internalType": "string",
          "name": "_productName",
          "type": "string"
        }
      ],
      "name": "getAvailableProductsByName",
      "outputs": [
        {
          "internalType": "uint256[]",
          "name": "productIds",
          "type": "uint256[]"
        },
        {
          "internalType": "uint256[]",
          "name": "availableQuantities",
          "type": "uint256[]"
        }
      ],
      "stateMutability": "view",
      "type": "function"
    },
    {
      "inputs": [
        {
          "internalType": "address",
          "name": "_consumer",
          "type": "address"
        }
      ],
      "name": "getConsumerQuotations",
      "outputs": [
        {
          "internalType": "uint256[]",
          "name": "",
          "type": "uint256[]"
        }
      ],
      "stateMutability": "view",
      "type": "function"
    },
    {
      "inputs": [],
      "name": "getPendingQuotations",
      "outputs": [
        {
          "internalType": "uint256[]",
          "name": "",
          "type": "uint256[]"
        }
      ],
      "stateMutability": "view",
      "type": "function"
    },
    {
      "inputs": [
        {
          "internalType": "uint256",
          "name": "_productId",
          "type": "uint256"
        }
      ],
      "name": "getProduct",
      "outputs": [
        {
          "internalType": "uint256",
          "name": "id",
          "type": "uint256"
        },
        {
          "internalType": "string",
          "name": "name",
          "type": "string"
        },
        {
          "internalType": "string",
          "name": "description",
          "type": "string"
        },
        {
          "internalType": "uint256",
          "name": "quantity",
          "type": "uint256"
        },
        {
          "internalType": "uint256",
          "name": "createdAt",
          "type": "uint256"
        },
        {
          "internalType": "address",
          "name": "producer",
          "type": "address"
        },
        {
          "internalType": "address",
          "name": "supplier",
          "type": "address"
        },
        {
          "internalType": "address",
          "name": "retailer",
          "type": "address"
        },
        {
          "internalType": "address",
          "name": "consumer",
          "type": "address"
        },
        {
          "internalType": "enum SupplyChain.ProductStatus",
          "name": "status",
          "type": "uint8"
        },
        {
          "internalType": "string",
          "name": "shippingInfo",
          "type": "string"
        }
      ],
      "stateMutability": "view",
      "type": "function"
    },
    {
      "inputs": [
        {
          "internalType": "uint256",
          "name": "_productId",
          "type": "uint256"
        }
      ],
      "name": "getProductExtended",
      "outputs": [
        {
          "internalType": "uint256",
          "name": "id",
          "type": "uint256"
        },
        {
          "internalType": "string",
          "name": "name",
          "type": "string"
        },
        {
          "internalType": "string",
          "name": "description",
          "type": "string"
        },
        {
          "internalType": "uint256",
          "name": "totalQuantity",
          "type": "uint256"
        },
        {
          "internalType": "uint256",
          "name": "availableQuantity",
          "type": "uint256"
        },
        {
          "internalType": "uint256",
          "name": "createdAt",
          "type": "uint256"
        },
        {
          "internalType": "address",
          "name": "producer",
          "type": "address"
        },
        {
          "internalType": "address",
          "name": "supplier",
          "type": "address"
        },
        {
          "internalType": "address",
          "name": "retailer",
          "type": "address"
        },
        {
          "internalType": "address",
          "name": "consumer",
          "type": "address"
        },
        {
          "internalType": "enum SupplyChain.ProductStatus",
          "name": "status",
          "type": "uint8"
        },
        {
          "internalType": "string",
          "name": "shippingInfo",
          "type": "string"
        },
        {
          "internalType": "uint256[]",
          "name": "quotationIds",
          "type": "uint256[]"
        },
        {
          "internalType": "bool",
          "name": "isFromQuotation",
          "type": "bool"
        }
      ],
      "stateMutability": "view",
      "type": "function"
    },
    {
      "inputs": [
        {
          "internalType": "uint256",
          "name": "_productId",
          "type": "uint256"
        }
      ],
      "name": "getProductQuotations",
      "outputs": [
        {
          "internalType": "uint256[]",
          "name": "",
          "type": "uint256[]"
        }
      ],
      "stateMutability": "view",
      "type": "function"
    },
    {
      "inputs": [
        {
          "internalType": "uint256",
          "name": "_productId",
          "type": "uint256"
        }
      ],
      "name": "getProductStatus",
      "outputs": [
        {
          "internalType": "enum SupplyChain.ProductStatus",
          "name": "",
          "type": "uint8"
        }
      ],
      "stateMutability": "view",
      "type": "function"
    },
    {
      "inputs": [
        {
          "internalType": "uint256",
          "name": "_quotationId",
          "type": "uint256"
        }
      ],
      "name": "getQuotation",
      "outputs": [
        {
          "internalType": "uint256",
          "name": "id",
          "type": "uint256"
        },
        {
          "internalType": "address",
          "name": "consumer",
          "type": "address"
        },
        {
          "internalType": "string",
          "name": "productName",
          "type": "string"
        },
        {
          "internalType": "string",
          "name": "description",
          "type": "string"
        },
        {
          "internalType": "uint256",
          "name": "requestedQuantity",
          "type": "uint256"
        },
        {
          "internalType": "uint256",
          "name": "createdAt",
          "type": "uint256"
        },
        {
          "internalType": "enum SupplyChain.QuotationStatus",
          "name": "status",
          "type": "uint8"
        },
        {
          "internalType": "uint256",
          "name": "productId",
          "type": "uint256"
        }
      ],
      "stateMutability": "view",
      "type": "function"
    },
    {
      "inputs": [
        {
          "internalType": "address",
          "name": "",
          "type": "address"
        }
      ],
      "name": "owners",
      "outputs": [
        {
          "internalType": "bool",
          "name": "",
          "type": "bool"
        }
      ],
      "stateMutability": "view",
      "type": "function"
    },
    {
      "inputs": [
        {
          "internalType": "address",
          "name": "",
          "type": "address"
        }
      ],
      "name": "producers",
      "outputs": [
        {
          "internalType": "bool",
          "name": "",
          "type": "bool"
        }
      ],
      "stateMutability": "view",
      "type": "function"
    },
    {
      "inputs": [],
      "name": "productCount",
      "outputs": [
        {
          "internalType": "uint256",
          "name": "",
          "type": "uint256"
        }
      ],
      "stateMutability": "view",
      "type": "function"
    },
    {
      "inputs": [
        {
          "internalType": "uint256",
          "name": "",
          "type": "uint256"
        }
      ],
      "name": "products",
      "outputs": [
        {
          "internalType": "uint256",
          "name": "id",
          "type": "uint256"
        },
        {
          "internalType": "string",
          "name": "name",
          "type": "string"
        },
        {
          "internalType": "string",
          "name": "description",
          "type": "string"
        },
        {
          "internalType": "uint256",
          "name": "totalQuantity",
          "type": "uint256"
        },
        {
          "internalType": "uint256",
          "name": "availableQuantity",
          "type": "uint256"
        },
        {
          "internalType": "uint256",
          "name": "createdAt",
          "type": "uint256"
        },
        {
          "internalType": "address",
          "name": "producer",
          "type": "address"
        },
        {
          "internalType": "address",
          "name": "supplier",
          "type": "address"
        },
        {
          "internalType": "address",
          "name": "retailer",
          "type": "address"
        },
        {
          "internalType": "address",
          "name": "consumer",
          "type": "address"
        },
        {
          "internalType": "enum SupplyChain.ProductStatus",
          "name": "status",
          "type": "uint8"
        },
        {
          "internalType": "string",
          "name": "shippingInfo",
          "type": "string"
        },
        {
          "internalType": "bool",
          "name": "isFromQuotation",
          "type": "bool"
        }
      ],
      "stateMutability": "view",
      "type": "function"
    },
    {
      "inputs": [
        {
          "internalType": "uint256",
          "name": "_productId",
          "type": "uint256"
        },
        {
          "internalType": "uint256",
          "name": "_quantity",
          "type": "uint256"
        }
      ],
      "name": "purchaseFromSurplus",
      "outputs": [],
      "stateMutability": "nonpayable",
      "type": "function"
    },
    {
      "inputs": [],
      "name": "quotationCount",
      "outputs": [
        {
          "internalType": "uint256",
          "name": "",
          "type": "uint256"
        }
      ],
      "stateMutability": "view",
      "type": "function"
    },
    {
      "inputs": [
        {
          "internalType": "uint256",
          "name": "",
          "type": "uint256"
        }
      ],
      "name": "quotations",
      "outputs": [
        {
          "internalType": "uint256",
          "name": "id",
          "type": "uint256"
        },
        {
          "internalType": "address",
          "name": "consumer",
          "type": "address"
        },
        {
          "internalType": "string",
          "name": "productName",
          "type": "string"
        },
        {
          "internalType": "string",
          "name": "description",
          "type": "string"
        },
        {
          "internalType": "uint256",
          "name": "requestedQuantity",
          "type": "uint256"
        },
        {
          "internalType": "uint256",
          "name": "createdAt",
          "type": "uint256"
        },
        {
          "internalType": "enum SupplyChain.QuotationStatus",
          "name": "status",
          "type": "uint8"
        },
        {
          "internalType": "uint256",
          "name": "productId",
          "type": "uint256"
        }
      ],
      "stateMutability": "view",
      "type": "function"
    },
    {
      "inputs": [
        {
          "internalType": "uint256",
          "name": "_productId",
          "type": "uint256"
        }
      ],
      "name": "receiveProduct",
      "outputs": [],
      "stateMutability": "nonpayable",
      "type": "function"
    },
    {
      "inputs": [
        {
          "internalType": "uint256",
          "name": "_productId",
          "type": "uint256"
        }
      ],
      "name": "receiveProductFromSupplier",
      "outputs": [],
      "stateMutability": "nonpayable",
      "type": "function"
    },
    {
      "inputs": [
        {
          "internalType": "address",
          "name": "_producer",
          "type": "address"
        }
      ],
      "name": "registerProducer",
      "outputs": [],
      "stateMutability": "nonpayable",
      "type": "function"
    },
    {
      "inputs": [
        {
          "internalType": "address",
          "name": "_retailer",
          "type": "address"
        }
      ],
      "name": "registerRetailer",
      "outputs": [],
      "stateMutability": "nonpayable",
      "type": "function"
    },
    {
      "inputs": [
        {
          "internalType": "address",
          "name": "_supplier",
          "type": "address"
        }
      ],
      "name": "registerSupplier",
      "outputs": [],
      "stateMutability": "nonpayable",
      "type": "function"
    },
    {
      "inputs": [
        {
          "internalType": "uint256",
          "name": "_quotationId",
          "type": "uint256"
        }
      ],
      "name": "rejectQuotation",
      "outputs": [],
      "stateMutability": "nonpayable",
      "type": "function"
    },
    {
      "inputs": [
        {
          "internalType": "address",
          "name": "_ownerToRemove",
          "type": "address"
        }
      ],
      "name": "removeOwner",
      "outputs": [],
      "stateMutability": "nonpayable",
      "type": "function"
    },
    {
      "inputs": [
        {
          "internalType": "address",
          "name": "",
          "type": "address"
        }
      ],
      "name": "retailers",
      "outputs": [
        {
          "internalType": "bool",
          "name": "",
          "type": "bool"
        }
      ],
      "stateMutability": "view",
      "type": "function"
    },
    {
      "inputs": [
        {
          "internalType": "uint256",
          "name": "_productId",
          "type": "uint256"
        },
        {
          "internalType": "address",
          "name": "_consumer",
          "type": "address"
        }
      ],
      "name": "sellToConsumer",
      "outputs": [],
      "stateMutability": "nonpayable",
      "type": "function"
    },
    {
      "inputs": [
        {
          "internalType": "uint256",
          "name": "_productId",
          "type": "uint256"
        },
        {
          "internalType": "address",
          "name": "_retailer",
          "type": "address"
        }
      ],
      "name": "sendToRetailer",
      "outputs": [],
      "stateMutability": "nonpayable",
      "type": "function"
    },
    {
      "inputs": [
        {
          "internalType": "uint256",
          "name": "_productId",
          "type": "uint256"
        },
        {
          "internalType": "address",
          "name": "_supplier",
          "type": "address"
        }
      ],
      "name": "sendToSupplier",
      "outputs": [],
      "stateMutability": "nonpayable",
      "type": "function"
    },
    {
      "inputs": [
        {
          "internalType": "address",
          "name": "",
          "type": "address"
        }
      ],
      "name": "suppliers",
      "outputs": [
        {
          "internalType": "bool",
          "name": "",
          "type": "bool"
        }
      ],
      "stateMutability": "view",
      "type": "function"
    },
    {
      "inputs": [
        {
          "internalType": "uint256",
          "name": "_productId",
          "type": "uint256"
        },
        {
          "internalType": "string",
          "name": "_shippingInfo",
          "type": "string"
        }
      ],
      "name": "updateShippingInfo",
      "outputs": [],
      "stateMutability": "nonpayable",
      "type": "function"
    }
  ],
  "bytecode": "0x60808060405234602e573360005260086020526040600020600160ff19825416179055613a9090816100348239f35b600080fdfe6080604052600436101561001257600080fd5b60003560e01c80624c9e2114613015578063022914a714612fd65780630a23ba9c14612ee25780630dea449b14612e9a57806313f6b1bb14612e45578063145a74b614612cd157806316dc15fe14612c92578063173825d914612bc257806326324eff14612b8357806329d7832814612a525780633c530ace146129d55780633db5a234146129215780634a75c285146126915780634e8962581461260f5780635d3ac73314612367578063691787d614611f4c5780637065cb4814611ec55780637acc0b2014611d705780638120b97014611c3f5780638345750b14611a835780638d291db714611a655780638ec44120146119035780639a268f35146118c45780639d4368bc14611876578063a83006da146117fb578063a9167c02146117a2578063b9db15b4146115b1578063ba120328146113b1578063bf19116914611297578063ccbdf48e146109c8578063cf7f5e5f1461094d578063d992540914610818578063e0f6ef87146107fa578063f28ea1c1146102855763fe814b011461019c57600080fd5b34610280576000366003190112610280576006546101b981613542565b9060009060015b818111156102175750506101d381613542565b9160005b8281106101f857604051602080825281906101f490820187613284565b0390f35b8061020560019284613599565b516102108287613599565b52016101d7565b80600052600460205260ff60066040600020015416600481101561026a5715610249575b61024490613574565b6101c0565b91610262818461025c6102449488613599565b52613574565b92905061023b565b634e487b7160e01b600052602160045260246000fd5b600080fd5b3461028057610293366134c3565b91903360005260016020526102af60ff604060002054166137b5565b6102ba600754613574565b9283600755602093604051906102d0868361320d565b600082526000368137604051926102e6846131f1565b818452868401948686526040850190815260608501908282526080860192835260a086019342855260c0870195338752600060e08901526000610100890152600061012089015260006101408901526040516103428c8261320d565b6000815261016089015261018088015260006101a088015260005260008952604060002096865188556001880190518051906001600160401b0382116105ec57819061038e8454613392565b8d601f82116107c9575b50508c908d601f84116001146107635750600092610758575b50508160011b916000199060031b1c19161790555b518051906001600160401b0382116105ec5781906103e760028a0154613392565b8b601f8211610724575b50508a90601f83116001146106b8576000926106ad575b50508160011b916000199060031b1c19161760028701555b516003860155516004850155516005840155516006830180546001600160a01b03199081166001600160a01b039384161790915560e08301516007808601805484169285169290921790915561010084015160088601805484169185169190911790556101208401516009860180549093169316929092178155610140830151909181101561026a576104b291613791565b600a82016101608201518051906001600160401b0382116105ec5781906104d98454613392565b601f8111610672575b508790601f831160011461060d57600092610602575b50508160011b916000199060031b1c19161790555b600b8201610180820151908151916001600160401b0383116105ec57600160401b83116105ec57869082548484558085106105cf575b5001906000528560002060005b8381106105bd57876105b28861057d89600c6101a08b0151151591019060ff801983541691151516179055565b7faf6ffb6277511513e7d579327cc1fc57f0266df2fb11a60b13487b8c9cd2c388600754928392604051918291339083613a32565b0390a2604051908152f35b82518282015591870191600101610550565b6105e69084600052858460002091820191016138a7565b88610543565b634e487b7160e01b600052604160045260246000fd5b0151905087806104f8565b60008581528981209350601f198516905b8a82821061065c575050908460019594939210610643575b505050811b01905561050d565b015160001960f88460031b161c19169055878080610636565b600185968293968601518155019501930161061e565b61069d908560005289600020601f850160051c8101918b86106106a3575b601f0160051c01906138a7565b886104e2565b9091508190610690565b015190508a80610408565b60028a0160009081528c81209350601f198516905b8d82821061070e5750509084600195949392106106f5575b505050811b016002870155610420565b015160001960f88460031b161c191690558a80806106e5565b60018596829396860151815501950193016106cd565b6107519160028c016000528160002090601f860160051c82019286106106a357601f0160051c01906138a7565b8b8b6103f1565b015190508c806103b1565b60008681528181209450601f198616915b8282106107b1575050908460019594939210610798575b505050811b0190556103c6565b015160001960f88460031b161c191690558c808061078b565b80600186978294978701518155019601940190610774565b6107f391866000528160002090601f860160051c82019286106106a357601f0160051c01906138a7565b8d8d610398565b34610280576000366003190112610280576020600754604051908152f35b346102805760203660031901126102805760043533600052600360205261084660ff604060002054166138be565b80600052600060205261085f60406000205415156135ad565b600081815260208190526040902060080154610885906001600160a01b03163314613918565b80600052600060205260ff60096040600020015460a01c16600781101561026a576004036108f5576000818152602081905260408120600901805460ff60a01b1916600560a01b1790557fed910afbb4f908c3787081c1d1df242d8cab386852b5e4553acbe05cdaf182cd9080a2005b60405162461bcd60e51b815260206004820152602a60248201527f50726f64756374206d75737420626520726563656976656420627920726574616044820152691a5b195c88199a5c9cdd60b21b6064820152608490fd5b34610280576020366003190112610280576109666132b8565b33600052600860205261098060ff6040600020541661363f565b6001600160a01b03166000818152600260205260408120805460ff191660011790557fbcffc870b52d3cb785b17c2c7426be70f9181ce49c43cc7b479ebcfac2d7a1c89080a2005b34610280576040366003190112610280576004356001600160401b038111610280576109f8903690600401613466565b60243590336000526001602052610a1660ff604060002054166137b5565b8051156112465781156111f357600090602091604051610a36848261320d565b81815291604051610a47858261320d565b8281529282905b8251821015610bb357610a618284613599565b51938460005260048752610a7b604060002054151561380f565b846000526004875260ff6006604060002001541690600482101561026a57610aa6610abd921561385b565b8560005260048852600460406000200154906139cc565b9482610b1d5750508260005260048552610ae7610aee6002604060002001604051928380926133cc565b038261320d565b92600052600485526001610ae7610b126003604060002001604051928380926133cc565b915b01909392610a4e565b91909360005260048652610ae7610b416002604060002001604051928380926133cc565b86815191012084518786012003610b5a57600190610b14565b60405162461bcd60e51b815260048101879052602b60248201527f416c6c2071756f746174696f6e73206d75737420626520666f7220746865207360448201526a185b59481c1c9bd91d58dd60aa1b6064820152608490fd5b939192869150811061119057610bca600754613574565b8060075560405191610bdb836131f1565b81835286830193868552604084015280606084015260808301524260a08301523360c0830152600060e0830152600061010083015260006101208301526000610140830152604051610c2d878261320d565b600081526101608301528361018083015260016101a08301526000526000855260406000209181518355518051906001600160401b0382116105ec578190610c786001860154613392565b601f811161115d575b508790601f83116001146110ec576000926110e1575b50508160011b916000199060031b1c19161760018301555b6002820160408201518051906001600160401b0382116105ec578190610cd58454613392565b601f81116110b1575b508890601f831160011461104c57600092611041575b50508160011b916000199060031b1c19161790555b606081015160038301556080810151600483015560a0810151600583015560c08101516006830180546001600160a01b03199081166001600160a01b039384161790915560e08301516007808601805484169285169290921790915561010084015160088601805484169185169190911790556101208401516009860180549093169316929092178155610140830151909181101561026a57610dab91613791565b600a82016101608201518051906001600160401b0382116105ec578190610dd28454613392565b601f8111611011575b508890601f8311600114610fac57600092610fa1575b50508160011b916000199060031b1c19161790555b600b8201610180820151908151916001600160401b0383116105ec57600160401b83116105ec5787908254848455808510610f84575b5001906000528660002060005b838110610f72575050505090600c6101a0610e75930151151591019060ff801983541691151516179055565b60005b8151811015610eff5780610e8e60019284613599565b516000526004855260066040600020018260ff19825416179055600754610eb58285613599565b5160005260048652806007604060002001553390610ed38386613599565b517fe38405149811ec28641602f1965536956061a4c744bff36c72170e8bec04b9d7600080a401610e78565b507faf6ffb6277511513e7d579327cc1fc57f0266df2fb11a60b13487b8c9cd2c3886105b2600754938493847f751c8b103923dbfd5ec268f9c2d3f884f7270ee83c4cc3a8f08866204f8443c960405189815280610f6133958c830190613284565b0390a3604051918291339083613a32565b82518282015591880191600101610e49565b610f9b9084600052858460002091820191016138a7565b89610e3c565b015190508880610df1565b60008581528a81209350601f198516905b8b828210610ffb575050908460019594939210610fe2575b505050811b019055610e06565b015160001960f88460031b161c19169055888080610fd5565b6001859682939686015181550195019301610fbd565b61103b90856000528a600020601f850160051c8101918c86106106a357601f0160051c01906138a7565b89610ddb565b015190508880610cf4565b60008581528a81209350601f198516905b8b82821061109b575050908460019594939210611082575b505050811b019055610d09565b015160001960f88460031b161c19169055888080611075565b600185968293968601518155019501930161105d565b6110db90856000528a600020601f850160051c8101918c86106106a357601f0160051c01906138a7565b89610cde565b015190508780610c97565b92506001850160005287600020906000935b89601f198516861061114457506001945083601f1981161061112b575b505050811b016001830155610caf565b015160001960f88460031b161c1916905587808061111b565b82820151845594850194600190930192909101906110fe565b61118a906001870160005289600020601f850160051c8101918b86106106a357601f0160051c01906138a7565b88610c81565b60405162461bcd60e51b815260048101869052603560248201527f546f74616c207175616e74697479206d757374206265203e3d2073756d206f6660448201527420726571756573746564207175616e74697469657360581b6064820152608490fd5b60405162461bcd60e51b815260206004820152602560248201527f546f74616c207175616e74697479206d75737420626520677265617465722074604482015264068616e20360dc1b6064820152608490fd5b60405162461bcd60e51b815260206004820152602360248201527f4d75737420617070726f7665206174206c65617374206f6e652071756f74617460448201526234b7b760e91b6064820152608490fd5b34610280576040366003190112610280576004356112b36132ce565b3360005260036020526112cd60ff604060002054166138be565b8160005260006020526112e660406000205415156135ad565b60008281526020819052604090206008015461130c906001600160a01b03163314613918565b81600052600060205260ff60096040600020015460a01c16600781101561026a577fe3ea93cf6348155aedd9f5e3a1d8f1fd886a956f1401763612b9b694b3363e869161135d600560209314613975565b60008481528083526040808220600990810180546001600160a01b0319166001600160a01b0395909516948517905586835282855291819020909101805460ff60a01b1916600360a11b17905551908152a2005b34610280576040366003190112610280576004356113cd6132ce565b3360005260016020526113e760ff604060002054166137b5565b81600052600060205261140060406000205415156135ad565b8160005260006020523360018060a01b03600660406000200154160361155b5781600052600060205260ff60096040600020015460a01c16600781101561026a5761150c576001600160a01b031660008181526002602052604090205460ff16156114c757600082815260208181526040918290206007810180546001600160a01b03191685179055600901805460ff60a01b1916600160a01b17905590519182527f01b0f0e8876adb51c001ea8baae2aa3b6bdf8b3c42811817358cef1d56c0af0091a2005b60405162461bcd60e51b815260206004820152601860248201527f496e76616c696420737570706c696572206164647265737300000000000000006044820152606490fd5b60405162461bcd60e51b815260206004820152602160248201527f50726f64756374206d75737420626520696e20437265617465642073746174756044820152607360f81b6064820152608490fd5b60405162461bcd60e51b815260206004820152602860248201527f596f7520617265206e6f74207468652070726f6475636572206f662074686973604482015267081c1c9bd91d58dd60c21b6064820152608490fd5b346102805760203660031901126102805760043560005260006020526040600020604051906115df826131f1565b80548252604051906115ff826115f881600185016133cc565b038361320d565b60208301918252604051926116228461161b81600286016133cc565b038561320d565b6040810193845260038201546060820190815260048301546080830152600583015460a080840191825260068501546001600160a01b0390811660c08601908152600780880154831660e0880190815260088901548416610100890190815260098a01549485166101208a0190815297999698969761014088019790969195929493909290911c60ff169081101561026a57865260ff600c604051986116d68a6116cf81600a85016133cc565b038b61320d565b6101608401998a526116ea600b82016135f2565b61018085015201541615156101a082015251985199519751965190519151925193519451956001600160a01b0395861695948516949384169390921691600787101561026a5751976040519a8b9a8b5260208b0161016090526101608b01611751916132e4565b8a810360408c0152611762916132e4565b9660608a0152608089015260a088015260c087015260e0860152610100850152610120840161179091613385565b8281036101408401526101f4916132e4565b34610280576040366003190112610280576117bb6132b8565b6001600160a01b0316600090815260056020526040902080546024359190821015610280576020916117ec91613514565b90549060031b1c604051908152f35b34610280576020366003190112610280576118146132b8565b33600052600860205261182e60ff6040600020541661363f565b6001600160a01b03166000818152600360205260408120805460ff191660011790557f38fdd8eb5b0a95606a3c195a848b5d3fb08512d7b4160f0abfb19aa832bbed5f9080a2005b34610280576020366003190112610280576001600160a01b036118976132b8565b1660005260056020526101f46118b060406000206135f2565b604051918291602083526020830190613284565b34610280576020366003190112610280576001600160a01b036118e56132b8565b166000526003602052602060ff604060002054166040519015158152f35b346102805760403660031901126102805760043560243581600052600060205261193360406000205415156135ad565b81600052600060205260ff60096040600020015460a01c16600781101561026a5760056119609114613975565b81600052600060205261197d8160046040600020015410156139d9565b8015611a205781600052600060205261199f6004604060002001918254613a25565b905560008181526020819052604090206009810180546001600160a01b0319163317905560040154156119f9575b7fe3ea93cf6348155aedd9f5e3a1d8f1fd886a956f1401763612b9b694b3363e866020604051338152a2005b6000818152602081905260409020600901805460ff60a01b1916600360a11b1790556119cd565b60405162461bcd60e51b815260206004820152601f60248201527f5175616e74697479206d7573742062652067726561746572207468616e2030006044820152606490fd5b34610280576000366003190112610280576020600654604051908152f35b3461028057604036600319011261028057600435611a9f6132ce565b336000526002602052611ab960ff604060002054166136da565b816000526000602052611ad260406000205415156135ad565b600082815260208190526040902060070154611af8906001600160a01b03163314613734565b81600052600060205260ff60096040600020015460a01c16600781101561026a57600203611be7576001600160a01b031660008181526003602052604090205460ff1615611ba257600082815260208181526040918290206008810180546001600160a01b03191685179055600901805460ff60a01b1916600360a01b17905590519182527f91167d82f762420abffc44418508e57c6772d5991839c46a46e3ecdace56f59791a2005b60405162461bcd60e51b815260206004820152601860248201527f496e76616c69642072657461696c6572206164647265737300000000000000006044820152606490fd5b60405162461bcd60e51b815260206004820152602a60248201527f50726f64756374206d75737420626520726563656976656420627920737570706044820152691b1a595c88199a5c9cdd60b21b6064820152608490fd5b3461028057602036600319011261028057600435336000526003602052611c6d60ff604060002054166138be565b806000526000602052611c8660406000205415156135ad565b600081815260208190526040902060080154611cac906001600160a01b03163314613918565b80600052600060205260ff60096040600020015460a01c16600781101561026a57600303611d1c576000818152602081905260408120600901805460ff60a01b1916600160a21b1790557f21c4402dd4a1ebff6d7fb038f59a4fbdb8f8b1a618e6205e815677045d686d889080a2005b60405162461bcd60e51b815260206004820152602660248201527f50726f64756374206d7573742062652073656e7420746f2072657461696c657260448201526508199a5c9cdd60d21b6064820152608490fd5b34610280576020366003190112610280576004356000526000602052604060002080546040519182806001830190611da7916133cc565b03611db2908461320d565b6040519081611dc481600284016133cc565b03611dcf908361320d565b60038101546004820154600583015460068401546007850154600886015460098701546040519790956001600160a01b03928316959383169490921692919088611e1c81600a84016133cc565b03611e27908a61320d565b600c015460ff16986040519b8c9b8c5260208c016101a090526101a08c01611e4e916132e4565b8b810360408d0152611e5f916132e4565b9660608b015260808a015260a089015260c088015260e0870152610100860152600160a01b60019003811661012086015261014085019060a01c60ff1690611ea691613385565b838103610160850152611eb8916132e4565b9015156101808301520390f35b3461028057602036600319011261028057611ede6132b8565b336000526008602052611ef860ff6040600020541661363f565b6001600160a01b0316611f0c811515613696565b8060005260086020526040600020600160ff198254161790557f994a936646fe87ffe4f1e469d3d6aa417d6b855598397f323de5b449f765f0c3600080a2005b3461028057611f5a366134c3565b91908215612310578151156122cb57611f74600654613574565b908160065560405190611f86826131d5565b828252336020808401918252604080850187815260608601948552608086018981524260a08801908152600060c0890181815260e08a018281529a82526004909652939093209651875593516001870180546001600160a01b0319166001600160a01b0392909216919091179055518051929491939260028701916001600160401b0382116105ec57819061201b8454613392565b601f8111612299575b50602090601f831160011461223457600092612229575b50508160011b916000199060031b1c19161790555b51805160038601916001600160401b0382116105ec5781906120728454613392565b601f81116121f7575b50602090601f831160011461219257600092612187575b50508160011b916000199060031b1c19161790555b51600484015551600583015560068201905192600484101561026a5760079160009460ff80198354169116179055519101553381526005602052604081209060065491805491600160401b8310156121735760207fe7615ede87763582d8f9f8808ac87ec98f892b6d243f1463c721298038c6664187878761212f8888600182018155613514565b819291549060031b91821b91600019901b1916179055600654928391612160604051916040835260408301906132e4565b93868201528033940390a3604051908152f35b634e487b7160e01b81526041600452602490fd5b015190508a80612092565b60008581528281209350601f198516905b8181106121df57509084600195949392106121c6575b505050811b0190556120a7565b015160001960f88460031b161c191690558a80806121b9565b929360206001819287860151815501950193016121a3565b61222390856000526020600020601f850160051c810191602086106106a357601f0160051c01906138a7565b8b61207b565b015190508b8061203b565b60008581528281209350601f198516905b8181106122815750908460019594939210612268575b505050811b019055612050565b015160001960f88460031b161c191690558b808061225b565b92936020600181928786015181550195019301612245565b6122c590856000526020600020601f850160051c810191602086106106a357601f0160051c01906138a7565b8c612024565b60405162461bcd60e51b815260206004820152601c60248201527f50726f64756374206e616d652063616e6e6f7420626520656d707479000000006044820152606490fd5b60405162461bcd60e51b815260206004820152602960248201527f526571756573746564207175616e74697479206d75737420626520677265617460448201526806572207468616e20360bc1b6064820152608490fd5b34610280576040366003190112610280576004356024356001600160401b0381116102805761239a903690600401613466565b3360005260036020526123b460ff604060002054166138be565b8160005260006020526123cd60406000205415156135ad565b6000828152602081905260409020600801546123f3906001600160a01b03163314613918565b81600052600060205260ff60096040600020015460a01c16600781101561026a5760056124209114613975565b600091825b825184101561254b576124388484613599565b51806000526004602052612452604060002054151561380f565b80600052600460205260ff60066040600020015416600481101561026a576001036125065780600052600460205282600760406000200154036124b5576001916124ad916000526004602052600460406000200154906139cc565b930192612425565b60405162461bcd60e51b8152602060048201526024808201527f51756f746174696f6e206e6f74206c696e6b656420746f20746869732070726f604482015263191d58dd60e21b6064820152608490fd5b60405162461bcd60e51b815260206004820152601a60248201527f51756f746174696f6e206d75737420626520617070726f7665640000000000006044820152606490fd5b612569839183600052600060205260046040600020015410156139d9565b60005b8151811015612605578061258260019284613599565b51600081815260046020818152604080842060068101805460ff191660031790558301548985529184905290922001805490916125be91613a25565b905580600052600460205284838060a01b03846040600020015416917f69c8c9ccba86b5a238cbc9e691e0835348f6abc27c4e0602e889d05dc816da2c600080a40161256c565b6000838152602052005b34610280576020366003190112610280576004356000526004602052604060002080546101f460018060a01b036001840154169260405190612658826115f881600285016133cc565b60405161266c81610ae781600386016133cc565b6004820154600583015491600760ff6006860154169401549460405198899889613325565b34610280576040366003190112610280576004356024356001600160401b038111610280576126c490369060040161322e565b903360005260026020526126df60ff604060002054166136da565b8060005260006020526126f860406000205415156135ad565b60008181526020819052604090206007015461271e906001600160a01b03163314613734565b80600052600060205260ff60096040600020015460a01c16600781101561026a5760021480156128f7575b156128b957806000526000602052600a604060002001918051926001600160401b0384116105ec5761277b8154613392565b601f8111612887575b50602093601f81116001146127fd5790816127ed93927f45eb2a65b0af2ef9e3cf2d800ea946cf7f32cc5b7d57c129e52f2a217fe5212395966000916127f2575b508160011b916000199060031b1c19161790555b6040519182916020835260208301906132e4565b0390a2005b9050830151876127c5565b601f19811682600052856000209060005b81811061286f5750916001917f45eb2a65b0af2ef9e3cf2d800ea946cf7f32cc5b7d57c129e52f2a217fe521239697826127ed97969510612856575b5050811b0190556127d9565b85015160001960f88460031b161c19169055878061284a565b8588015183556020978801976001909301920161280e565b6128b390826000526020600020601f870160051c810191602088106106a357601f0160051c01906138a7565b84612784565b60405162461bcd60e51b8152602060048201526016602482015275496e76616c69642070726f647563742073746174757360501b6044820152606490fd5b5080600052600060205260ff60096040600020015460a01c16600781101561026a57600314612749565b346102805760203660031901126102805760043533600052600160205261294f60ff604060002054166137b5565b806000526004602052612968604060002054151561380f565b80600052600460205260ff60066040600020015416600481101561026a57612990901561385b565b8060005260046020526006604060002001600260ff1982541617905533907f096381c6a39294c93c86842360d584ff7238ffb75adc43566e588b5320fd0443600080a3005b34610280576020366003190112610280576129ee6132b8565b336000526008602052612a0860ff6040600020541661363f565b6001600160a01b031660008181526001602081905260408220805460ff191690911790557f523dd2bfefd64323042504bb6d7886a60e66bef86e7379de81fc45837853c3fa9080a2005b3461028057602036600319011261028057600435336000526002602052612a8060ff604060002054166136da565b806000526000602052612a9960406000205415156135ad565b600081815260208190526040902060070154612abf906001600160a01b03163314613734565b80600052600060205260ff60096040600020015460a01c16600781101561026a57600103612b2f576000818152602081905260408120600901805460ff60a01b1916600160a11b1790557fc7428d66281c5b2ce8456a9d4979a4dd51f4a2f95a6e8124350d927d924f715f9080a2005b60405162461bcd60e51b815260206004820152602660248201527f50726f64756374206d7573742062652073656e7420746f20737570706c69657260448201526508199a5c9cdd60d21b6064820152608490fd5b34610280576020366003190112610280576001600160a01b03612ba46132b8565b166000526001602052602060ff604060002054166040519015158152f35b3461028057602036600319011261028057612bdb6132b8565b336000526008602052612bf560ff6040600020541661363f565b6001600160a01b0316612c09811515613696565b338114612c4d57806000526008602052604060002060ff1981541690557f58619076adf5bb0943d100ef88d52d7c3fd691b19d3a9071b555b651fbf418da600080a2005b60405162461bcd60e51b815260206004820152601860248201527f4f776e65722063616e6e6f742072656d6f76652073656c6600000000000000006044820152606490fd5b34610280576020366003190112610280576001600160a01b03612cb36132b8565b166000526002602052602060ff604060002054166040519015158152f35b34610280576020366003190112610280576004356000526000602052604060002080546040519182806001830190612d08916133cc565b03612d13908461320d565b6040519081612d2581600284016133cc565b03612d30908361320d565b6003810154600482015460058301546006840154600785015460088601546009870154604051969590946001600160a01b039283169493831693909216919087612d7d81600a8c016133cc565b03612d88908961320d565b612d94600b8a016135f2565b98600c015460ff16996040519c8d9c8d5260208d016101c090526101c08d01612dbc916132e4565b8c810360408e0152612dcd916132e4565b9660608c015260808b015260a08a015260c089015260e0880152610100870152600160a01b60019003811661012087015261014086019060a01c60ff1690612e1491613385565b848103610160860152612e26916132e4565b838103610180850152612e3891613284565b9015156101a08301520390f35b3461028057602036600319011261028057600435806000526000602052612e7260406000205415156135ad565b6000526000602052602060ff60096040600020015460a01c16612e986040518092613385565bf35b3461028057602036600319011261028057600435806000526000602052612ec760406000205415156135ad565b60005260006020526101f46118b0600b6040600020016135f2565b346102805760203660031901126102805760043560005260046020526040600020604051612f0f816131d5565b8154815260018201546001600160a01b03166020820190815260405192909190612f408461161b81600285016133cc565b6040820193845260405190612f5c826115f881600385016133cc565b6060830191825260048101549060808401918252600581015460a0850190815260ff60068301541660c0860192600482101561026a579083526007015460e0860190815294519551965193519251905191516001600160a01b039097169692600484101561026a576101f495519460405198899889613325565b34610280576020366003190112610280576001600160a01b03612ff76132b8565b166000526008602052602060ff604060002054166040519015158152f35b34610280576020366003190112610280576004356001600160401b0381116102805761304590369060040161322e565b6007549061305282613542565b9161305c81613542565b9160009160015b818111156130eb5750505061307781613542565b9161308182613542565b9360005b8381106130b6576130a8856101f488604051938493604085526040850190613284565b908382036020850152613284565b806130c360019284613599565b516130ce8288613599565b526130d98185613599565b516130e48289613599565b5201613085565b8060005260006020526040600020541515806131ab575b80613191575b80613159575b613121575b61311c90613574565b613063565b92613151818561313461311c948a613599565b5285600052600060205260046040600020015461025c8289613599565b939050613113565b50806000526000602052610ae761317d6001604060002001604051928380926133cc565b60208151910120835160208501201461310e565b508060005260006020526004604060002001541515613108565b5080600052600060205260ff60096040600020015460a01c16600781101561026a57600514613102565b61010081019081106001600160401b038211176105ec57604052565b6101c081019081106001600160401b038211176105ec57604052565b90601f801991011681019081106001600160401b038211176105ec57604052565b81601f82011215610280578035906001600160401b0382116105ec5760405192613262601f8401601f19166020018561320d565b8284526020838301011161028057816000926020809301838601378301015290565b906020808351928381520192019060005b8181106132a25750505090565b8251845260209384019390920191600101613295565b600435906001600160a01b038216820361028057565b602435906001600160a01b038216820361028057565b919082519283825260005b848110613310575050826000602080949584010152601f8019910116010190565b806020809284010151828286010152016132ef565b94989796959391926133659361335792875260018060a01b0316602087015261010060408701526101008601906132e4565b9084820360608601526132e4565b95608083015260a0820152600482101561026a5760e09160c08201520152565b90600782101561026a5752565b90600182811c921680156133c2575b60208310146133ac57565b634e487b7160e01b600052602260045260246000fd5b91607f16916133a1565b600092918154916133dc83613392565b808352926001811690811561343257506001146133f857505050565b60009081526020812093945091925b838310613418575060209250010190565b600181602092949394548385870101520191019190613407565b915050602093945060ff929192191683830152151560051b010190565b6001600160401b0381116105ec5760051b60200190565b9080601f8301121561028057813561347d8161344f565b9261348b604051948561320d565b81845260208085019260051b82010192831161028057602001905b8282106134b35750505090565b81358152602091820191016134a6565b906060600319830112610280576004356001600160401b03811161028057826134ee9160040161322e565b91602435906001600160401b0382116102805761350d9160040161322e565b9060443590565b805482101561352c5760005260206000200190600090565b634e487b7160e01b600052603260045260246000fd5b9061354c8261344f565b613559604051918261320d565b828152809261356a601f199161344f565b0190602036910137565b60001981146135835760010190565b634e487b7160e01b600052601160045260246000fd5b805182101561352c5760209160051b010190565b156135b457565b60405162461bcd60e51b8152602060048201526016602482015275141c9bd91d58dd08191bd95cc81b9bdd08195e1a5cdd60521b6044820152606490fd5b906040519182815491828252602082019060005260206000209260005b8181106136265750506136249250038361320d565b565b845483526001948501948794506020909301920161360f565b1561364657565b60405162461bcd60e51b815260206004820152602260248201527f4f6e6c79206f776e65722063616e20706572666f726d2074686973206163746960448201526137b760f11b6064820152608490fd5b1561369d57565b60405162461bcd60e51b8152602060048201526015602482015274496e76616c6964206f776e6572206164647265737360581b6044820152606490fd5b156136e157565b60405162461bcd60e51b815260206004820152602560248201527f4f6e6c7920737570706c6965722063616e20706572666f726d2074686973206160448201526431ba34b7b760d91b6064820152608490fd5b1561373b57565b60405162461bcd60e51b815260206004820152602860248201527f596f7520617265206e6f742074686520737570706c696572206f662074686973604482015267081c1c9bd91d58dd60c21b6064820152608490fd5b90600781101561026a57815460ff60a01b191660a09190911b60ff60a01b16179055565b156137bc57565b60405162461bcd60e51b815260206004820152602560248201527f4f6e6c792070726f64756365722063616e20706572666f726d2074686973206160448201526431ba34b7b760d91b6064820152608490fd5b1561381657565b60405162461bcd60e51b815260206004820152601860248201527f51756f746174696f6e20646f6573206e6f7420657869737400000000000000006044820152606490fd5b1561386257565b60405162461bcd60e51b815260206004820152601960248201527f51756f746174696f6e206d7573742062652070656e64696e67000000000000006044820152606490fd5b8181106138b2575050565b600081556001016138a7565b156138c557565b60405162461bcd60e51b815260206004820152602560248201527f4f6e6c792072657461696c65722063616e20706572666f726d2074686973206160448201526431ba34b7b760d91b6064820152608490fd5b1561391f57565b60405162461bcd60e51b815260206004820152602860248201527f596f7520617265206e6f74207468652072657461696c6572206f662074686973604482015267081c1c9bd91d58dd60c21b6064820152608490fd5b1561397c57565b60405162461bcd60e51b815260206004820152602260248201527f50726f64756374206d75737420626520617661696c61626c6520666f722073616044820152616c6560f01b6064820152608490fd5b9190820180921161358357565b156139e057565b60405162461bcd60e51b815260206004820152601f60248201527f496e73756666696369656e7420617661696c61626c65207175616e74697479006044820152606490fd5b9190820391821161358357565b90613a4a6020919493946040845260408401906132e4565b6001600160a01b0390941691015256fea264697066735822122055b3ca7b9fe4baeef696eb20b3a7e6f58eed9b13c77da7cfd397be592c0805f564736f6c634300081c0033",
  "linkReferences": {},
  "deployedLinkReferences": {},
  "uiAddresses": {
    "owner": "0xf39Fd6e51aad88F6F4ce6aB8827279cffFb92266",
    "producers": [
      "0x70997970C51812dc3A010C7d01b50e0d17dc79C8",
      "0x9965507D1a55bcC2695C58ba16FB37d819B0A4dc",
      "0xa0Ee7A142d267C1f36714E4a8F75612F20a79720"
    ],
    "suppliers": [
      "0x3C44CdDdB6a900fa2b585dd299e03d12FA4293BC",
      "0x976EA74026E726554dB657fA54763abd0C3a0aa9",
      "0xBcd4042DE499D14e55001CcbB24a551F3b954096"
    ],
    "retailers": [
      "0x90F79bf6EB2c4f870365E785982E1f101E93b906",
      "0x14dC79964da2C08b23698B3D3cc7Ca32193d9955",
      "0x71bE63f3384f5fb98995898A86B02Fb2426c5788"
    ],
    "consumers": [
      "0x15d34AAf54267DB7D7c367839AAf71A00a2C6A65",
      "0x23618e81E3f5cdF7f54C3d65f7FBc0aBf5B21E8f",
      "0xFABB0ac9d68B0B445fB7357272Ff202C5651694a"
    ],
    "extra": [
      "0x1CBd3b2770909D4e10f157cABC84C7264073C9Ec",
      "0xdF3e18d64BC6A983f673Ab319CCaE4f1a57C7097",
      "0xcd3B766CCDd6AE721141F452C550Ca635964ce71",
      "0x2546BcD3c84621e976D8185a91A922aE77ECEc30",
      "0xbDA5747bFD65F08deb54cb465eB87D40e51B197E",
      "0xdD2FD4581271e230360230F9337D5c0430Bf44C0",
      "0x8626f6940E2eb28930eFb4CeF49B2d1F2C9C1199"
    ],
    "metamask": [
      "0x7D0A9C42B9953A1Adc0A8a15a6a66bB489994E57",
      "0x44DA5566ef04234363B4882d856D590ab435096e",
      "0x933d4350BCA858e6De702A929878a413352885d8",
      "0x2fa965d296F182848588F9A3Ed97AF2E9fdF2d76",
      "0xB6Ce9Af39c7CA87F179666C05204d72516649dfC",
      "0x5560e14d290bc0459cA186b647637238dDE2cdFb",
      "0x8567da95C79EfCD36f953478D4f3AdEC117ae179",
      "0x24dC4ef5604ee51c616c1a7F42906F44CF196afE",
      "0xE5A1385f95ACd5caD8192fb82F13F065aeBA86Cc",
      "0xd51c949838F9e35851b5C9be3f6309101B0687C2",
      "0x984E3ea2679d8Febc93D0C885712158deBcef02e",
      "0x171c52193664A2c624c5551C442A8bbde2D3a93e",
      "0xC693c588981179b5e3F951e12C38E74EA6082d1c",
      "0x34E817073401Aaa0f21215d769Cd9e3500B2e69e",
      "0x423536D127f738b31999B2259d1FF842C2d47080"
    ],
    "metamaskOwners": [
      "0x7D0A9C42B9953A1Adc0A8a15a6a66bB489994E57"
    ],
    "metamaskProducers": [
      "0x44DA5566ef04234363B4882d856D590ab435096e",
      "0x933d4350BCA858e6De702A929878a413352885d8"
    ],
    "metamaskSuppliers": [
      "0x2fa965d296F182848588F9A3Ed97AF2E9fdF2d76",
      "0xB6Ce9Af39c7CA87F179666C05204d72516649dfC"
    ],
    "metamaskRetailers": [
      "0x5560e14d290bc0459cA186b647637238dDE2cdFb",
      "0x8567da95C79EfCD36f953478D4f3AdEC117ae179"
    ],
    "metamaskConsumers": [
      "0x24dC4ef5604ee51c616c1a7F42906F44CF196afE",
      "0xE5A1385f95ACd5caD8192fb82F13F065aeBA86Cc",
      "0xd51c949838F9e35851b5C9be3f6309101B0687C2",
      "0x984E3ea2679d8Febc93D0C885712158deBcef02e",
      "0x171c52193664A2c624c5551C442A8bbde2D3a93e",
      "0xC693c588981179b5e3F951e12C38E74EA6082d1c",
      "0x34E817073401Aaa0f21215d769Cd9e3500B2e69e",
      "0x423536D127f738b31999B2259d1FF842C2d47080"
    ]
  }
}