{
  "_format": "hh-sol-artifact-1",
  "contractName": "SupplyChain",
  "sourceName": "contracts/SupplyChain.sol",
  "abi": [
    {
      "inputs": [],
      "stateMutability": "nonpayable",
      "type": "constructor"
    },
    {
      "anonymous": false,
      "inputs": [
        {
          "indexed": true,
          "internalType": "address",
          "name": "owner",
          "type": "address"
        }
      ],
      "name": "OwnerAdded",
      "type": "event"
    },
    {
      "anonymous": false,
      "inputs": [
        {
          "indexed": true,
          "internalType": "address",
          "name": "owner",
          "type": "address"
        }
      ],
      "name": "OwnerRemoved",
      "type": "event"
    },
    {
      "anonymous": false,
      "inputs": [
        {
          "indexed": true,
          "internalType": "address",
          "name": "producer",
          "type": "address"
        }
      ],
      "name": "ProducerRegistered",
      "type": "event"
    },
    {
      "anonymous": false,
      "inputs": [
        {
          "indexed": true,
          "internalType": "uint256",
          "name": "productId",
          "type": "uint256"
        }
      ],
      "name": "ProductAddedToStore",
      "type": "event"
    },
    {
      "anonymous": false,
      "inputs": [
        {
          "indexed": true,
          "internalType": "uint256",
          "name": "productId",
          "type": "uint256"
        },
        {
          "indexed": false,
          "internalType": "string",
          "name": "name",
          "type": "string"
        },
        {
          "indexed": false,
          "internalType": "address",
          "name": "producer",
          "type": "address"
        }
      ],
      "name": "ProductCreated",
      "type": "event"
    },
    {
      "anonymous": false,
      "inputs": [
        {
          "indexed": true,
          "internalType": "uint256",
          "name": "productId",
          "type": "uint256"
        }
      ],
      "name": "ProductReceivedByRetailer",
      "type": "event"
    },
    {
      "anonymous": false,
      "inputs": [
        {
          "indexed": true,
          "internalType": "uint256",
          "name": "productId",
          "type": "uint256"
        }
      ],
      "name": "ProductReceivedBySupplier",
      "type": "event"
    },
    {
      "anonymous": false,
      "inputs": [
        {
          "indexed": true,
          "internalType": "uint256",
          "name": "productId",
          "type": "uint256"
        },
        {
          "indexed": false,
          "internalType": "address",
          "name": "retailer",
          "type": "address"
        }
      ],
      "name": "ProductSentToRetailer",
      "type": "event"
    },
    {
      "anonymous": false,
      "inputs": [
        {
          "indexed": true,
          "internalType": "uint256",
          "name": "productId",
          "type": "uint256"
        },
        {
          "indexed": false,
          "internalType": "address",
          "name": "supplier",
          "type": "address"
        }
      ],
      "name": "ProductSentToSupplier",
      "type": "event"
    },
    {
      "anonymous": false,
      "inputs": [
        {
          "indexed": true,
          "internalType": "uint256",
          "name": "productId",
          "type": "uint256"
        },
        {
          "indexed": false,
          "internalType": "address",
          "name": "consumer",
          "type": "address"
        }
      ],
      "name": "ProductSoldToConsumer",
      "type": "event"
    },
    {
      "anonymous": false,
      "inputs": [
        {
          "indexed": true,
          "internalType": "uint256",
          "name": "productId",
          "type": "uint256"
        },
        {
          "indexed": true,
          "internalType": "address",
          "name": "consumer",
          "type": "address"
        }
      ],
      "name": "PurchaseAcknowledged",
      "type": "event"
    },
    {
      "anonymous": false,
      "inputs": [
        {
          "indexed": true,
          "internalType": "uint256",
          "name": "quotationId",
          "type": "uint256"
        },
        {
          "indexed": true,
          "internalType": "uint256",
          "name": "productId",
          "type": "uint256"
        },
        {
          "indexed": true,
          "internalType": "address",
          "name": "producer",
          "type": "address"
        }
      ],
      "name": "QuotationApproved",
      "type": "event"
    },
    {
      "anonymous": false,
      "inputs": [
        {
          "indexed": true,
          "internalType": "uint256",
          "name": "quotationId",
          "type": "uint256"
        },
        {
          "indexed": true,
          "internalType": "address",
          "name": "consumer",
          "type": "address"
        },
        {
          "indexed": false,
          "internalType": "string",
          "name": "productName",
          "type": "string"
        },
        {
          "indexed": false,
          "internalType": "uint256",
          "name": "requestedQuantity",
          "type": "uint256"
        }
      ],
      "name": "QuotationCreated",
      "type": "event"
    },
    {
      "anonymous": false,
      "inputs": [
        {
          "indexed": true,
          "internalType": "uint256",
          "name": "quotationId",
          "type": "uint256"
        },
        {
          "indexed": true,
          "internalType": "uint256",
          "name": "productId",
          "type": "uint256"
        },
        {
          "indexed": true,
          "internalType": "address",
          "name": "consumer",
          "type": "address"
        }
      ],
      "name": "QuotationFulfilled",
      "type": "event"
    },
    {
      "anonymous": false,
      "inputs": [
        {
          "indexed": true,
          "internalType": "uint256",
          "name": "quotationId",
          "type": "uint256"
        },
        {
          "indexed": true,
          "internalType": "address",
          "name": "producer",
          "type": "address"
        }
      ],
      "name": "QuotationRejected",
      "type": "event"
    },
    {
      "anonymous": false,
      "inputs": [
        {
          "indexed": false,
          "internalType": "uint256[]",
          "name": "quotationIds",
          "type": "uint256[]"
        },
        {
          "indexed": true,
          "internalType": "uint256",
          "name": "productId",
          "type": "uint256"
        },
        {
          "indexed": true,
          "internalType": "address",
          "name": "producer",
          "type": "address"
        }
      ],
      "name": "QuotationsBatchApproved",
      "type": "event"
    },
    {
      "anonymous": false,
      "inputs": [
        {
          "indexed": true,
          "internalType": "address",
          "name": "retailer",
          "type": "address"
        }
      ],
      "name": "RetailerRegistered",
      "type": "event"
    },
    {
      "anonymous": false,
      "inputs": [
        {
          "indexed": true,
          "internalType": "uint256",
          "name": "productId",
          "type": "uint256"
        },
        {
          "indexed": false,
          "internalType": "string",
          "name": "shippingInfo",
          "type": "string"
        }
      ],
      "name": "ShippingInfoUpdated",
      "type": "event"
    },
    {
      "anonymous": false,
      "inputs": [
        {
          "indexed": true,
          "internalType": "address",
          "name": "supplier",
          "type": "address"
        }
      ],
      "name": "SupplierRegistered",
      "type": "event"
    },
    {
      "inputs": [
        {
          "internalType": "uint256",
          "name": "_productId",
          "type": "uint256"
        }
      ],
      "name": "acknowledgePurchase",
      "outputs": [],
      "stateMutability": "nonpayable",
      "type": "function"
    },
    {
      "inputs": [
        {
          "internalType": "address",
          "name": "_newOwner",
          "type": "address"
        }
      ],
      "name": "addOwner",
      "outputs": [],
      "stateMutability": "nonpayable",
      "type": "function"
    },
    {
      "inputs": [
        {
          "internalType": "string",
          "name": "_name",
          "type": "string"
        },
        {
          "internalType": "string",
          "name": "_description",
          "type": "string"
        },
        {
          "internalType": "uint256",
          "name": "_quantity",
          "type": "uint256"
        }
      ],
      "name": "addProduct",
      "outputs": [
        {
          "internalType": "uint256",
          "name": "",
          "type": "uint256"
        }
      ],
      "stateMutability": "nonpayable",
      "type": "function"
    },
    {
      "inputs": [
        {
          "internalType": "uint256",
          "name": "_productId",
          "type": "uint256"
        }
      ],
      "name": "addToStore",
      "outputs": [],
      "stateMutability": "nonpayable",
      "type": "function"
    },
    {
      "inputs": [
        {
          "internalType": "uint256[]",
          "name": "_quotationIds",
          "type": "uint256[]"
        },
        {
          "internalType": "uint256",
          "name": "_totalQuantity",
          "type": "uint256"
        }
      ],
      "name": "approveQuotations",
      "outputs": [
        {
          "internalType": "uint256",
          "name": "",
          "type": "uint256"
        }
      ],
      "stateMutability": "nonpayable",
      "type": "function"
    },
    {
      "inputs": [
        {
          "internalType": "uint256",
          "name": "",
          "type": "uint256"
        },
        {
          "internalType": "address",
          "name": "",
          "type": "address"
        }
      ],
      "name": "consumerAcknowledgments",
      "outputs": [
        {
          "internalType": "bool",
          "name": "",
          "type": "bool"
        }
      ],
      "stateMutability": "view",
      "type": "function"
    },
    {
      "inputs": [
        {
          "internalType": "address",
          "name": "",
          "type": "address"
        },
        {
          "internalType": "uint256",
          "name": "",
          "type": "uint256"
        }
      ],
      "name": "consumerQuotations",
      "outputs": [
        {
          "internalType": "uint256",
          "name": "",
          "type": "uint256"
        }
      ],
      "stateMutability": "view",
      "type": "function"
    },
    {
      "inputs": [
        {
          "internalType": "string",
          "name": "_productName",
          "type": "string"
        },
        {
          "internalType": "string",
          "name": "_description",
          "type": "string"
        },
        {
          "internalType": "uint256",
          "name": "_requestedQuantity",
          "type": "uint256"
        }
      ],
      "name": "createQuotation",
      "outputs": [
        {
          "internalType": "uint256",
          "name": "",
          "type": "uint256"
        }
      ],
      "stateMutability": "nonpayable",
      "type": "function"
    },
    {
      "inputs": [
        {
          "internalType": "uint256",
          "name": "_productId",
          "type": "uint256"
        },
        {
          "internalType": "uint256[]",
          "name": "_quotationIds",
          "type": "uint256[]"
        }
      ],
      "name": "fulfillQuotations",
      "outputs": [],
      "stateMutability": "nonpayable",
      "type": "function"
    },
    {
      "inputs": [
        {
          "internalType": "string",
          "name": "_productName",
          "type": "string"
        }
      ],
      "name": "getAvailableProductsByName",
      "outputs": [
        {
          "internalType": "uint256[]",
          "name": "productIds",
          "type": "uint256[]"
        },
        {
          "internalType": "uint256[]",
          "name": "availableQuantities",
          "type": "uint256[]"
        }
      ],
      "stateMutability": "view",
      "type": "function"
    },
    {
      "inputs": [
        {
          "internalType": "uint256",
          "name": "_productId",
          "type": "uint256"
        },
        {
          "internalType": "address",
          "name": "_consumer",
          "type": "address"
        }
      ],
      "name": "getConsumerPurchaseQuantity",
      "outputs": [
        {
          "internalType": "uint256",
          "name": "",
          "type": "uint256"
        }
      ],
      "stateMutability": "view",
      "type": "function"
    },
    {
      "inputs": [
        {
          "internalType": "address",
          "name": "_consumer",
          "type": "address"
        }
      ],
      "name": "getConsumerQuotations",
      "outputs": [
        {
          "internalType": "uint256[]",
          "name": "",
          "type": "uint256[]"
        }
      ],
      "stateMutability": "view",
      "type": "function"
    },
    {
      "inputs": [],
      "name": "getPendingQuotations",
      "outputs": [
        {
          "internalType": "uint256[]",
          "name": "",
          "type": "uint256[]"
        }
      ],
      "stateMutability": "view",
      "type": "function"
    },
    {
      "inputs": [
        {
          "internalType": "uint256",
          "name": "_productId",
          "type": "uint256"
        }
      ],
      "name": "getProduct",
      "outputs": [
        {
          "internalType": "uint256",
          "name": "id",
          "type": "uint256"
        },
        {
          "internalType": "string",
          "name": "name",
          "type": "string"
        },
        {
          "internalType": "string",
          "name": "description",
          "type": "string"
        },
        {
          "internalType": "uint256",
          "name": "quantity",
          "type": "uint256"
        },
        {
          "internalType": "uint256",
          "name": "createdAt",
          "type": "uint256"
        },
        {
          "internalType": "address",
          "name": "producer",
          "type": "address"
        },
        {
          "internalType": "address",
          "name": "supplier",
          "type": "address"
        },
        {
          "internalType": "address",
          "name": "retailer",
          "type": "address"
        },
        {
          "internalType": "address",
          "name": "consumer",
          "type": "address"
        },
        {
          "internalType": "enum SupplyChain.ProductStatus",
          "name": "status",
          "type": "uint8"
        },
        {
          "internalType": "string",
          "name": "shippingInfo",
          "type": "string"
        }
      ],
      "stateMutability": "view",
      "type": "function"
    },
    {
      "inputs": [
        {
          "internalType": "uint256",
          "name": "_productId",
          "type": "uint256"
        }
      ],
      "name": "getProductExtended",
      "outputs": [
        {
          "internalType": "uint256",
          "name": "id",
          "type": "uint256"
        },
        {
          "internalType": "string",
          "name": "name",
          "type": "string"
        },
        {
          "internalType": "string",
          "name": "description",
          "type": "string"
        },
        {
          "internalType": "uint256",
          "name": "totalQuantity",
          "type": "uint256"
        },
        {
          "internalType": "uint256",
          "name": "availableQuantity",
          "type": "uint256"
        },
        {
          "internalType": "uint256",
          "name": "createdAt",
          "type": "uint256"
        },
        {
          "internalType": "address",
          "name": "producer",
          "type": "address"
        },
        {
          "internalType": "address",
          "name": "supplier",
          "type": "address"
        },
        {
          "internalType": "address",
          "name": "retailer",
          "type": "address"
        },
        {
          "internalType": "address",
          "name": "consumer",
          "type": "address"
        },
        {
          "internalType": "enum SupplyChain.ProductStatus",
          "name": "status",
          "type": "uint8"
        },
        {
          "internalType": "string",
          "name": "shippingInfo",
          "type": "string"
        },
        {
          "internalType": "uint256[]",
          "name": "quotationIds",
          "type": "uint256[]"
        },
        {
          "internalType": "bool",
          "name": "isFromQuotation",
          "type": "bool"
        }
      ],
      "stateMutability": "view",
      "type": "function"
    },
    {
      "inputs": [
        {
          "internalType": "uint256",
          "name": "_productId",
          "type": "uint256"
        }
      ],
      "name": "getProductQuotations",
      "outputs": [
        {
          "internalType": "uint256[]",
          "name": "",
          "type": "uint256[]"
        }
      ],
      "stateMutability": "view",
      "type": "function"
    },
    {
      "inputs": [
        {
          "internalType": "uint256",
          "name": "_productId",
          "type": "uint256"
        }
      ],
      "name": "getProductStatus",
      "outputs": [
        {
          "internalType": "enum SupplyChain.ProductStatus",
          "name": "",
          "type": "uint8"
        }
      ],
      "stateMutability": "view",
      "type": "function"
    },
    {
      "inputs": [
        {
          "internalType": "uint256",
          "name": "_quotationId",
          "type": "uint256"
        }
      ],
      "name": "getQuotation",
      "outputs": [
        {
          "internalType": "uint256",
          "name": "id",
          "type": "uint256"
        },
        {
          "internalType": "address",
          "name": "consumer",
          "type": "address"
        },
        {
          "internalType": "string",
          "name": "productName",
          "type": "string"
        },
        {
          "internalType": "string",
          "name": "description",
          "type": "string"
        },
        {
          "internalType": "uint256",
          "name": "requestedQuantity",
          "type": "uint256"
        },
        {
          "internalType": "uint256",
          "name": "createdAt",
          "type": "uint256"
        },
        {
          "internalType": "enum SupplyChain.QuotationStatus",
          "name": "status",
          "type": "uint8"
        },
        {
          "internalType": "uint256",
          "name": "productId",
          "type": "uint256"
        }
      ],
      "stateMutability": "view",
      "type": "function"
    },
    {
      "inputs": [
        {
          "internalType": "address",
          "name": "_retailer",
          "type": "address"
        }
      ],
      "name": "getRetailerStoreProducts",
      "outputs": [
        {
          "internalType": "uint256[]",
          "name": "productIds",
          "type": "uint256[]"
        },
        {
          "internalType": "string[]",
          "name": "names",
          "type": "string[]"
        },
        {
          "internalType": "string[]",
          "name": "descriptions",
          "type": "string[]"
        },
        {
          "internalType": "uint256[]",
          "name": "totalQuantities",
          "type": "uint256[]"
        },
        {
          "internalType": "uint256[]",
          "name": "availableQuantities",
          "type": "uint256[]"
        }
      ],
      "stateMutability": "view",
      "type": "function"
    },
    {
      "inputs": [
        {
          "internalType": "uint256",
          "name": "_productId",
          "type": "uint256"
        },
        {
          "internalType": "address",
          "name": "_consumer",
          "type": "address"
        }
      ],
      "name": "isPurchaseAcknowledged",
      "outputs": [
        {
          "internalType": "bool",
          "name": "",
          "type": "bool"
        }
      ],
      "stateMutability": "view",
      "type": "function"
    },
    {
      "inputs": [
        {
          "internalType": "address",
          "name": "",
          "type": "address"
        }
      ],
      "name": "owners",
      "outputs": [
        {
          "internalType": "bool",
          "name": "",
          "type": "bool"
        }
      ],
      "stateMutability": "view",
      "type": "function"
    },
    {
      "inputs": [
        {
          "internalType": "address",
          "name": "",
          "type": "address"
        }
      ],
      "name": "producers",
      "outputs": [
        {
          "internalType": "bool",
          "name": "",
          "type": "bool"
        }
      ],
      "stateMutability": "view",
      "type": "function"
    },
    {
      "inputs": [],
      "name": "productCount",
      "outputs": [
        {
          "internalType": "uint256",
          "name": "",
          "type": "uint256"
        }
      ],
      "stateMutability": "view",
      "type": "function"
    },
    {
      "inputs": [
        {
          "internalType": "uint256",
          "name": "",
          "type": "uint256"
        }
      ],
      "name": "products",
      "outputs": [
        {
          "internalType": "uint256",
          "name": "id",
          "type": "uint256"
        },
        {
          "internalType": "string",
          "name": "name",
          "type": "string"
        },
        {
          "internalType": "string",
          "name": "description",
          "type": "string"
        },
        {
          "internalType": "uint256",
          "name": "totalQuantity",
          "type": "uint256"
        },
        {
          "internalType": "uint256",
          "name": "availableQuantity",
          "type": "uint256"
        },
        {
          "internalType": "uint256",
          "name": "createdAt",
          "type": "uint256"
        },
        {
          "internalType": "address",
          "name": "producer",
          "type": "address"
        },
        {
          "internalType": "address",
          "name": "supplier",
          "type": "address"
        },
        {
          "internalType": "address",
          "name": "retailer",
          "type": "address"
        },
        {
          "internalType": "address",
          "name": "consumer",
          "type": "address"
        },
        {
          "internalType": "enum SupplyChain.ProductStatus",
          "name": "status",
          "type": "uint8"
        },
        {
          "internalType": "string",
          "name": "shippingInfo",
          "type": "string"
        },
        {
          "internalType": "bool",
          "name": "isFromQuotation",
          "type": "bool"
        }
      ],
      "stateMutability": "view",
      "type": "function"
    },
    {
      "inputs": [
        {
          "internalType": "uint256",
          "name": "_productId",
          "type": "uint256"
        },
        {
          "internalType": "uint256",
          "name": "_quantity",
          "type": "uint256"
        }
      ],
      "name": "purchaseFromSurplus",
      "outputs": [],
      "stateMutability": "nonpayable",
      "type": "function"
    },
    {
      "inputs": [],
      "name": "quotationCount",
      "outputs": [
        {
          "internalType": "uint256",
          "name": "",
          "type": "uint256"
        }
      ],
      "stateMutability": "view",
      "type": "function"
    },
    {
      "inputs": [
        {
          "internalType": "uint256",
          "name": "",
          "type": "uint256"
        }
      ],
      "name": "quotations",
      "outputs": [
        {
          "internalType": "uint256",
          "name": "id",
          "type": "uint256"
        },
        {
          "internalType": "address",
          "name": "consumer",
          "type": "address"
        },
        {
          "internalType": "string",
          "name": "productName",
          "type": "string"
        },
        {
          "internalType": "string",
          "name": "description",
          "type": "string"
        },
        {
          "internalType": "uint256",
          "name": "requestedQuantity",
          "type": "uint256"
        },
        {
          "internalType": "uint256",
          "name": "createdAt",
          "type": "uint256"
        },
        {
          "internalType": "enum SupplyChain.QuotationStatus",
          "name": "status",
          "type": "uint8"
        },
        {
          "internalType": "uint256",
          "name": "productId",
          "type": "uint256"
        }
      ],
      "stateMutability": "view",
      "type": "function"
    },
    {
      "inputs": [
        {
          "internalType": "uint256",
          "name": "_productId",
          "type": "uint256"
        }
      ],
      "name": "receiveProduct",
      "outputs": [],
      "stateMutability": "nonpayable",
      "type": "function"
    },
    {
      "inputs": [
        {
          "internalType": "uint256",
          "name": "_productId",
          "type": "uint256"
        }
      ],
      "name": "receiveProductFromSupplier",
      "outputs": [],
      "stateMutability": "nonpayable",
      "type": "function"
    },
    {
      "inputs": [
        {
          "internalType": "address",
          "name": "_producer",
          "type": "address"
        }
      ],
      "name": "registerProducer",
      "outputs": [],
      "stateMutability": "nonpayable",
      "type": "function"
    },
    {
      "inputs": [
        {
          "internalType": "address",
          "name": "_retailer",
          "type": "address"
        }
      ],
      "name": "registerRetailer",
      "outputs": [],
      "stateMutability": "nonpayable",
      "type": "function"
    },
    {
      "inputs": [
        {
          "internalType": "address",
          "name": "_supplier",
          "type": "address"
        }
      ],
      "name": "registerSupplier",
      "outputs": [],
      "stateMutability": "nonpayable",
      "type": "function"
    },
    {
      "inputs": [
        {
          "internalType": "uint256",
          "name": "_quotationId",
          "type": "uint256"
        }
      ],
      "name": "rejectQuotation",
      "outputs": [],
      "stateMutability": "nonpayable",
      "type": "function"
    },
    {
      "inputs": [
        {
          "internalType": "address",
          "name": "_ownerToRemove",
          "type": "address"
        }
      ],
      "name": "removeOwner",
      "outputs": [],
      "stateMutability": "nonpayable",
      "type": "function"
    },
    {
      "inputs": [
        {
          "internalType": "address",
          "name": "",
          "type": "address"
        }
      ],
      "name": "retailers",
      "outputs": [
        {
          "internalType": "bool",
          "name": "",
          "type": "bool"
        }
      ],
      "stateMutability": "view",
      "type": "function"
    },
    {
      "inputs": [
        {
          "internalType": "uint256",
          "name": "",
          "type": "uint256"
        },
        {
          "internalType": "address",
          "name": "",
          "type": "address"
        }
      ],
      "name": "salesRecords",
      "outputs": [
        {
          "internalType": "uint256",
          "name": "",
          "type": "uint256"
        }
      ],
      "stateMutability": "view",
      "type": "function"
    },
    {
      "inputs": [
        {
          "internalType": "uint256",
          "name": "_productId",
          "type": "uint256"
        },
        {
          "internalType": "address",
          "name": "_consumer",
          "type": "address"
        },
        {
          "internalType": "uint256",
          "name": "_quantity",
          "type": "uint256"
        }
      ],
      "name": "sellToConsumer",
      "outputs": [],
      "stateMutability": "nonpayable",
      "type": "function"
    },
    {
      "inputs": [
        {
          "internalType": "uint256",
          "name": "_productId",
          "type": "uint256"
        },
        {
          "internalType": "address",
          "name": "_consumer",
          "type": "address"
        }
      ],
      "name": "sellToConsumerLegacy",
      "outputs": [],
      "stateMutability": "nonpayable",
      "type": "function"
    },
    {
      "inputs": [
        {
          "internalType": "uint256",
          "name": "_productId",
          "type": "uint256"
        },
        {
          "internalType": "address",
          "name": "_retailer",
          "type": "address"
        }
      ],
      "name": "sendToRetailer",
      "outputs": [],
      "stateMutability": "nonpayable",
      "type": "function"
    },
    {
      "inputs": [
        {
          "internalType": "uint256",
          "name": "_productId",
          "type": "uint256"
        },
        {
          "internalType": "address",
          "name": "_supplier",
          "type": "address"
        }
      ],
      "name": "sendToSupplier",
      "outputs": [],
      "stateMutability": "nonpayable",
      "type": "function"
    },
    {
      "inputs": [
        {
          "internalType": "address",
          "name": "",
          "type": "address"
        }
      ],
      "name": "suppliers",
      "outputs": [
        {
          "internalType": "bool",
          "name": "",
          "type": "bool"
        }
      ],
      "stateMutability": "view",
      "type": "function"
    },
    {
      "inputs": [
        {
          "internalType": "uint256",
          "name": "_productId",
          "type": "uint256"
        },
        {
          "internalType": "string",
          "name": "_shippingInfo",
          "type": "string"
        }
      ],
      "name": "updateShippingInfo",
      "outputs": [],
      "stateMutability": "nonpayable",
      "type": "function"
    }
  ],
  "bytecode": "0x60808060405234602e573360005260086020526040600020600160ff1982541617905561427590816100348239f35b600080fdfe6080604052600436101561001257600080fd5b60003560e01c80624c9e211461370b578063022914a7146136cc5780630a23ba9c146135d85780630dea449b1461359057806313f6b1bb1461353b578063145a74b6146133c757806316dc15fe14613388578063173825d9146132b857806326324eff1461327957806329d78328146131485780632d2c34c314611dec57806335fdf23f1461230d5780633c530ace146130cb5780633db5a234146130175780634a75c28514612d875780634e89625814612d0557806355d234bd14612a1d5780635d3ac73314612775578063691787d61461235a57806369b28f181461230d5780637065cb4814612286578063749d017f146120ba5780637acc0b2014611f655780638120b97014611e3457806381a382c514611dec5780638345750b14611c305780638d291db714611c125780638e7b142f14611aad5780638ec441201461198b5780639a268f351461194c5780639d4368bc146118fe578063a83006da14611883578063a9167c021461182a578063b9db15b414611639578063ba12032814611439578063c8718c92146112e4578063ccbdf48e14610a15578063cf7f5e5f1461099a578063d992540914610865578063e0f6ef8714610847578063f28ea1c1146102d25763fe814b01146101e957600080fd5b346102cd5760003660031901126102cd5760065461020681613c91565b9060009060015b8181111561026457505061022081613c91565b9160005b82811061024557604051602080825281906102419082018761397a565b0390f35b8061025260019284613ce8565b5161025d8287613ce8565b5201610224565b80600052600460205260ff6006604060002001541660048110156102b75715610296575b61029190613cc3565b61020d565b916102af81846102a96102919488613ce8565b52613cc3565b929050610288565b634e487b7160e01b600052602160045260246000fd5b600080fd5b346102cd576102e036613c12565b91903360005260016020526102fc60ff60406000205416613f04565b610307600754613cc3565b92836007556020936040519061031d8683613903565b60008252600036813760405192610333846138e7565b818452868401948686526040850190815260608501908282526080860192835260a086019342855260c0870195338752600060e089015260006101008901526000610120890152600061014089015260405161038f8c82613903565b6000815261016089015261018088015260006101a088015260005260008952604060002096865188556001880190518051906001600160401b0382116106395781906103db8454613a88565b8d601f8211610816575b50508c908d601f84116001146107b057506000926107a5575b50508160011b916000199060031b1c19161790555b518051906001600160401b03821161063957819061043460028a0154613a88565b8b601f8211610771575b50508a90601f8311600114610705576000926106fa575b50508160011b916000199060031b1c19161760028701555b516003860155516004850155516005840155516006830180546001600160a01b03199081166001600160a01b039384161790915560e0830151600780860180548416928516929092179091556101008401516008860180548416918516919091179055610120840151600986018054909316931692909217815561014083015190918110156102b7576104ff91613ee0565b600a82016101608201518051906001600160401b0382116106395781906105268454613a88565b601f81116106bf575b508790601f831160011461065a5760009261064f575b50508160011b916000199060031b1c19161790555b600b8201610180820151908151916001600160401b03831161063957600160401b8311610639578690825484845580851061061c575b5001906000528560002060005b83811061060a57876105ff886105ca89600c6101a08b0151151591019060ff801983541691151516179055565b7faf6ffb6277511513e7d579327cc1fc57f0266df2fb11a60b13487b8c9cd2c388600754928392604051918291339083614217565b0390a2604051908152f35b8251828201559187019160010161059d565b610633908460005285846000209182019101613ff6565b88610590565b634e487b7160e01b600052604160045260246000fd5b015190508780610545565b60008581528981209350601f198516905b8a8282106106a9575050908460019594939210610690575b505050811b01905561055a565b015160001960f88460031b161c19169055878080610683565b600185968293968601518155019501930161066b565b6106ea908560005289600020601f850160051c8101918b86106106f0575b601f0160051c0190613ff6565b8861052f565b90915081906106dd565b015190508a80610455565b60028a0160009081528c81209350601f198516905b8d82821061075b575050908460019594939210610742575b505050811b01600287015561046d565b015160001960f88460031b161c191690558a8080610732565b600185968293968601518155019501930161071a565b61079e9160028c016000528160002090601f860160051c82019286106106f057601f0160051c0190613ff6565b8b8b61043e565b015190508c806103fe565b60008681528181209450601f198616915b8282106107fe5750509084600195949392106107e5575b505050811b019055610413565b015160001960f88460031b161c191690558c80806107d8565b806001869782949787015181550196019401906107c1565b61084091866000528160002090601f860160051c82019286106106f057601f0160051c0190613ff6565b8d8d6103e5565b346102cd5760003660031901126102cd576020600754604051908152f35b346102cd5760203660031901126102cd5760043533600052600360205261089360ff60406000205416614057565b8060005260006020526108ac6040600020541515613cfc565b6000818152602081905260409020600801546108d2906001600160a01b031633146140b1565b80600052600060205260ff60096040600020015460a01c1660078110156102b757600403610942576000818152602081905260408120600901805460ff60a01b1916600560a01b1790557fed910afbb4f908c3787081c1d1df242d8cab386852b5e4553acbe05cdaf182cd9080a2005b60405162461bcd60e51b815260206004820152602a60248201527f50726f64756374206d75737420626520726563656976656420627920726574616044820152691a5b195c88199a5c9cdd60b21b6064820152608490fd5b346102cd5760203660031901126102cd576109b36139ae565b3360005260086020526109cd60ff60406000205416613d8e565b6001600160a01b03166000818152600260205260408120805460ff191660011790557fbcffc870b52d3cb785b17c2c7426be70f9181ce49c43cc7b479ebcfac2d7a1c89080a2005b346102cd5760403660031901126102cd576004356001600160401b0381116102cd57610a45903690600401613bb5565b60243590336000526001602052610a6360ff60406000205416613f04565b80511561129357811561124057600090602091604051610a838482613903565b81815291604051610a948582613903565b8281529282905b8251821015610c0057610aae8284613ce8565b51938460005260048752610ac86040600020541515613f5e565b846000526004875260ff600660406000200154169060048210156102b757610af3610b0a9215613faa565b856000526004885260046040600020015490614165565b9482610b6a5750508260005260048552610b34610b3b600260406000200160405192838092613ac2565b0382613903565b92600052600485526001610b34610b5f600360406000200160405192838092613ac2565b915b01909392610a9b565b91909360005260048652610b34610b8e600260406000200160405192838092613ac2565b86815191012084518786012003610ba757600190610b61565b60405162461bcd60e51b815260048101879052602b60248201527f416c6c2071756f746174696f6e73206d75737420626520666f7220746865207360448201526a185b59481c1c9bd91d58dd60aa1b6064820152608490fd5b93919286915081106111dd57610c17600754613cc3565b8060075560405191610c28836138e7565b81835286830193868552604084015280606084015260808301524260a08301523360c0830152600060e0830152600061010083015260006101208301526000610140830152604051610c7a8782613903565b600081526101608301528361018083015260016101a08301526000526000855260406000209181518355518051906001600160401b038211610639578190610cc56001860154613a88565b601f81116111aa575b508790601f83116001146111395760009261112e575b50508160011b916000199060031b1c19161760018301555b6002820160408201518051906001600160401b038211610639578190610d228454613a88565b601f81116110fe575b508890601f83116001146110995760009261108e575b50508160011b916000199060031b1c19161790555b606081015160038301556080810151600483015560a0810151600583015560c08101516006830180546001600160a01b03199081166001600160a01b039384161790915560e0830151600780860180548416928516929092179091556101008401516008860180548416918516919091179055610120840151600986018054909316931692909217815561014083015190918110156102b757610df891613ee0565b600a82016101608201518051906001600160401b038211610639578190610e1f8454613a88565b601f811161105e575b508890601f8311600114610ff957600092610fee575b50508160011b916000199060031b1c19161790555b600b8201610180820151908151916001600160401b03831161063957600160401b83116106395787908254848455808510610fd1575b5001906000528660002060005b838110610fbf575050505090600c6101a0610ec2930151151591019060ff801983541691151516179055565b60005b8151811015610f4c5780610edb60019284613ce8565b516000526004855260066040600020018260ff19825416179055600754610f028285613ce8565b5160005260048652806007604060002001553390610f208386613ce8565b517fe38405149811ec28641602f1965536956061a4c744bff36c72170e8bec04b9d7600080a401610ec5565b507faf6ffb6277511513e7d579327cc1fc57f0266df2fb11a60b13487b8c9cd2c3886105ff600754938493847f751c8b103923dbfd5ec268f9c2d3f884f7270ee83c4cc3a8f08866204f8443c960405189815280610fae33958c83019061397a565b0390a3604051918291339083614217565b82518282015591880191600101610e96565b610fe8908460005285846000209182019101613ff6565b89610e89565b015190508880610e3e565b60008581528a81209350601f198516905b8b82821061104857505090846001959493921061102f575b505050811b019055610e53565b015160001960f88460031b161c19169055888080611022565b600185968293968601518155019501930161100a565b61108890856000528a600020601f850160051c8101918c86106106f057601f0160051c0190613ff6565b89610e28565b015190508880610d41565b60008581528a81209350601f198516905b8b8282106110e85750509084600195949392106110cf575b505050811b019055610d56565b015160001960f88460031b161c191690558880806110c2565b60018596829396860151815501950193016110aa565b61112890856000528a600020601f850160051c8101918c86106106f057601f0160051c0190613ff6565b89610d2b565b015190508780610ce4565b92506001850160005287600020906000935b89601f198516861061119157506001945083601f19811610611178575b505050811b016001830155610cfc565b015160001960f88460031b161c19169055878080611168565b828201518455948501946001909301929091019061114b565b6111d7906001870160005289600020601f850160051c8101918b86106106f057601f0160051c0190613ff6565b88610cce565b60405162461bcd60e51b815260048101869052603560248201527f546f74616c207175616e74697479206d757374206265203e3d2073756d206f6660448201527420726571756573746564207175616e74697469657360581b6064820152608490fd5b60405162461bcd60e51b815260206004820152602560248201527f546f74616c207175616e74697479206d75737420626520677265617465722074604482015264068616e20360dc1b6064820152608490fd5b60405162461bcd60e51b815260206004820152602360248201527f4d75737420617070726f7665206174206c65617374206f6e652071756f74617460448201526234b7b760e91b6064820152608490fd5b346102cd5760203660031901126102cd576004358060005260006020526113116040600020541515613cfc565b6000818152600a60209081526040808320338452909152902054156113e257600081815260096020908152604080832033845290915290205460ff1661139d5760008181526009602090815260408083203380855292528220805460ff1916600117905591907fea1755928f3c227165fb4f4379ffda43b68b005373f2fc6a2afc46eacf1f2f839080a3005b60405162461bcd60e51b815260206004820152601d60248201527f507572636861736520616c72656164792061636b6e6f776c65646765640000006044820152606490fd5b60405162461bcd60e51b815260206004820152602960248201527f4e6f207075726368617365207265636f726420666f756e6420666f72207468696044820152681cc81c1c9bd91d58dd60ba1b6064820152608490fd5b346102cd5760403660031901126102cd576004356114556139c4565b33600052600160205261146f60ff60406000205416613f04565b8160005260006020526114886040600020541515613cfc565b8160005260006020523360018060a01b0360066040600020015416036115e35781600052600060205260ff60096040600020015460a01c1660078110156102b757611594576001600160a01b031660008181526002602052604090205460ff161561154f57600082815260208181526040918290206007810180546001600160a01b03191685179055600901805460ff60a01b1916600160a01b17905590519182527f01b0f0e8876adb51c001ea8baae2aa3b6bdf8b3c42811817358cef1d56c0af0091a2005b60405162461bcd60e51b815260206004820152601860248201527f496e76616c696420737570706c696572206164647265737300000000000000006044820152606490fd5b60405162461bcd60e51b815260206004820152602160248201527f50726f64756374206d75737420626520696e20437265617465642073746174756044820152607360f81b6064820152608490fd5b60405162461bcd60e51b815260206004820152602860248201527f596f7520617265206e6f74207468652070726f6475636572206f662074686973604482015267081c1c9bd91d58dd60c21b6064820152608490fd5b346102cd5760203660031901126102cd576004356000526000602052604060002060405190611667826138e7565b8054825260405190611687826116808160018501613ac2565b0383613903565b60208301918252604051926116aa846116a38160028601613ac2565b0385613903565b6040810193845260038201546060820190815260048301546080830152600583015460a080840191825260068501546001600160a01b0390811660c08601908152600780880154831660e0880190815260088901548416610100890190815260098a01549485166101208a0190815297999698969761014088019790969195929493909290911c60ff16908110156102b757865260ff600c6040519861175e8a61175781600a8501613ac2565b038b613903565b6101608401998a52611772600b8201613d41565b61018085015201541615156101a082015251985199519751965190519151925193519451956001600160a01b039586169594851694938416939092169160078710156102b75751976040519a8b9a8b5260208b0161016090526101608b016117d9916139da565b8a810360408c01526117ea916139da565b9660608a0152608089015260a088015260c087015260e0860152610100850152610120840161181891613a7b565b828103610140840152610241916139da565b346102cd5760403660031901126102cd576118436139ae565b6001600160a01b03166000908152600560205260409020805460243591908210156102cd5760209161187491613c63565b90549060031b1c604051908152f35b346102cd5760203660031901126102cd5761189c6139ae565b3360005260086020526118b660ff60406000205416613d8e565b6001600160a01b03166000818152600360205260408120805460ff191660011790557f38fdd8eb5b0a95606a3c195a848b5d3fb08512d7b4160f0abfb19aa832bbed5f9080a2005b346102cd5760203660031901126102cd576001600160a01b0361191f6139ae565b1660005260056020526102416119386040600020613d41565b60405191829160208352602083019061397a565b346102cd5760203660031901126102cd576001600160a01b0361196d6139ae565b166000526003602052602060ff604060002054166040519015158152f35b346102cd5760403660031901126102cd576004356024358160005260006020526119bb6040600020541515613cfc565b81600052600060205260ff60096040600020015460a01c1660078110156102b75760056119e8911461410e565b816000526000602052611a05816004604060002001541015614172565b611a108115156141cb565b816000526000602052611a2c60046040600020019182546141be565b905560008181526020819052604090206009810180546001600160a01b031916331790556004015415611a86575b7fe3ea93cf6348155aedd9f5e3a1d8f1fd886a956f1401763612b9b694b3363e866020604051338152a2005b6000818152602081905260409020600901805460ff60a01b1916600360a11b179055611a5a565b346102cd5760403660031901126102cd57600435611ac96139c4565b336000526003602052611ae360ff60406000205416614057565b816000526000602052611afc6040600020541515613cfc565b600082815260208190526040902060080154611b22906001600160a01b031633146140b1565b81600052600060205260ff60096040600020015460a01c1660078110156102b7577fe3ea93cf6348155aedd9f5e3a1d8f1fd886a956f1401763612b9b694b3363e8691611b7360056020931461410e565b60008481528083526040808220600490810154878452838652828420909101839055868352828552818320600990810180546001600160a01b0319166001600160a01b039690961695861790558784528386528284208101805460ff60a01b1916600360a11b179055878452600a86528284208585528652828420919091558683528452808220838352845290819020805460ff1916905551908152a2005b346102cd5760003660031901126102cd576020600654604051908152f35b346102cd5760403660031901126102cd57600435611c4c6139c4565b336000526002602052611c6660ff60406000205416613e29565b816000526000602052611c7f6040600020541515613cfc565b600082815260208190526040902060070154611ca5906001600160a01b03163314613e83565b81600052600060205260ff60096040600020015460a01c1660078110156102b757600203611d94576001600160a01b031660008181526003602052604090205460ff1615611d4f57600082815260208181526040918290206008810180546001600160a01b03191685179055600901805460ff60a01b1916600360a01b17905590519182527f91167d82f762420abffc44418508e57c6772d5991839c46a46e3ecdace56f59791a2005b60405162461bcd60e51b815260206004820152601860248201527f496e76616c69642072657461696c6572206164647265737300000000000000006044820152606490fd5b60405162461bcd60e51b815260206004820152602a60248201527f50726f64756374206d75737420626520726563656976656420627920737570706044820152691b1a595c88199a5c9cdd60b21b6064820152608490fd5b346102cd5760403660031901126102cd57611e056139c4565b600435600052600a60205260406000209060018060a01b03166000526020526020604060002054604051908152f35b346102cd5760203660031901126102cd57600435336000526003602052611e6260ff60406000205416614057565b806000526000602052611e7b6040600020541515613cfc565b600081815260208190526040902060080154611ea1906001600160a01b031633146140b1565b80600052600060205260ff60096040600020015460a01c1660078110156102b757600303611f11576000818152602081905260408120600901805460ff60a01b1916600160a21b1790557f21c4402dd4a1ebff6d7fb038f59a4fbdb8f8b1a618e6205e815677045d686d889080a2005b60405162461bcd60e51b815260206004820152602660248201527f50726f64756374206d7573742062652073656e7420746f2072657461696c657260448201526508199a5c9cdd60d21b6064820152608490fd5b346102cd5760203660031901126102cd576004356000526000602052604060002080546040519182806001830190611f9c91613ac2565b03611fa79084613903565b6040519081611fb98160028401613ac2565b03611fc49083613903565b60038101546004820154600583015460068401546007850154600886015460098701546040519790956001600160a01b0392831695938316949092169291908861201181600a8401613ac2565b0361201c908a613903565b600c015460ff16986040519b8c9b8c5260208c016101a090526101a08c01612043916139da565b8b810360408d0152612054916139da565b9660608b015260808a015260a089015260c088015260e0870152610100860152600160a01b60019003811661012086015261014085019060a01c60ff169061209b91613a7b565b8381036101608501526120ad916139da565b9015156101808301520390f35b346102cd5760603660031901126102cd576004356120d66139c4565b604435903360005260036020526120f460ff60406000205416614057565b82600052600060205261210d6040600020541515613cfc565b600083815260208190526040902060080154612133906001600160a01b031633146140b1565b82600052600060205260ff60096040600020015460a01c169060078210156102b7577fe3ea93cf6348155aedd9f5e3a1d8f1fd886a956f1401763612b9b694b3363e869261218560056020941461410e565b84600052600083526121a1816004604060002001541015614172565b6121ac8115156141cb565b846000526000835260046040600020016121c78282546141be565b90556000858152808452604080822060090180546001600160a01b0319166001600160a01b038616908117909155878352600a8652818320908352855290208054909161221391614165565b905560008481526009835260408082206001600160a01b03841683528452808220805460ff1916905585825281845290206004015415612261575b6040516001600160a01b039091168152a2005b600084815280835260409020600901805460ff60a01b1916600360a11b17905561224e565b346102cd5760203660031901126102cd5761229f6139ae565b3360005260086020526122b960ff60406000205416613d8e565b6001600160a01b03166122cd811515613de5565b8060005260086020526040600020600160ff198254161790557f994a936646fe87ffe4f1e469d3d6aa417d6b855598397f323de5b449f765f0c3600080a2005b346102cd5760403660031901126102cd576123266139c4565b600435600052600960205260406000209060018060a01b0316600052602052602060ff604060002054166040519015158152f35b346102cd5761236836613c12565b9190821561271e578151156126d957612382600654613cc3565b908160065560405190612394826138cb565b828252336020808401918252604080850187815260608601948552608086018981524260a08801908152600060c0890181815260e08a018281529a82526004909652939093209651875593516001870180546001600160a01b0319166001600160a01b0392909216919091179055518051929491939260028701916001600160401b0382116106395781906124298454613a88565b601f81116126a7575b50602090601f831160011461264257600092612637575b50508160011b916000199060031b1c19161790555b51805160038601916001600160401b0382116106395781906124808454613a88565b601f8111612605575b50602090601f83116001146125a057600092612595575b50508160011b916000199060031b1c19161790555b5160048401555160058301556006820190519260048410156102b75760079160009460ff80198354169116179055519101553381526005602052604081209060065491805491600160401b8310156125815760207fe7615ede87763582d8f9f8808ac87ec98f892b6d243f1463c721298038c6664187878761253d8888600182018155613c63565b819291549060031b91821b91600019901b191617905560065492839161256e604051916040835260408301906139da565b93868201528033940390a3604051908152f35b634e487b7160e01b81526041600452602490fd5b015190508a806124a0565b60008581528281209350601f198516905b8181106125ed57509084600195949392106125d4575b505050811b0190556124b5565b015160001960f88460031b161c191690558a80806125c7565b929360206001819287860151815501950193016125b1565b61263190856000526020600020601f850160051c810191602086106106f057601f0160051c0190613ff6565b8b612489565b015190508b80612449565b60008581528281209350601f198516905b81811061268f5750908460019594939210612676575b505050811b01905561245e565b015160001960f88460031b161c191690558b8080612669565b92936020600181928786015181550195019301612653565b6126d390856000526020600020601f850160051c810191602086106106f057601f0160051c0190613ff6565b8c612432565b60405162461bcd60e51b815260206004820152601c60248201527f50726f64756374206e616d652063616e6e6f7420626520656d707479000000006044820152606490fd5b60405162461bcd60e51b815260206004820152602960248201527f526571756573746564207175616e74697479206d75737420626520677265617460448201526806572207468616e20360bc1b6064820152608490fd5b346102cd5760403660031901126102cd576004356024356001600160401b0381116102cd576127a8903690600401613bb5565b3360005260036020526127c260ff60406000205416614057565b8160005260006020526127db6040600020541515613cfc565b600082815260208190526040902060080154612801906001600160a01b031633146140b1565b81600052600060205260ff60096040600020015460a01c1660078110156102b757600561282e911461410e565b600091825b8251841015612959576128468484613ce8565b518060005260046020526128606040600020541515613f5e565b80600052600460205260ff6006604060002001541660048110156102b7576001036129145780600052600460205282600760406000200154036128c3576001916128bb91600052600460205260046040600020015490614165565b930192612833565b60405162461bcd60e51b8152602060048201526024808201527f51756f746174696f6e206e6f74206c696e6b656420746f20746869732070726f604482015263191d58dd60e21b6064820152608490fd5b60405162461bcd60e51b815260206004820152601a60248201527f51756f746174696f6e206d75737420626520617070726f7665640000000000006044820152606490fd5b61297783918360005260006020526004604060002001541015614172565b60005b8151811015612a13578061299060019284613ce8565b51600081815260046020818152604080842060068101805460ff191660031790558301548985529184905290922001805490916129cc916141be565b905580600052600460205284838060a01b03846040600020015416917f69c8c9ccba86b5a238cbc9e691e0835348f6abc27c4e0602e889d05dc816da2c600080a40161297a565b6000838152602052005b346102cd5760203660031901126102cd57612a366139ae565b60075490612a4382613c91565b612a4c8361400d565b612a558461400d565b612a5e85613c91565b94612a6881613c91565b9060009560015b82811115612b9e57505050612a8385613c91565b94612a8d8161400d565b91612a978261400d565b93612aa183613c91565b95612aab84613c91565b9760005b858110612b1657612ade8b6102418c612b088d612afa8e612aec8f604051998a9960a08b5260a08b019061397a565b9089820360208b0152613b45565b908782036040890152613b45565b90858203606087015261397a565b90838203608085015261397a565b80612b76818e8e612b3483612b2d6001988a613ce8565b5192613ce8565b52612b3f8288613ce8565b51612b4a838d613ce8565b52612b55828c613ce8565b508b612b6583612b2d818c613ce8565b52612b70828d613ce8565b50613ce8565b51612b81828c613ce8565b52612b8c8187613ce8565b51612b97828d613ce8565b5201612aaf565b806000526000602052604060002054151580612cdf575b80612cb5575b80612c9b575b612bd4575b612bcf90613cc3565b612a6f565b96612c938189612be7612bcf948b613ce8565b52896000526000602052610b34612c0b600160406000200160405192838092613ac2565b612c15828a613ce8565b52612c208189613ce8565b50896000526000602052610b34612c44600260406000200160405192838092613ac2565b612c4e8289613ce8565b52612c598188613ce8565b50896000526000602052600360406000200154612c76828d613ce8565b528960005260006020526004604060002001546102a98288613ce8565b979050612bc6565b508060005260006020526004604060002001541515612bc1565b5080600052600060205260ff60096040600020015460a01c1660078110156102b757600514612bbb565b506000818152602081905260409020600801546001600160a01b03838116911614612bb5565b346102cd5760203660031901126102cd5760043560005260046020526040600020805461024160018060a01b036001840154169260405190612d4e826116808160028501613ac2565b604051612d6281610b348160038601613ac2565b6004820154600583015491600760ff6006860154169401549460405198899889613a1b565b346102cd5760403660031901126102cd576004356024356001600160401b0381116102cd57612dba903690600401613924565b90336000526002602052612dd560ff60406000205416613e29565b806000526000602052612dee6040600020541515613cfc565b600081815260208190526040902060070154612e14906001600160a01b03163314613e83565b80600052600060205260ff60096040600020015460a01c1660078110156102b7576002148015612fed575b15612faf57806000526000602052600a604060002001918051926001600160401b03841161063957612e718154613a88565b601f8111612f7d575b50602093601f8111600114612ef3579081612ee393927f45eb2a65b0af2ef9e3cf2d800ea946cf7f32cc5b7d57c129e52f2a217fe521239596600091612ee8575b508160011b916000199060031b1c19161790555b6040519182916020835260208301906139da565b0390a2005b905083015187612ebb565b601f19811682600052856000209060005b818110612f655750916001917f45eb2a65b0af2ef9e3cf2d800ea946cf7f32cc5b7d57c129e52f2a217fe52123969782612ee397969510612f4c575b5050811b019055612ecf565b85015160001960f88460031b161c191690558780612f40565b85880151835560209788019760019093019201612f04565b612fa990826000526020600020601f870160051c810191602088106106f057601f0160051c0190613ff6565b84612e7a565b60405162461bcd60e51b8152602060048201526016602482015275496e76616c69642070726f647563742073746174757360501b6044820152606490fd5b5080600052600060205260ff60096040600020015460a01c1660078110156102b757600314612e3f565b346102cd5760203660031901126102cd5760043533600052600160205261304560ff60406000205416613f04565b80600052600460205261305e6040600020541515613f5e565b80600052600460205260ff6006604060002001541660048110156102b7576130869015613faa565b8060005260046020526006604060002001600260ff1982541617905533907f096381c6a39294c93c86842360d584ff7238ffb75adc43566e588b5320fd0443600080a3005b346102cd5760203660031901126102cd576130e46139ae565b3360005260086020526130fe60ff60406000205416613d8e565b6001600160a01b031660008181526001602081905260408220805460ff191690911790557f523dd2bfefd64323042504bb6d7886a60e66bef86e7379de81fc45837853c3fa9080a2005b346102cd5760203660031901126102cd5760043533600052600260205261317660ff60406000205416613e29565b80600052600060205261318f6040600020541515613cfc565b6000818152602081905260409020600701546131b5906001600160a01b03163314613e83565b80600052600060205260ff60096040600020015460a01c1660078110156102b757600103613225576000818152602081905260408120600901805460ff60a01b1916600160a11b1790557fc7428d66281c5b2ce8456a9d4979a4dd51f4a2f95a6e8124350d927d924f715f9080a2005b60405162461bcd60e51b815260206004820152602660248201527f50726f64756374206d7573742062652073656e7420746f20737570706c69657260448201526508199a5c9cdd60d21b6064820152608490fd5b346102cd5760203660031901126102cd576001600160a01b0361329a6139ae565b166000526001602052602060ff604060002054166040519015158152f35b346102cd5760203660031901126102cd576132d16139ae565b3360005260086020526132eb60ff60406000205416613d8e565b6001600160a01b03166132ff811515613de5565b33811461334357806000526008602052604060002060ff1981541690557f58619076adf5bb0943d100ef88d52d7c3fd691b19d3a9071b555b651fbf418da600080a2005b60405162461bcd60e51b815260206004820152601860248201527f4f776e65722063616e6e6f742072656d6f76652073656c6600000000000000006044820152606490fd5b346102cd5760203660031901126102cd576001600160a01b036133a96139ae565b166000526002602052602060ff604060002054166040519015158152f35b346102cd5760203660031901126102cd5760043560005260006020526040600020805460405191828060018301906133fe91613ac2565b036134099084613903565b604051908161341b8160028401613ac2565b036134269083613903565b6003810154600482015460058301546006840154600785015460088601546009870154604051969590946001600160a01b03928316949383169390921691908761347381600a8c01613ac2565b0361347e9089613903565b61348a600b8a01613d41565b98600c015460ff16996040519c8d9c8d5260208d016101c090526101c08d016134b2916139da565b8c810360408e01526134c3916139da565b9660608c015260808b015260a08a015260c089015260e0880152610100870152600160a01b60019003811661012087015261014086019060a01c60ff169061350a91613a7b565b84810361016086015261351c916139da565b83810361018085015261352e9161397a565b9015156101a08301520390f35b346102cd5760203660031901126102cd576004358060005260006020526135686040600020541515613cfc565b6000526000602052602060ff60096040600020015460a01c1661358e6040518092613a7b565bf35b346102cd5760203660031901126102cd576004358060005260006020526135bd6040600020541515613cfc565b6000526000602052610241611938600b604060002001613d41565b346102cd5760203660031901126102cd5760043560005260046020526040600020604051613605816138cb565b8154815260018201546001600160a01b03166020820190815260405192909190613636846116a38160028501613ac2565b6040820193845260405190613652826116808160038501613ac2565b6060830191825260048101549060808401918252600581015460a0850190815260ff60068301541660c086019260048210156102b7579083526007015460e0860190815294519551965193519251905191516001600160a01b03909716969260048410156102b75761024195519460405198899889613a1b565b346102cd5760203660031901126102cd576001600160a01b036136ed6139ae565b166000526008602052602060ff604060002054166040519015158152f35b346102cd5760203660031901126102cd576004356001600160401b0381116102cd5761373b903690600401613924565b6007549061374882613c91565b9161375281613c91565b9160009160015b818111156137e15750505061376d81613c91565b9161377782613c91565b9360005b8381106137ac5761379e856102418860405193849360408552604085019061397a565b90838203602085015261397a565b806137b960019284613ce8565b516137c48288613ce8565b526137cf8185613ce8565b516137da8289613ce8565b520161377b565b8060005260006020526040600020541515806138a1575b80613887575b8061384f575b613817575b61381290613cc3565b613759565b92613847818561382a613812948a613ce8565b528560005260006020526004604060002001546102a98289613ce8565b939050613809565b50806000526000602052610b34613873600160406000200160405192838092613ac2565b602081519101208351602085012014613804565b5080600052600060205260046040600020015415156137fe565b5080600052600060205260ff60096040600020015460a01c1660078110156102b7576005146137f8565b61010081019081106001600160401b0382111761063957604052565b6101c081019081106001600160401b0382111761063957604052565b90601f801991011681019081106001600160401b0382111761063957604052565b81601f820112156102cd578035906001600160401b0382116106395760405192613958601f8401601f191660200185613903565b828452602083830101116102cd57816000926020809301838601378301015290565b906020808351928381520192019060005b8181106139985750505090565b825184526020938401939092019160010161398b565b600435906001600160a01b03821682036102cd57565b602435906001600160a01b03821682036102cd57565b919082519283825260005b848110613a06575050826000602080949584010152601f8019910116010190565b806020809284010151828286010152016139e5565b9498979695939192613a5b93613a4d92875260018060a01b0316602087015261010060408701526101008601906139da565b9084820360608601526139da565b95608083015260a082015260048210156102b75760e09160c08201520152565b9060078210156102b75752565b90600182811c92168015613ab8575b6020831014613aa257565b634e487b7160e01b600052602260045260246000fd5b91607f1691613a97565b60009291815491613ad283613a88565b8083529260018116908115613b285750600114613aee57505050565b60009081526020812093945091925b838310613b0e575060209250010190565b600181602092949394548385870101520191019190613afd565b915050602093945060ff929192191683830152151560051b010190565b9080602083519182815201916020808360051b8301019401926000915b838310613b7157505050505090565b9091929394602080613b8f600193601f1986820301875289516139da565b97019301930191939290613b62565b6001600160401b0381116106395760051b60200190565b9080601f830112156102cd578135613bcc81613b9e565b92613bda6040519485613903565b81845260208085019260051b8201019283116102cd57602001905b828210613c025750505090565b8135815260209182019101613bf5565b9060606003198301126102cd576004356001600160401b0381116102cd5782613c3d91600401613924565b91602435906001600160401b0382116102cd57613c5c91600401613924565b9060443590565b8054821015613c7b5760005260206000200190600090565b634e487b7160e01b600052603260045260246000fd5b90613c9b82613b9e565b613ca86040519182613903565b8281528092613cb9601f1991613b9e565b0190602036910137565b6000198114613cd25760010190565b634e487b7160e01b600052601160045260246000fd5b8051821015613c7b5760209160051b010190565b15613d0357565b60405162461bcd60e51b8152602060048201526016602482015275141c9bd91d58dd08191bd95cc81b9bdd08195e1a5cdd60521b6044820152606490fd5b906040519182815491828252602082019060005260206000209260005b818110613d75575050613d7392500383613903565b565b8454835260019485019487945060209093019201613d5e565b15613d9557565b60405162461bcd60e51b815260206004820152602260248201527f4f6e6c79206f776e65722063616e20706572666f726d2074686973206163746960448201526137b760f11b6064820152608490fd5b15613dec57565b60405162461bcd60e51b8152602060048201526015602482015274496e76616c6964206f776e6572206164647265737360581b6044820152606490fd5b15613e3057565b60405162461bcd60e51b815260206004820152602560248201527f4f6e6c7920737570706c6965722063616e20706572666f726d2074686973206160448201526431ba34b7b760d91b6064820152608490fd5b15613e8a57565b60405162461bcd60e51b815260206004820152602860248201527f596f7520617265206e6f742074686520737570706c696572206f662074686973604482015267081c1c9bd91d58dd60c21b6064820152608490fd5b9060078110156102b757815460ff60a01b191660a09190911b60ff60a01b16179055565b15613f0b57565b60405162461bcd60e51b815260206004820152602560248201527f4f6e6c792070726f64756365722063616e20706572666f726d2074686973206160448201526431ba34b7b760d91b6064820152608490fd5b15613f6557565b60405162461bcd60e51b815260206004820152601860248201527f51756f746174696f6e20646f6573206e6f7420657869737400000000000000006044820152606490fd5b15613fb157565b60405162461bcd60e51b815260206004820152601960248201527f51756f746174696f6e206d7573742062652070656e64696e67000000000000006044820152606490fd5b818110614001575050565b60008155600101613ff6565b9061401782613b9e565b6140246040519182613903565b8281528092614035601f1991613b9e565b019060005b82811061404657505050565b80606060208093850101520161403a565b1561405e57565b60405162461bcd60e51b815260206004820152602560248201527f4f6e6c792072657461696c65722063616e20706572666f726d2074686973206160448201526431ba34b7b760d91b6064820152608490fd5b156140b857565b60405162461bcd60e51b815260206004820152602860248201527f596f7520617265206e6f74207468652072657461696c6572206f662074686973604482015267081c1c9bd91d58dd60c21b6064820152608490fd5b1561411557565b60405162461bcd60e51b815260206004820152602260248201527f50726f64756374206d75737420626520617661696c61626c6520666f722073616044820152616c6560f01b6064820152608490fd5b91908201809211613cd257565b1561417957565b60405162461bcd60e51b815260206004820152601f60248201527f496e73756666696369656e7420617661696c61626c65207175616e74697479006044820152606490fd5b91908203918211613cd257565b156141d257565b60405162461bcd60e51b815260206004820152601f60248201527f5175616e74697479206d7573742062652067726561746572207468616e2030006044820152606490fd5b9061422f6020919493946040845260408401906139da565b6001600160a01b0390941691015256fea2646970667358221220c0a20a34ac27187e35c94adcd8cd907742c3a3ec89abe231a7da2af6bf86beb864736f6c634300081c0033",
  "linkReferences": {},
  "deployedLinkReferences": {},
  "uiAddresses": {
    "owner": "0xf39Fd6e51aad88F6F4ce6aB8827279cffFb92266",
    "producers": [
      "0x70997970C51812dc3A010C7d01b50e0d17dc79C8",
      "0x9965507D1a55bcC2695C58ba16FB37d819B0A4dc",
      "0xa0Ee7A142d267C1f36714E4a8F75612F20a79720"
    ],
    "suppliers": [
      "0x3C44CdDdB6a900fa2b585dd299e03d12FA4293BC",
      "0x976EA74026E726554dB657fA54763abd0C3a0aa9",
      "0xBcd4042DE499D14e55001CcbB24a551F3b954096"
    ],
    "retailers": [
      "0x90F79bf6EB2c4f870365E785982E1f101E93b906",
      "0x14dC79964da2C08b23698B3D3cc7Ca32193d9955",
      "0x71bE63f3384f5fb98995898A86B02Fb2426c5788"
    ],
    "consumers": [
      "0x15d34AAf54267DB7D7c367839AAf71A00a2C6A65",
      "0x23618e81E3f5cdF7f54C3d65f7FBc0aBf5B21E8f",
      "0xFABB0ac9d68B0B445fB7357272Ff202C5651694a"
    ],
    "extra": [
      "0x1CBd3b2770909D4e10f157cABC84C7264073C9Ec",
      "0xdF3e18d64BC6A983f673Ab319CCaE4f1a57C7097",
      "0xcd3B766CCDd6AE721141F452C550Ca635964ce71",
      "0x2546BcD3c84621e976D8185a91A922aE77ECEc30",
      "0xbDA5747bFD65F08deb54cb465eB87D40e51B197E",
      "0xdD2FD4581271e230360230F9337D5c0430Bf44C0",
      "0x8626f6940E2eb28930eFb4CeF49B2d1F2C9C1199"
    ],
    "metamask": [
      "0x7D0A9C42B9953A1Adc0A8a15a6a66bB489994E57",
      "0x44DA5566ef04234363B4882d856D590ab435096e",
      "0x933d4350BCA858e6De702A929878a413352885d8",
      "0x2fa965d296F182848588F9A3Ed97AF2E9fdF2d76",
      "0xB6Ce9Af39c7CA87F179666C05204d72516649dfC",
      "0x5560e14d290bc0459cA186b647637238dDE2cdFb",
      "0x8567da95C79EfCD36f953478D4f3AdEC117ae179",
      "0x24dC4ef5604ee51c616c1a7F42906F44CF196afE",
      "0xE5A1385f95ACd5caD8192fb82F13F065aeBA86Cc",
      "0xd51c949838F9e35851b5C9be3f6309101B0687C2",
      "0x984E3ea2679d8Febc93D0C885712158deBcef02e",
      "0x171c52193664A2c624c5551C442A8bbde2D3a93e",
      "0xC693c588981179b5e3F951e12C38E74EA6082d1c",
      "0x34E817073401Aaa0f21215d769Cd9e3500B2e69e",
      "0x423536D127f738b31999B2259d1FF842C2d47080"
    ],
    "metamaskOwners": [
      "0x7D0A9C42B9953A1Adc0A8a15a6a66bB489994E57"
    ],
    "metamaskProducers": [
      "0x44DA5566ef04234363B4882d856D590ab435096e",
      "0x933d4350BCA858e6De702A929878a413352885d8"
    ],
    "metamaskSuppliers": [
      "0x2fa965d296F182848588F9A3Ed97AF2E9fdF2d76",
      "0xB6Ce9Af39c7CA87F179666C05204d72516649dfC"
    ],
    "metamaskRetailers": [
      "0x5560e14d290bc0459cA186b647637238dDE2cdFb",
      "0x8567da95C79EfCD36f953478D4f3AdEC117ae179"
    ],
    "metamaskConsumers": [
      "0x24dC4ef5604ee51c616c1a7F42906F44CF196afE",
      "0xE5A1385f95ACd5caD8192fb82F13F065aeBA86Cc",
      "0xd51c949838F9e35851b5C9be3f6309101B0687C2",
      "0x984E3ea2679d8Febc93D0C885712158deBcef02e",
      "0x171c52193664A2c624c5551C442A8bbde2D3a93e",
      "0xC693c588981179b5e3F951e12C38E74EA6082d1c",
      "0x34E817073401Aaa0f21215d769Cd9e3500B2e69e",
      "0x423536D127f738b31999B2259d1FF842C2d47080"
    ]
  }
}