{
  "_format": "hh-sol-artifact-1",
  "contractName": "SupplyChain",
  "sourceName": "contracts/SupplyChain.sol",
  "abi": [
    {
      "inputs": [],
      "stateMutability": "nonpayable",
      "type": "constructor"
    },
    {
      "anonymous": false,
      "inputs": [
        {
          "indexed": true,
          "internalType": "address",
          "name": "consumer",
          "type": "address"
        }
      ],
      "name": "ConsumerRegistered",
      "type": "event"
    },
    {
      "anonymous": false,
      "inputs": [
        {
          "indexed": true,
          "internalType": "address",
          "name": "owner",
          "type": "address"
        }
      ],
      "name": "OwnerAdded",
      "type": "event"
    },
    {
      "anonymous": false,
      "inputs": [
        {
          "indexed": true,
          "internalType": "address",
          "name": "owner",
          "type": "address"
        }
      ],
      "name": "OwnerRemoved",
      "type": "event"
    },
    {
      "anonymous": false,
      "inputs": [
        {
          "indexed": true,
          "internalType": "address",
          "name": "producer",
          "type": "address"
        }
      ],
      "name": "ProducerRegistered",
      "type": "event"
    },
    {
      "anonymous": false,
      "inputs": [
        {
          "indexed": true,
          "internalType": "uint256",
          "name": "productId",
          "type": "uint256"
        }
      ],
      "name": "ProductAddedToStore",
      "type": "event"
    },
    {
      "anonymous": false,
      "inputs": [
        {
          "indexed": true,
          "internalType": "uint256",
          "name": "productId",
          "type": "uint256"
        },
        {
          "indexed": false,
          "internalType": "string",
          "name": "name",
          "type": "string"
        },
        {
          "indexed": false,
          "internalType": "address",
          "name": "producer",
          "type": "address"
        }
      ],
      "name": "ProductCreated",
      "type": "event"
    },
    {
      "anonymous": false,
      "inputs": [
        {
          "indexed": true,
          "internalType": "uint256",
          "name": "productId",
          "type": "uint256"
        }
      ],
      "name": "ProductReceivedByRetailer",
      "type": "event"
    },
    {
      "anonymous": false,
      "inputs": [
        {
          "indexed": true,
          "internalType": "uint256",
          "name": "productId",
          "type": "uint256"
        }
      ],
      "name": "ProductReceivedBySupplier",
      "type": "event"
    },
    {
      "anonymous": false,
      "inputs": [
        {
          "indexed": true,
          "internalType": "uint256",
          "name": "productId",
          "type": "uint256"
        },
        {
          "indexed": false,
          "internalType": "address",
          "name": "retailer",
          "type": "address"
        }
      ],
      "name": "ProductSentToRetailer",
      "type": "event"
    },
    {
      "anonymous": false,
      "inputs": [
        {
          "indexed": true,
          "internalType": "uint256",
          "name": "productId",
          "type": "uint256"
        },
        {
          "indexed": false,
          "internalType": "address",
          "name": "supplier",
          "type": "address"
        }
      ],
      "name": "ProductSentToSupplier",
      "type": "event"
    },
    {
      "anonymous": false,
      "inputs": [
        {
          "indexed": true,
          "internalType": "uint256",
          "name": "productId",
          "type": "uint256"
        },
        {
          "indexed": false,
          "internalType": "address",
          "name": "consumer",
          "type": "address"
        }
      ],
      "name": "ProductSoldToConsumer",
      "type": "event"
    },
    {
      "anonymous": false,
      "inputs": [
        {
          "indexed": true,
          "internalType": "uint256",
          "name": "productId",
          "type": "uint256"
        },
        {
          "indexed": true,
          "internalType": "address",
          "name": "consumer",
          "type": "address"
        }
      ],
      "name": "PurchaseAcknowledged",
      "type": "event"
    },
    {
      "anonymous": false,
      "inputs": [
        {
          "indexed": true,
          "internalType": "uint256",
          "name": "quotationId",
          "type": "uint256"
        },
        {
          "indexed": true,
          "internalType": "uint256",
          "name": "productId",
          "type": "uint256"
        },
        {
          "indexed": true,
          "internalType": "address",
          "name": "producer",
          "type": "address"
        }
      ],
      "name": "QuotationApproved",
      "type": "event"
    },
    {
      "anonymous": false,
      "inputs": [
        {
          "indexed": true,
          "internalType": "uint256",
          "name": "quotationId",
          "type": "uint256"
        },
        {
          "indexed": true,
          "internalType": "address",
          "name": "consumer",
          "type": "address"
        },
        {
          "indexed": false,
          "internalType": "string",
          "name": "productName",
          "type": "string"
        },
        {
          "indexed": false,
          "internalType": "uint256",
          "name": "requestedQuantity",
          "type": "uint256"
        }
      ],
      "name": "QuotationCreated",
      "type": "event"
    },
    {
      "anonymous": false,
      "inputs": [
        {
          "indexed": true,
          "internalType": "uint256",
          "name": "quotationId",
          "type": "uint256"
        },
        {
          "indexed": true,
          "internalType": "uint256",
          "name": "productId",
          "type": "uint256"
        },
        {
          "indexed": true,
          "internalType": "address",
          "name": "consumer",
          "type": "address"
        }
      ],
      "name": "QuotationFulfilled",
      "type": "event"
    },
    {
      "anonymous": false,
      "inputs": [
        {
          "indexed": true,
          "internalType": "uint256",
          "name": "quotationId",
          "type": "uint256"
        },
        {
          "indexed": true,
          "internalType": "address",
          "name": "producer",
          "type": "address"
        }
      ],
      "name": "QuotationRejected",
      "type": "event"
    },
    {
      "anonymous": false,
      "inputs": [
        {
          "indexed": false,
          "internalType": "uint256[]",
          "name": "quotationIds",
          "type": "uint256[]"
        },
        {
          "indexed": true,
          "internalType": "uint256",
          "name": "productId",
          "type": "uint256"
        },
        {
          "indexed": true,
          "internalType": "address",
          "name": "producer",
          "type": "address"
        }
      ],
      "name": "QuotationsBatchApproved",
      "type": "event"
    },
    {
      "anonymous": false,
      "inputs": [
        {
          "indexed": true,
          "internalType": "address",
          "name": "retailer",
          "type": "address"
        }
      ],
      "name": "RetailerRegistered",
      "type": "event"
    },
    {
      "anonymous": false,
      "inputs": [
        {
          "indexed": true,
          "internalType": "uint256",
          "name": "productId",
          "type": "uint256"
        },
        {
          "indexed": false,
          "internalType": "string",
          "name": "shippingInfo",
          "type": "string"
        }
      ],
      "name": "ShippingInfoUpdated",
      "type": "event"
    },
    {
      "anonymous": false,
      "inputs": [
        {
          "indexed": true,
          "internalType": "address",
          "name": "supplier",
          "type": "address"
        }
      ],
      "name": "SupplierRegistered",
      "type": "event"
    },
    {
      "inputs": [
        {
          "internalType": "uint256",
          "name": "_productId",
          "type": "uint256"
        }
      ],
      "name": "acknowledgePurchase",
      "outputs": [],
      "stateMutability": "nonpayable",
      "type": "function"
    },
    {
      "inputs": [
        {
          "internalType": "address",
          "name": "_newOwner",
          "type": "address"
        }
      ],
      "name": "addOwner",
      "outputs": [],
      "stateMutability": "nonpayable",
      "type": "function"
    },
    {
      "inputs": [
        {
          "internalType": "string",
          "name": "_name",
          "type": "string"
        },
        {
          "internalType": "string",
          "name": "_description",
          "type": "string"
        },
        {
          "internalType": "uint256",
          "name": "_quantity",
          "type": "uint256"
        }
      ],
      "name": "addProduct",
      "outputs": [
        {
          "internalType": "uint256",
          "name": "",
          "type": "uint256"
        }
      ],
      "stateMutability": "nonpayable",
      "type": "function"
    },
    {
      "inputs": [
        {
          "internalType": "uint256",
          "name": "_productId",
          "type": "uint256"
        }
      ],
      "name": "addToStore",
      "outputs": [],
      "stateMutability": "nonpayable",
      "type": "function"
    },
    {
      "inputs": [
        {
          "internalType": "uint256[]",
          "name": "_quotationIds",
          "type": "uint256[]"
        },
        {
          "internalType": "uint256",
          "name": "_totalQuantity",
          "type": "uint256"
        }
      ],
      "name": "approveQuotations",
      "outputs": [
        {
          "internalType": "uint256",
          "name": "",
          "type": "uint256"
        }
      ],
      "stateMutability": "nonpayable",
      "type": "function"
    },
    {
      "inputs": [
        {
          "internalType": "uint256",
          "name": "",
          "type": "uint256"
        },
        {
          "internalType": "address",
          "name": "",
          "type": "address"
        }
      ],
      "name": "consumerAcknowledgments",
      "outputs": [
        {
          "internalType": "bool",
          "name": "",
          "type": "bool"
        }
      ],
      "stateMutability": "view",
      "type": "function"
    },
    {
      "inputs": [
        {
          "internalType": "address",
          "name": "",
          "type": "address"
        },
        {
          "internalType": "uint256",
          "name": "",
          "type": "uint256"
        }
      ],
      "name": "consumerQuotations",
      "outputs": [
        {
          "internalType": "uint256",
          "name": "",
          "type": "uint256"
        }
      ],
      "stateMutability": "view",
      "type": "function"
    },
    {
      "inputs": [
        {
          "internalType": "address",
          "name": "",
          "type": "address"
        }
      ],
      "name": "consumers",
      "outputs": [
        {
          "internalType": "bool",
          "name": "",
          "type": "bool"
        }
      ],
      "stateMutability": "view",
      "type": "function"
    },
    {
      "inputs": [
        {
          "internalType": "string",
          "name": "_productName",
          "type": "string"
        },
        {
          "internalType": "string",
          "name": "_description",
          "type": "string"
        },
        {
          "internalType": "uint256",
          "name": "_requestedQuantity",
          "type": "uint256"
        }
      ],
      "name": "createQuotation",
      "outputs": [
        {
          "internalType": "uint256",
          "name": "",
          "type": "uint256"
        }
      ],
      "stateMutability": "nonpayable",
      "type": "function"
    },
    {
      "inputs": [
        {
          "internalType": "uint256",
          "name": "_productId",
          "type": "uint256"
        },
        {
          "internalType": "uint256[]",
          "name": "_quotationIds",
          "type": "uint256[]"
        }
      ],
      "name": "fulfillQuotations",
      "outputs": [],
      "stateMutability": "nonpayable",
      "type": "function"
    },
    {
      "inputs": [
        {
          "internalType": "string",
          "name": "_productName",
          "type": "string"
        }
      ],
      "name": "getAvailableProductsByName",
      "outputs": [
        {
          "internalType": "uint256[]",
          "name": "productIds",
          "type": "uint256[]"
        },
        {
          "internalType": "uint256[]",
          "name": "availableQuantities",
          "type": "uint256[]"
        }
      ],
      "stateMutability": "view",
      "type": "function"
    },
    {
      "inputs": [
        {
          "internalType": "uint256",
          "name": "_productId",
          "type": "uint256"
        },
        {
          "internalType": "address",
          "name": "_consumer",
          "type": "address"
        }
      ],
      "name": "getConsumerPurchaseQuantity",
      "outputs": [
        {
          "internalType": "uint256",
          "name": "",
          "type": "uint256"
        }
      ],
      "stateMutability": "view",
      "type": "function"
    },
    {
      "inputs": [
        {
          "internalType": "address",
          "name": "_consumer",
          "type": "address"
        }
      ],
      "name": "getConsumerQuotations",
      "outputs": [
        {
          "internalType": "uint256[]",
          "name": "",
          "type": "uint256[]"
        }
      ],
      "stateMutability": "view",
      "type": "function"
    },
    {
      "inputs": [],
      "name": "getPendingQuotations",
      "outputs": [
        {
          "internalType": "uint256[]",
          "name": "",
          "type": "uint256[]"
        }
      ],
      "stateMutability": "view",
      "type": "function"
    },
    {
      "inputs": [
        {
          "internalType": "uint256",
          "name": "_productId",
          "type": "uint256"
        }
      ],
      "name": "getProduct",
      "outputs": [
        {
          "internalType": "uint256",
          "name": "id",
          "type": "uint256"
        },
        {
          "internalType": "string",
          "name": "name",
          "type": "string"
        },
        {
          "internalType": "string",
          "name": "description",
          "type": "string"
        },
        {
          "internalType": "uint256",
          "name": "quantity",
          "type": "uint256"
        },
        {
          "internalType": "uint256",
          "name": "createdAt",
          "type": "uint256"
        },
        {
          "internalType": "address",
          "name": "producer",
          "type": "address"
        },
        {
          "internalType": "address",
          "name": "supplier",
          "type": "address"
        },
        {
          "internalType": "address",
          "name": "retailer",
          "type": "address"
        },
        {
          "internalType": "address",
          "name": "consumer",
          "type": "address"
        },
        {
          "internalType": "enum SupplyChain.ProductStatus",
          "name": "status",
          "type": "uint8"
        },
        {
          "internalType": "string",
          "name": "shippingInfo",
          "type": "string"
        }
      ],
      "stateMutability": "view",
      "type": "function"
    },
    {
      "inputs": [
        {
          "internalType": "uint256",
          "name": "_productId",
          "type": "uint256"
        }
      ],
      "name": "getProductExtended",
      "outputs": [
        {
          "internalType": "uint256",
          "name": "id",
          "type": "uint256"
        },
        {
          "internalType": "string",
          "name": "name",
          "type": "string"
        },
        {
          "internalType": "string",
          "name": "description",
          "type": "string"
        },
        {
          "internalType": "uint256",
          "name": "totalQuantity",
          "type": "uint256"
        },
        {
          "internalType": "uint256",
          "name": "availableQuantity",
          "type": "uint256"
        },
        {
          "internalType": "uint256",
          "name": "createdAt",
          "type": "uint256"
        },
        {
          "internalType": "address",
          "name": "producer",
          "type": "address"
        },
        {
          "internalType": "address",
          "name": "supplier",
          "type": "address"
        },
        {
          "internalType": "address",
          "name": "retailer",
          "type": "address"
        },
        {
          "internalType": "address",
          "name": "consumer",
          "type": "address"
        },
        {
          "internalType": "enum SupplyChain.ProductStatus",
          "name": "status",
          "type": "uint8"
        },
        {
          "internalType": "string",
          "name": "shippingInfo",
          "type": "string"
        },
        {
          "internalType": "uint256[]",
          "name": "quotationIds",
          "type": "uint256[]"
        },
        {
          "internalType": "bool",
          "name": "isFromQuotation",
          "type": "bool"
        },
        {
          "internalType": "uint256",
          "name": "sentToSupplierAt",
          "type": "uint256"
        },
        {
          "internalType": "uint256",
          "name": "receivedBySupplierAt",
          "type": "uint256"
        },
        {
          "internalType": "uint256",
          "name": "sentToRetailerAt",
          "type": "uint256"
        },
        {
          "internalType": "uint256",
          "name": "receivedByRetailerAt",
          "type": "uint256"
        },
        {
          "internalType": "uint256",
          "name": "addedToStoreAt",
          "type": "uint256"
        },
        {
          "internalType": "uint256",
          "name": "soldToConsumerAt",
          "type": "uint256"
        }
      ],
      "stateMutability": "view",
      "type": "function"
    },
    {
      "inputs": [
        {
          "internalType": "uint256",
          "name": "_productId",
          "type": "uint256"
        }
      ],
      "name": "getProductQuotations",
      "outputs": [
        {
          "internalType": "uint256[]",
          "name": "",
          "type": "uint256[]"
        }
      ],
      "stateMutability": "view",
      "type": "function"
    },
    {
      "inputs": [
        {
          "internalType": "uint256",
          "name": "_productId",
          "type": "uint256"
        }
      ],
      "name": "getProductStatus",
      "outputs": [
        {
          "internalType": "enum SupplyChain.ProductStatus",
          "name": "",
          "type": "uint8"
        }
      ],
      "stateMutability": "view",
      "type": "function"
    },
    {
      "inputs": [
        {
          "internalType": "uint256",
          "name": "_quotationId",
          "type": "uint256"
        }
      ],
      "name": "getQuotation",
      "outputs": [
        {
          "internalType": "uint256",
          "name": "id",
          "type": "uint256"
        },
        {
          "internalType": "address",
          "name": "consumer",
          "type": "address"
        },
        {
          "internalType": "string",
          "name": "productName",
          "type": "string"
        },
        {
          "internalType": "string",
          "name": "description",
          "type": "string"
        },
        {
          "internalType": "uint256",
          "name": "requestedQuantity",
          "type": "uint256"
        },
        {
          "internalType": "uint256",
          "name": "createdAt",
          "type": "uint256"
        },
        {
          "internalType": "enum SupplyChain.QuotationStatus",
          "name": "status",
          "type": "uint8"
        },
        {
          "internalType": "uint256",
          "name": "productId",
          "type": "uint256"
        }
      ],
      "stateMutability": "view",
      "type": "function"
    },
    {
      "inputs": [
        {
          "internalType": "address",
          "name": "_retailer",
          "type": "address"
        }
      ],
      "name": "getRetailerStoreProducts",
      "outputs": [
        {
          "internalType": "uint256[]",
          "name": "productIds",
          "type": "uint256[]"
        },
        {
          "internalType": "string[]",
          "name": "names",
          "type": "string[]"
        },
        {
          "internalType": "string[]",
          "name": "descriptions",
          "type": "string[]"
        },
        {
          "internalType": "uint256[]",
          "name": "totalQuantities",
          "type": "uint256[]"
        },
        {
          "internalType": "uint256[]",
          "name": "availableQuantities",
          "type": "uint256[]"
        }
      ],
      "stateMutability": "view",
      "type": "function"
    },
    {
      "inputs": [
        {
          "internalType": "uint256",
          "name": "_productId",
          "type": "uint256"
        },
        {
          "internalType": "address",
          "name": "_consumer",
          "type": "address"
        }
      ],
      "name": "isPurchaseAcknowledged",
      "outputs": [
        {
          "internalType": "bool",
          "name": "",
          "type": "bool"
        }
      ],
      "stateMutability": "view",
      "type": "function"
    },
    {
      "inputs": [
        {
          "internalType": "address",
          "name": "",
          "type": "address"
        }
      ],
      "name": "owners",
      "outputs": [
        {
          "internalType": "bool",
          "name": "",
          "type": "bool"
        }
      ],
      "stateMutability": "view",
      "type": "function"
    },
    {
      "inputs": [
        {
          "internalType": "address",
          "name": "",
          "type": "address"
        }
      ],
      "name": "producers",
      "outputs": [
        {
          "internalType": "bool",
          "name": "",
          "type": "bool"
        }
      ],
      "stateMutability": "view",
      "type": "function"
    },
    {
      "inputs": [],
      "name": "productCount",
      "outputs": [
        {
          "internalType": "uint256",
          "name": "",
          "type": "uint256"
        }
      ],
      "stateMutability": "view",
      "type": "function"
    },
    {
      "inputs": [
        {
          "internalType": "uint256",
          "name": "",
          "type": "uint256"
        }
      ],
      "name": "products",
      "outputs": [
        {
          "internalType": "uint256",
          "name": "id",
          "type": "uint256"
        },
        {
          "internalType": "string",
          "name": "name",
          "type": "string"
        },
        {
          "internalType": "string",
          "name": "description",
          "type": "string"
        },
        {
          "internalType": "uint256",
          "name": "totalQuantity",
          "type": "uint256"
        },
        {
          "internalType": "uint256",
          "name": "availableQuantity",
          "type": "uint256"
        },
        {
          "internalType": "uint256",
          "name": "createdAt",
          "type": "uint256"
        },
        {
          "internalType": "address",
          "name": "producer",
          "type": "address"
        },
        {
          "internalType": "address",
          "name": "supplier",
          "type": "address"
        },
        {
          "internalType": "address",
          "name": "retailer",
          "type": "address"
        },
        {
          "internalType": "address",
          "name": "consumer",
          "type": "address"
        },
        {
          "internalType": "enum SupplyChain.ProductStatus",
          "name": "status",
          "type": "uint8"
        },
        {
          "internalType": "string",
          "name": "shippingInfo",
          "type": "string"
        },
        {
          "internalType": "bool",
          "name": "isFromQuotation",
          "type": "bool"
        },
        {
          "internalType": "uint256",
          "name": "sentToSupplierAt",
          "type": "uint256"
        },
        {
          "internalType": "uint256",
          "name": "receivedBySupplierAt",
          "type": "uint256"
        },
        {
          "internalType": "uint256",
          "name": "sentToRetailerAt",
          "type": "uint256"
        },
        {
          "internalType": "uint256",
          "name": "receivedByRetailerAt",
          "type": "uint256"
        },
        {
          "internalType": "uint256",
          "name": "addedToStoreAt",
          "type": "uint256"
        },
        {
          "internalType": "uint256",
          "name": "soldToConsumerAt",
          "type": "uint256"
        }
      ],
      "stateMutability": "view",
      "type": "function"
    },
    {
      "inputs": [
        {
          "internalType": "uint256",
          "name": "_productId",
          "type": "uint256"
        },
        {
          "internalType": "uint256",
          "name": "_quantity",
          "type": "uint256"
        }
      ],
      "name": "purchaseFromSurplus",
      "outputs": [],
      "stateMutability": "nonpayable",
      "type": "function"
    },
    {
      "inputs": [],
      "name": "quotationCount",
      "outputs": [
        {
          "internalType": "uint256",
          "name": "",
          "type": "uint256"
        }
      ],
      "stateMutability": "view",
      "type": "function"
    },
    {
      "inputs": [
        {
          "internalType": "uint256",
          "name": "",
          "type": "uint256"
        }
      ],
      "name": "quotations",
      "outputs": [
        {
          "internalType": "uint256",
          "name": "id",
          "type": "uint256"
        },
        {
          "internalType": "address",
          "name": "consumer",
          "type": "address"
        },
        {
          "internalType": "string",
          "name": "productName",
          "type": "string"
        },
        {
          "internalType": "string",
          "name": "description",
          "type": "string"
        },
        {
          "internalType": "uint256",
          "name": "requestedQuantity",
          "type": "uint256"
        },
        {
          "internalType": "uint256",
          "name": "createdAt",
          "type": "uint256"
        },
        {
          "internalType": "enum SupplyChain.QuotationStatus",
          "name": "status",
          "type": "uint8"
        },
        {
          "internalType": "uint256",
          "name": "productId",
          "type": "uint256"
        }
      ],
      "stateMutability": "view",
      "type": "function"
    },
    {
      "inputs": [
        {
          "internalType": "uint256",
          "name": "_productId",
          "type": "uint256"
        }
      ],
      "name": "receiveProduct",
      "outputs": [],
      "stateMutability": "nonpayable",
      "type": "function"
    },
    {
      "inputs": [
        {
          "internalType": "uint256",
          "name": "_productId",
          "type": "uint256"
        }
      ],
      "name": "receiveProductFromSupplier",
      "outputs": [],
      "stateMutability": "nonpayable",
      "type": "function"
    },
    {
      "inputs": [
        {
          "internalType": "address",
          "name": "_consumer",
          "type": "address"
        }
      ],
      "name": "registerConsumer",
      "outputs": [],
      "stateMutability": "nonpayable",
      "type": "function"
    },
    {
      "inputs": [
        {
          "internalType": "address",
          "name": "_producer",
          "type": "address"
        }
      ],
      "name": "registerProducer",
      "outputs": [],
      "stateMutability": "nonpayable",
      "type": "function"
    },
    {
      "inputs": [
        {
          "internalType": "address",
          "name": "_retailer",
          "type": "address"
        }
      ],
      "name": "registerRetailer",
      "outputs": [],
      "stateMutability": "nonpayable",
      "type": "function"
    },
    {
      "inputs": [
        {
          "internalType": "address",
          "name": "_supplier",
          "type": "address"
        }
      ],
      "name": "registerSupplier",
      "outputs": [],
      "stateMutability": "nonpayable",
      "type": "function"
    },
    {
      "inputs": [
        {
          "internalType": "uint256",
          "name": "_quotationId",
          "type": "uint256"
        }
      ],
      "name": "rejectQuotation",
      "outputs": [],
      "stateMutability": "nonpayable",
      "type": "function"
    },
    {
      "inputs": [
        {
          "internalType": "address",
          "name": "_ownerToRemove",
          "type": "address"
        }
      ],
      "name": "removeOwner",
      "outputs": [],
      "stateMutability": "nonpayable",
      "type": "function"
    },
    {
      "inputs": [
        {
          "internalType": "address",
          "name": "",
          "type": "address"
        }
      ],
      "name": "retailers",
      "outputs": [
        {
          "internalType": "bool",
          "name": "",
          "type": "bool"
        }
      ],
      "stateMutability": "view",
      "type": "function"
    },
    {
      "inputs": [
        {
          "internalType": "uint256",
          "name": "",
          "type": "uint256"
        },
        {
          "internalType": "address",
          "name": "",
          "type": "address"
        }
      ],
      "name": "salesRecords",
      "outputs": [
        {
          "internalType": "uint256",
          "name": "",
          "type": "uint256"
        }
      ],
      "stateMutability": "view",
      "type": "function"
    },
    {
      "inputs": [
        {
          "internalType": "uint256",
          "name": "_productId",
          "type": "uint256"
        },
        {
          "internalType": "address",
          "name": "_consumer",
          "type": "address"
        },
        {
          "internalType": "uint256",
          "name": "_quantity",
          "type": "uint256"
        }
      ],
      "name": "sellToConsumer",
      "outputs": [],
      "stateMutability": "nonpayable",
      "type": "function"
    },
    {
      "inputs": [
        {
          "internalType": "uint256",
          "name": "_productId",
          "type": "uint256"
        },
        {
          "internalType": "address",
          "name": "_consumer",
          "type": "address"
        }
      ],
      "name": "sellToConsumerLegacy",
      "outputs": [],
      "stateMutability": "nonpayable",
      "type": "function"
    },
    {
      "inputs": [
        {
          "internalType": "uint256",
          "name": "_productId",
          "type": "uint256"
        },
        {
          "internalType": "address",
          "name": "_retailer",
          "type": "address"
        }
      ],
      "name": "sendToRetailer",
      "outputs": [],
      "stateMutability": "nonpayable",
      "type": "function"
    },
    {
      "inputs": [
        {
          "internalType": "uint256",
          "name": "_productId",
          "type": "uint256"
        },
        {
          "internalType": "address",
          "name": "_supplier",
          "type": "address"
        }
      ],
      "name": "sendToSupplier",
      "outputs": [],
      "stateMutability": "nonpayable",
      "type": "function"
    },
    {
      "inputs": [
        {
          "internalType": "address",
          "name": "",
          "type": "address"
        }
      ],
      "name": "suppliers",
      "outputs": [
        {
          "internalType": "bool",
          "name": "",
          "type": "bool"
        }
      ],
      "stateMutability": "view",
      "type": "function"
    },
    {
      "inputs": [
        {
          "internalType": "uint256",
          "name": "_productId",
          "type": "uint256"
        },
        {
          "internalType": "string",
          "name": "_shippingInfo",
          "type": "string"
        }
      ],
      "name": "updateShippingInfo",
      "outputs": [],
      "stateMutability": "nonpayable",
      "type": "function"
    }
  ],
  "bytecode": "0x60808060405234602e573360005260096020526040600020600160ff198254161790556146b190816100348239f35b600080fdfe6101e0604052600436101561001357600080fd5b60003560e01c80624c9e2114613b47578063022914a714613b085780630a23ba9c14613a145780630bf53668146139d55780630dea449b1461398d57806313f6b1bb14613938578063145a74b6146136f757806316dc15fe146136b8578063173825d9146135e857806326324eff146135a957806329d78328146134705780632d2c34c314611fd457806335fdf23f146125ab5780633c530ace146133f35780633db5a2341461333f57806344b22fdd146132c45780634a75c285146130345780634e89625814612fb257806355d234bd14612cca5780635d3ac73314612a13578063691787d6146125f857806369b28f18146125ab5780637065cb4814612524578063749d017f146123475780637acc0b20146121555780638120b9701461201c57806381a382c514611fd45780638345750b14611e185780638d291db714611dfa5780638e7b142f14611c865780638ec4412014611b115780639a268f3514611ad25780639d4368bc14611a84578063a83006da14611a09578063a9167c02146119b0578063b9db15b41461177d578063ba12032814611575578063c8718c9214611420578063ccbdf48e14610abc578063cf7f5e5f14610a41578063d992540914610904578063e0f6ef87146108e6578063f28ea1c1146102e95763fe814b011461020057600080fd5b346102e45760003660031901126102e45760075461021d816140cd565b9060009060015b8181111561027b575050610237816140cd565b9160005b82811061025c576040516020808252819061025890820187613db6565b0390f35b8061026960019284614124565b516102748287614124565b520161023b565b80600052600560205260ff6006604060002001541660048110156102ce57156102ad575b6102a8906140ff565b610224565b916102c681846102c06102a89488614124565b526140ff565b92905061029f565b634e487b7160e01b600052602160045260246000fd5b600080fd5b346102e4576102f73661404e565b919033600052600160205261031360ff60406000205416614340565b61031e6008546140ff565b80600855602093604051906103338683613d3f565b6000825260003681376040519361034985613d23565b8385528587860152604085015280606085015260808401524260a08401523360c0840152600060e08401526000610100840152600061012084015260006101408401526040516103998682613d3f565b6000815261016084015261018083015260006101a083015260006101c083015260006101e083015260006102008301526000610220830152600061024083015260006102608301526000526000835260406000209080518255838101518051906001600160401b0382116106c75781906104166001860154613ec4565b601f81116108b3575b508690601f831160011461084257600092610837575b50508160011b916000199060031b1c19161760018301555b60408101518051906001600160401b0382116106c75781906104726002860154613ec4565b601f8111610804575b508690601f831160011461079357600092610788575b50508160011b916000199060031b1c19161760028301555b606081015160038301556080810151600483015560a0810151600583015560c08101516006830180546001600160a01b03199081166001600160a01b039384161790915560e0830151600780860180548416928516929092179091556101008401516008860180548416918516919091179055610120840151600986018054909316931692909217815561014083015190918110156102ce5761054b9161431c565b600a82016101608201518051906001600160401b0382116106c75781906105728454613ec4565b601f811161074d575b508790601f83116001146106e8576000926106dd575b50508160011b916000199060031b1c19161790555b600b8201610180820151908151916001600160401b0383116106c757600160401b83116106c757869082548484558085106106aa575b5001906000528560002060005b838110610698578761068d888860126102608a61061c6101a08201511515600c86019060ff801983541691151516179055565b6101c0810151600d8501556101e0810151600e850155610200810151600f8501556102208101516010850155610240810151601185015501519101557faf6ffb6277511513e7d579327cc1fc57f0266df2fb11a60b13487b8c9cd2c388600854928392604051918291339083614653565b0390a2604051908152f35b825182820155918701916001016105e9565b6106c1908460005285846000209182019101614432565b886105dc565b634e487b7160e01b600052604160045260246000fd5b015190508780610591565b60008581528981209350601f198516905b8a82821061073757505090846001959493921061071e575b505050811b0190556105a6565b015160001960f88460031b161c19169055878080610711565b60018596829396860151815501950193016106f9565b610778908560005289600020601f850160051c8101918b861061077e575b601f0160051c0190614432565b8861057b565b909150819061076b565b015190508680610491565b92506002850160005286600020906000935b88601f19851686106107eb57506001945083601f198116106107d2575b505050811b0160028301556104a9565b015160001960f88460031b161c191690558680806107c2565b82820151845594850194600190930192909101906107a5565b610831906002870160005288600020601f850160051c8101918a861061077e57601f0160051c0190614432565b8761047b565b015190508680610435565b92506001850160005286600020906000935b88601f198516861061089a57506001945083601f19811610610881575b505050811b01600183015561044d565b015160001960f88460031b161c19169055868080610871565b8282015184559485019460019093019290910190610854565b6108e0906001870160005288600020601f850160051c8101918a861061077e57601f0160051c0190614432565b8761041f565b346102e45760003660031901126102e4576020600854604051908152f35b346102e45760203660031901126102e45760043533600052600360205261093260ff60406000205416614493565b80600052600060205261094b6040600020541515614138565b600081815260208190526040902060080154610971906001600160a01b031633146144ed565b80600052600060205260ff60096040600020015460a01c1660078110156102ce576004036109e957600081815260208190526040812060098101805460ff60a01b1916600560a01b179055426011909101557fed910afbb4f908c3787081c1d1df242d8cab386852b5e4553acbe05cdaf182cd9080a2005b60405162461bcd60e51b815260206004820152602a60248201527f50726f64756374206d75737420626520726563656976656420627920726574616044820152691a5b195c88199a5c9cdd60b21b6064820152608490fd5b346102e45760203660031901126102e457610a5a613dea565b336000526009602052610a7460ff604060002054166141ca565b6001600160a01b03166000818152600260205260408120805460ff191660011790557fbcffc870b52d3cb785b17c2c7426be70f9181ce49c43cc7b479ebcfac2d7a1c89080a2005b346102e45760403660031901126102e4576004356001600160401b0381116102e457610aec903690600401613ff1565b60243590336000526001602052610b0a60ff60406000205416614340565b8051156113cf57811561137c57600090602091604051610b2a8482613d3f565b81815291604051610b3b8582613d3f565b8281529282905b8251821015610ca757610b558284614124565b51938460005260058752610b6f604060002054151561439a565b846000526005875260ff600660406000200154169060048210156102ce57610b9a610bb192156143e6565b8560005260058852600460406000200154906145a1565b9482610c115750508260005260058552610bdb610be2600260406000200160405192838092613efe565b0382613d3f565b92600052600585526001610bdb610c06600360406000200160405192838092613efe565b915b01909392610b42565b91909360005260058652610bdb610c35600260406000200160405192838092613efe565b86815191012084518786012003610c4e57600190610c08565b60405162461bcd60e51b815260048101879052602b60248201527f416c6c2071756f746174696f6e73206d75737420626520666f7220746865207360448201526a185b59481c1c9bd91d58dd60aa1b6064820152608490fd5b939192869150811061131957610cbe6008546140ff565b908160085560405192610cd084613d23565b8284528587850152604084015280606084015260808301524260a08301523360c0830152600060e0830152600061010083015260006101208301526000610140830152604051610d208682613d3f565b600081526101608301528261018083015260016101a083015260006101c083015260006101e083015260006102008301526000610220830152600061024083015260006102608301526000526000845260406000209080518255848101518051906001600160401b0382116106c7578190610d9e6001860154613ec4565b601f81116112e6575b508790601f83116001146112755760009261126a575b50508160011b916000199060031b1c19161760018301555b60408101518051906001600160401b0382116106c7578190610dfa6002860154613ec4565b601f8111611237575b508790601f83116001146111c6576000926111bb575b50508160011b916000199060031b1c19161760028301555b606081015160038301556080810151600483015560a0810151600583015560c08101516006830180546001600160a01b03199081166001600160a01b039384161790915560e0830151600780860180548416928516929092179091556101008401516008860180548416918516919091179055610120840151600986018054909316931692909217815561014083015190918110156102ce57610ed39161431c565b6101608101518051906001600160401b0382116106c7578190610ef9600a860154613ec4565b601f8111611188575b508790601f83116001146111175760009261110c575b50508160011b916000199060031b1c191617600a8301555b600b8201610180820151908151916001600160401b0383116106c757600160401b83116106c757879082548484558085106110ef575b5001906000528660002060005b8381106110dd575050505061026081610fa46101a060129401511515600c86019060ff801983541691151516179055565b6101c0810151600d8501556101e0810151600e850155610200810151600f85015561022081015160108501556102408101516011850155015191015560005b815181101561106a5780610ff960019284614124565b516000526005855260066040600020018260ff198254161790556008546110208285614124565b516000526005865280600760406000200155339061103e8386614124565b517fe38405149811ec28641602f1965536956061a4c744bff36c72170e8bec04b9d7600080a401610fe3565b507faf6ffb6277511513e7d579327cc1fc57f0266df2fb11a60b13487b8c9cd2c38861068d600854938493847f751c8b103923dbfd5ec268f9c2d3f884f7270ee83c4cc3a8f08866204f8443c9604051898152806110cc33958c830190613db6565b0390a3604051918291339083614653565b82518282015591880191600101610f73565b611106908460005285846000209182019101614432565b89610f66565b015190508780610f18565b9250600a850160005287600020906000935b89601f198516861061116f57506001945083601f19811610611156575b505050811b01600a830155610f30565b015160001960f88460031b161c19169055878080611146565b8282015184559485019460019093019290910190611129565b6111b590600a870160005289600020601f850160051c8101918b861061077e57601f0160051c0190614432565b88610f02565b015190508780610e19565b92506002850160005287600020906000935b89601f198516861061121e57506001945083601f19811610611205575b505050811b016002830155610e31565b015160001960f88460031b161c191690558780806111f5565b82820151845594850194600190930192909101906111d8565b611264906002870160005289600020601f850160051c8101918b861061077e57601f0160051c0190614432565b88610e03565b015190508780610dbd565b92506001850160005287600020906000935b89601f19851686106112cd57506001945083601f198116106112b4575b505050811b016001830155610dd5565b015160001960f88460031b161c191690558780806112a4565b8282015184559485019460019093019290910190611287565b611313906001870160005289600020601f850160051c8101918b861061077e57601f0160051c0190614432565b88610da7565b60405162461bcd60e51b815260048101869052603560248201527f546f74616c207175616e74697479206d757374206265203e3d2073756d206f6660448201527420726571756573746564207175616e74697469657360581b6064820152608490fd5b60405162461bcd60e51b815260206004820152602560248201527f546f74616c207175616e74697479206d75737420626520677265617465722074604482015264068616e20360dc1b6064820152608490fd5b60405162461bcd60e51b815260206004820152602360248201527f4d75737420617070726f7665206174206c65617374206f6e652071756f74617460448201526234b7b760e91b6064820152608490fd5b346102e45760203660031901126102e45760043580600052600060205261144d6040600020541515614138565b6000818152600b602090815260408083203384529091529020541561151e576000818152600a6020908152604080832033845290915290205460ff166114d9576000818152600a602090815260408083203380855292528220805460ff1916600117905591907fea1755928f3c227165fb4f4379ffda43b68b005373f2fc6a2afc46eacf1f2f839080a3005b60405162461bcd60e51b815260206004820152601d60248201527f507572636861736520616c72656164792061636b6e6f776c65646765640000006044820152606490fd5b60405162461bcd60e51b815260206004820152602960248201527f4e6f207075726368617365207265636f726420666f756e6420666f72207468696044820152681cc81c1c9bd91d58dd60ba1b6064820152608490fd5b346102e45760403660031901126102e457600435611591613e00565b3360005260016020526115ab60ff60406000205416614340565b8160005260006020526115c46040600020541515614138565b8160005260006020523360018060a01b0360066040600020015416036117275781600052600060205260ff60096040600020015460a01c1660078110156102ce576116d8576001600160a01b031660008181526002602052604090205460ff161561169357600082815260208181526040918290206007810180546001600160a01b0319168517905560098101805460ff60a01b1916600160a01b17905542600d9091015590519182527f01b0f0e8876adb51c001ea8baae2aa3b6bdf8b3c42811817358cef1d56c0af0091a2005b60405162461bcd60e51b815260206004820152601860248201527f496e76616c696420737570706c696572206164647265737300000000000000006044820152606490fd5b60405162461bcd60e51b815260206004820152602160248201527f50726f64756374206d75737420626520696e20437265617465642073746174756044820152607360f81b6064820152608490fd5b60405162461bcd60e51b815260206004820152602860248201527f596f7520617265206e6f74207468652070726f6475636572206f662074686973604482015267081c1c9bd91d58dd60c21b6064820152608490fd5b346102e45760203660031901126102e45760043560005260006020526040600020604051906117ab82613d23565b80548252604051906117cb826117c48160018501613efe565b0383613d3f565b60208301918252604051926117ee846117e78160028601613efe565b0385613d3f565b6040810193845260038201546060820190815260048301546080830152600583015460a080840191825260068501546001600160a01b0390811660c08601908152600780880154831660e0880190815260088901548416610100890190815260098a01549485166101208a0190815297999698969761014088019790969195929493909290911c60ff16908110156102ce5786526012604051976118a08961189981600a8501613efe565b038a613d3f565b61016083019889526118b4600b820161417d565b610180840152600c81015460ff1615156101a0840152600d8101546101c0840152600e8101546101e0840152600f81015461020084015260108101546102208401526011810154610240840152015461026082015251985199519751965190519151925193519451956001600160a01b039586169594851694938416939092169160078710156102ce5751976040519a8b9a8b5260208b0161016090526101608b0161195f91613e16565b8a810360408c015261197091613e16565b9660608a0152608089015260a088015260c087015260e0860152610100850152610120840161199e91613eb7565b82810361014084015261025891613e16565b346102e45760403660031901126102e4576119c9613dea565b6001600160a01b03166000908152600660205260409020805460243591908210156102e4576020916119fa9161409f565b90549060031b1c604051908152f35b346102e45760203660031901126102e457611a22613dea565b336000526009602052611a3c60ff604060002054166141ca565b6001600160a01b03166000818152600360205260408120805460ff191660011790557f38fdd8eb5b0a95606a3c195a848b5d3fb08512d7b4160f0abfb19aa832bbed5f9080a2005b346102e45760203660031901126102e4576001600160a01b03611aa5613dea565b166000526006602052610258611abe604060002061417d565b604051918291602083526020830190613db6565b346102e45760203660031901126102e4576001600160a01b03611af3613dea565b166000526003602052602060ff604060002054166040519015158152f35b346102e45760403660031901126102e457600435602435816000526000602052611b416040600020541515614138565b81600052600060205260ff60096040600020015460a01c1660078110156102ce576005611b6e911461454a565b816000526000602052611b8b8160046040600020015410156145ae565b611b96811515614607565b8160005260006020526004604060002001611bb28282546145fa565b905560008281526020818152604080832060090180546001600160a01b03191633908117909155600b8352818420908452909152902080549091611bf5916145a1565b90556000818152600a602090815260408083203384528252808320805460ff191690558383529082905290206004015415611c57575b7fe3ea93cf6348155aedd9f5e3a1d8f1fd886a956f1401763612b9b694b3363e866020604051338152a2005b600081815260208190526040902060098101805460ff60a01b1916600360a11b17905542601290910155611c2b565b346102e45760403660031901126102e457600435611ca2613e00565b336000526003602052611cbc60ff60406000205416614493565b816000526000602052611cd56040600020541515614138565b600082815260208190526040902060080154611cfb906001600160a01b031633146144ed565b81600052600060205260ff60096040600020015460a01c1660078110156102ce577fe3ea93cf6348155aedd9f5e3a1d8f1fd886a956f1401763612b9b694b3363e8691611d4c60056020931461454a565b60008481528083526040808220600490810154878452838652828420909101839055868352828552818320600990810180546001600160a01b0319166001600160a01b0396909616958617905587845283865282842001805460ff60a01b1916600360a11b1790558683528285528183204260129190910155868352600b8552818320848452855281832055858252600a8452808220838352845290819020805460ff1916905551908152a2005b346102e45760003660031901126102e4576020600754604051908152f35b346102e45760403660031901126102e457600435611e34613e00565b336000526002602052611e4e60ff60406000205416614265565b816000526000602052611e676040600020541515614138565b600082815260208190526040902060070154611e8d906001600160a01b031633146142bf565b81600052600060205260ff60096040600020015460a01c1660078110156102ce57600203611f7c576001600160a01b031660008181526003602052604090205460ff1615611f3757600082815260208181526040918290206008810180546001600160a01b03191685179055600901805460ff60a01b1916600360a01b17905590519182527f91167d82f762420abffc44418508e57c6772d5991839c46a46e3ecdace56f59791a2005b60405162461bcd60e51b815260206004820152601860248201527f496e76616c69642072657461696c6572206164647265737300000000000000006044820152606490fd5b60405162461bcd60e51b815260206004820152602a60248201527f50726f64756374206d75737420626520726563656976656420627920737570706044820152691b1a595c88199a5c9cdd60b21b6064820152608490fd5b346102e45760403660031901126102e457611fed613e00565b600435600052600b60205260406000209060018060a01b03166000526020526020604060002054604051908152f35b346102e45760203660031901126102e45760043533600052600360205261204a60ff60406000205416614493565b8060005260006020526120636040600020541515614138565b600081815260208190526040902060080154612089906001600160a01b031633146144ed565b80600052600060205260ff60096040600020015460a01c1660078110156102ce5760030361210157600081815260208190526040812060098101805460ff60a01b1916600160a21b179055426010909101557f21c4402dd4a1ebff6d7fb038f59a4fbdb8f8b1a618e6205e815677045d686d889080a2005b60405162461bcd60e51b815260206004820152602660248201527f50726f64756374206d7573742062652073656e7420746f2072657461696c657260448201526508199a5c9cdd60d21b6064820152608490fd5b346102e45760203660031901126102e4576004356000526000602052604060002080549060405160e05260e05160e051600183019061219391613efe565b0360e051906121a191613d3f565b6040516101008190526121b78160028401613efe565b0361010051906121c691613d3f565b60038101546004820154600583015460068401546007850154600886015460098701546040516001600160a01b039485169997909490939192811691168461221181600a8c01613efe565b0361221c9086613d3f565b600c89015460ff1660a052600d89015499600e8a015496600f8b01549860108c01549a60118d01549c6012015460805260405160c05260c0515260c051602001610260905260c0516102600160e0519061227591613e16565b60c051810360c05160400152610100519061228f91613e16565b9660c0516060015260c0516080015260c05160a0015260c05160c0015260c05160e0015260c0516101000152600160a01b60019003811660c051610120015260c051610140019060a01c60ff16906122e691613eb7565b60c051810360c05161016001526122fc91613e16565b9460a051151560c051610180015260c0516101a0015260c0516101c0015260c0516101e0015260c051610200015260c051610220015260805160c051610240015260c051900360c051f35b346102e45760603660031901126102e457600435612363613e00565b6044359033600052600360205261238160ff60406000205416614493565b82600052600060205261239a6040600020541515614138565b6000838152602081905260409020600801546123c0906001600160a01b031633146144ed565b82600052600060205260ff60096040600020015460a01c169060078210156102ce577fe3ea93cf6348155aedd9f5e3a1d8f1fd886a956f1401763612b9b694b3363e869261241260056020941461454a565b846000526000835261242e8160046040600020015410156145ae565b612439811515614607565b846000526000835260046040600020016124548282546145fa565b90556000858152808452604080822060090180546001600160a01b0319166001600160a01b038616908117909155878352600b865281832090835285529020805490916124a0916145a1565b90556000848152600a835260408082206001600160a01b03841683528452808220805460ff19169055858252818452902060040154156124ee575b6040516001600160a01b039091168152a2005b60008481528083526040808220600901805460ff60a01b1916600360a11b179055858252818452902042601291909101556124db565b346102e45760203660031901126102e45761253d613dea565b33600052600960205261255760ff604060002054166141ca565b6001600160a01b031661256b811515614221565b8060005260096020526040600020600160ff198254161790557f994a936646fe87ffe4f1e469d3d6aa417d6b855598397f323de5b449f765f0c3600080a2005b346102e45760403660031901126102e4576125c4613e00565b600435600052600a60205260406000209060018060a01b0316600052602052602060ff604060002054166040519015158152f35b346102e4576126063661404e565b919082156129bc57815115612977576126206007546140ff565b90816007556040519061263282613d07565b828252336020808401918252604080850187815260608601948552608086018981524260a08801908152600060c0890181815260e08a018281529a82526005909652939093209651875593516001870180546001600160a01b0319166001600160a01b0392909216919091179055518051929491939260028701916001600160401b0382116106c75781906126c78454613ec4565b601f8111612945575b50602090601f83116001146128e0576000926128d5575b50508160011b916000199060031b1c19161790555b51805160038601916001600160401b0382116106c757819061271e8454613ec4565b601f81116128a3575b50602090601f831160011461283e57600092612833575b50508160011b916000199060031b1c19161790555b5160048401555160058301556006820190519260048410156102ce5760079160009460ff80198354169116179055519101553381526006602052604081209060075491805491600160401b83101561281f5760207fe7615ede87763582d8f9f8808ac87ec98f892b6d243f1463c721298038c666418787876127db888860018201815561409f565b819291549060031b91821b91600019901b191617905560075492839161280c60405191604083526040830190613e16565b93868201528033940390a3604051908152f35b634e487b7160e01b81526041600452602490fd5b015190508a8061273e565b60008581528281209350601f198516905b81811061288b5750908460019594939210612872575b505050811b019055612753565b015160001960f88460031b161c191690558a8080612865565b9293602060018192878601518155019501930161284f565b6128cf90856000526020600020601f850160051c8101916020861061077e57601f0160051c0190614432565b8b612727565b015190508b806126e7565b60008581528281209350601f198516905b81811061292d5750908460019594939210612914575b505050811b0190556126fc565b015160001960f88460031b161c191690558b8080612907565b929360206001819287860151815501950193016128f1565b61297190856000526020600020601f850160051c8101916020861061077e57601f0160051c0190614432565b8c6126d0565b60405162461bcd60e51b815260206004820152601c60248201527f50726f64756374206e616d652063616e6e6f7420626520656d707479000000006044820152606490fd5b60405162461bcd60e51b815260206004820152602960248201527f526571756573746564207175616e74697479206d75737420626520677265617460448201526806572207468616e20360bc1b6064820152608490fd5b346102e45760403660031901126102e4576004356024356001600160401b0381116102e457612a46903690600401613ff1565b336000526003602052612a6060ff60406000205416614493565b816000526000602052612a796040600020541515614138565b600082815260208190526040902060080154612a9f906001600160a01b031633146144ed565b81600052600060205260ff60096040600020015460a01c1660078110156102ce576005612acc911461454a565b600091825b8251841015612bf757612ae48484614124565b51806000526005602052612afe604060002054151561439a565b80600052600560205260ff6006604060002001541660048110156102ce57600103612bb2578060005260056020528260076040600020015403612b6157600191612b59916000526005602052600460406000200154906145a1565b930192612ad1565b60405162461bcd60e51b8152602060048201526024808201527f51756f746174696f6e206e6f74206c696e6b656420746f20746869732070726f604482015263191d58dd60e21b6064820152608490fd5b60405162461bcd60e51b815260206004820152601a60248201527f51756f746174696f6e206d75737420626520617070726f7665640000000000006044820152606490fd5b612c15839183600052600060205260046040600020015410156145ae565b60005b8151811015612cc05780612c2e60019284614124565b518060005260056020526006604060002001600360ff19825416179055806000526005602052600460406000200154856000526000602052612c7960046040600020019182546145fa565b905580600052600560205284838060a01b03846040600020015416917f69c8c9ccba86b5a238cbc9e691e0835348f6abc27c4e0602e889d05dc816da2c600080a401612c18565b6000838152602052005b346102e45760203660031901126102e457612ce3613dea565b60085490612cf0826140cd565b612cf983614449565b612d0284614449565b612d0b856140cd565b94612d15816140cd565b9060009560015b82811115612e4b57505050612d30856140cd565b94612d3a81614449565b91612d4482614449565b93612d4e836140cd565b95612d58846140cd565b9760005b858110612dc357612d8b8b6102588c612db58d612da78e612d998f604051998a9960a08b5260a08b0190613db6565b9089820360208b0152613f81565b908782036040890152613f81565b908582036060870152613db6565b908382036080850152613db6565b80612e23818e8e612de183612dda6001988a614124565b5192614124565b52612dec8288614124565b51612df7838d614124565b52612e02828c614124565b508b612e1283612dda818c614124565b52612e1d828d614124565b50614124565b51612e2e828c614124565b52612e398187614124565b51612e44828d614124565b5201612d5c565b806000526000602052604060002054151580612f8c575b80612f62575b80612f48575b612e81575b612e7c906140ff565b612d1c565b96612f408189612e94612e7c948b614124565b52896000526000602052610bdb612eb8600160406000200160405192838092613efe565b612ec2828a614124565b52612ecd8189614124565b50896000526000602052610bdb612ef1600260406000200160405192838092613efe565b612efb8289614124565b52612f068188614124565b50896000526000602052600360406000200154612f23828d614124565b528960005260006020526004604060002001546102c08288614124565b979050612e73565b508060005260006020526004604060002001541515612e6e565b5080600052600060205260ff60096040600020015460a01c1660078110156102ce57600514612e68565b506000818152602081905260409020600801546001600160a01b03838116911614612e62565b346102e45760203660031901126102e45760043560005260056020526040600020805461025860018060a01b036001840154169260405190612ffb826117c48160028501613efe565b60405161300f81610bdb8160038601613efe565b6004820154600583015491600760ff6006860154169401549460405198899889613e57565b346102e45760403660031901126102e4576004356024356001600160401b0381116102e457613067903690600401613d60565b9033600052600260205261308260ff60406000205416614265565b80600052600060205261309b6040600020541515614138565b6000818152602081905260409020600701546130c1906001600160a01b031633146142bf565b80600052600060205260ff60096040600020015460a01c1660078110156102ce57600214801561329a575b1561325c57806000526000602052600a604060002001918051926001600160401b0384116106c75761311e8154613ec4565b601f811161322a575b50602093601f81116001146131a057908161319093927f45eb2a65b0af2ef9e3cf2d800ea946cf7f32cc5b7d57c129e52f2a217fe521239596600091613195575b508160011b916000199060031b1c19161790555b604051918291602083526020830190613e16565b0390a2005b905083015187613168565b601f19811682600052856000209060005b8181106132125750916001917f45eb2a65b0af2ef9e3cf2d800ea946cf7f32cc5b7d57c129e52f2a217fe52123969782613190979695106131f9575b5050811b01905561317c565b85015160001960f88460031b161c1916905587806131ed565b858801518355602097880197600190930192016131b1565b61325690826000526020600020601f870160051c8101916020881061077e57601f0160051c0190614432565b84613127565b60405162461bcd60e51b8152602060048201526016602482015275496e76616c69642070726f647563742073746174757360501b6044820152606490fd5b5080600052600060205260ff60096040600020015460a01c1660078110156102ce576003146130ec565b346102e45760203660031901126102e4576132dd613dea565b3360005260096020526132f760ff604060002054166141ca565b6001600160a01b03166000818152600460205260408120805460ff191660011790557f20f06cf92183fb3bd87d074ec788beb83367293faf2388c274b4bad9aecae7259080a2005b346102e45760203660031901126102e45760043533600052600160205261336d60ff60406000205416614340565b806000526005602052613386604060002054151561439a565b80600052600560205260ff6006604060002001541660048110156102ce576133ae90156143e6565b8060005260056020526006604060002001600260ff1982541617905533907f096381c6a39294c93c86842360d584ff7238ffb75adc43566e588b5320fd0443600080a3005b346102e45760203660031901126102e45761340c613dea565b33600052600960205261342660ff604060002054166141ca565b6001600160a01b031660008181526001602081905260408220805460ff191690911790557f523dd2bfefd64323042504bb6d7886a60e66bef86e7379de81fc45837853c3fa9080a2005b346102e45760203660031901126102e45760043533600052600260205261349e60ff60406000205416614265565b8060005260006020526134b76040600020541515614138565b6000818152602081905260409020600701546134dd906001600160a01b031633146142bf565b80600052600060205260ff60096040600020015460a01c1660078110156102ce5760010361355557600081815260208190526040812060098101805460ff60a01b1916600160a11b17905542600e909101557fc7428d66281c5b2ce8456a9d4979a4dd51f4a2f95a6e8124350d927d924f715f9080a2005b60405162461bcd60e51b815260206004820152602660248201527f50726f64756374206d7573742062652073656e7420746f20737570706c69657260448201526508199a5c9cdd60d21b6064820152608490fd5b346102e45760203660031901126102e4576001600160a01b036135ca613dea565b166000526001602052602060ff604060002054166040519015158152f35b346102e45760203660031901126102e457613601613dea565b33600052600960205261361b60ff604060002054166141ca565b6001600160a01b031661362f811515614221565b33811461367357806000526009602052604060002060ff1981541690557f58619076adf5bb0943d100ef88d52d7c3fd691b19d3a9071b555b651fbf418da600080a2005b60405162461bcd60e51b815260206004820152601860248201527f4f776e65722063616e6e6f742072656d6f76652073656c6600000000000000006044820152606490fd5b346102e45760203660031901126102e4576001600160a01b036136d9613dea565b166000526002602052602060ff604060002054166040519015158152f35b346102e45760203660031901126102e457600435600052600060205260406000208054906040516101a0526101a0516101a051600183019061373891613efe565b036101a0519061374791613d3f565b6040516101c081905261375d8160028401613efe565b036101c0519061376c91613d3f565b60038101546004820154600583015460068401546007850154600886015460098701546040519498966001600160a01b0394851695949093919281169116846137b881600a8c01613efe565b036137c39086613d3f565b6137cf600b8a0161417d565b95600c8a015460ff1661018052600d8a01549a600e8b015498600f8c01549a60108d01549c601181015461012052601201546101405260405161016052610160515261016051602001610280905261016051610280016101a0519061383391613e16565b61016051810361016051604001526101c0519061384f91613e16565b96610160516060015261016051608001526101605160a001526101605160c001526101605160e00152610160516101000152600160a01b60019003811661016051610120015261016051610140019060a01c60ff16906138ae91613eb7565b6101605181036101605161016001526138c691613e16565b6101605181036101605161018001526138de91613db6565b93610180511515610160516101a00152610160516101c00152610160516101e00152610160516102000152610160516102200152610120516101605161024001526101405161016051610260015261016051900361016051f35b346102e45760203660031901126102e4576004358060005260006020526139656040600020541515614138565b6000526000602052602060ff60096040600020015460a01c1661398b6040518092613eb7565bf35b346102e45760203660031901126102e4576004358060005260006020526139ba6040600020541515614138565b6000526000602052610258611abe600b60406000200161417d565b346102e45760203660031901126102e4576001600160a01b036139f6613dea565b166000526004602052602060ff604060002054166040519015158152f35b346102e45760203660031901126102e45760043560005260056020526040600020604051613a4181613d07565b8154815260018201546001600160a01b03166020820190815260405192909190613a72846117e78160028501613efe565b6040820193845260405190613a8e826117c48160038501613efe565b6060830191825260048101549060808401918252600581015460a0850190815260ff60068301541660c086019260048210156102ce579083526007015460e0860190815294519551965193519251905191516001600160a01b03909716969260048410156102ce5761025895519460405198899889613e57565b346102e45760203660031901126102e4576001600160a01b03613b29613dea565b166000526009602052602060ff604060002054166040519015158152f35b346102e45760203660031901126102e4576004356001600160401b0381116102e457613b77903690600401613d60565b60085490613b84826140cd565b91613b8e816140cd565b9160009160015b81811115613c1d57505050613ba9816140cd565b91613bb3826140cd565b9360005b838110613be857613bda8561025888604051938493604085526040850190613db6565b908382036020850152613db6565b80613bf560019284614124565b51613c008288614124565b52613c0b8185614124565b51613c168289614124565b5201613bb7565b806000526000602052604060002054151580613cdd575b80613cc3575b80613c8b575b613c53575b613c4e906140ff565b613b95565b92613c838185613c66613c4e948a614124565b528560005260006020526004604060002001546102c08289614124565b939050613c45565b50806000526000602052610bdb613caf600160406000200160405192838092613efe565b602081519101208351602085012014613c40565b508060005260006020526004604060002001541515613c3a565b5080600052600060205260ff60096040600020015460a01c1660078110156102ce57600514613c34565b61010081019081106001600160401b038211176106c757604052565b61028081019081106001600160401b038211176106c757604052565b90601f801991011681019081106001600160401b038211176106c757604052565b81601f820112156102e4578035906001600160401b0382116106c75760405192613d94601f8401601f191660200185613d3f565b828452602083830101116102e457816000926020809301838601378301015290565b906020808351928381520192019060005b818110613dd45750505090565b8251845260209384019390920191600101613dc7565b600435906001600160a01b03821682036102e457565b602435906001600160a01b03821682036102e457565b919082519283825260005b848110613e42575050826000602080949584010152601f8019910116010190565b80602080928401015182828601015201613e21565b9498979695939192613e9793613e8992875260018060a01b031660208701526101006040870152610100860190613e16565b908482036060860152613e16565b95608083015260a082015260048210156102ce5760e09160c08201520152565b9060078210156102ce5752565b90600182811c92168015613ef4575b6020831014613ede57565b634e487b7160e01b600052602260045260246000fd5b91607f1691613ed3565b60009291815491613f0e83613ec4565b8083529260018116908115613f645750600114613f2a57505050565b60009081526020812093945091925b838310613f4a575060209250010190565b600181602092949394548385870101520191019190613f39565b915050602093945060ff929192191683830152151560051b010190565b9080602083519182815201916020808360051b8301019401926000915b838310613fad57505050505090565b9091929394602080613fcb600193601f198682030187528951613e16565b97019301930191939290613f9e565b6001600160401b0381116106c75760051b60200190565b9080601f830112156102e457813561400881613fda565b926140166040519485613d3f565b81845260208085019260051b8201019283116102e457602001905b82821061403e5750505090565b8135815260209182019101614031565b9060606003198301126102e4576004356001600160401b0381116102e4578261407991600401613d60565b91602435906001600160401b0382116102e45761409891600401613d60565b9060443590565b80548210156140b75760005260206000200190600090565b634e487b7160e01b600052603260045260246000fd5b906140d782613fda565b6140e46040519182613d3f565b82815280926140f5601f1991613fda565b0190602036910137565b600019811461410e5760010190565b634e487b7160e01b600052601160045260246000fd5b80518210156140b75760209160051b010190565b1561413f57565b60405162461bcd60e51b8152602060048201526016602482015275141c9bd91d58dd08191bd95cc81b9bdd08195e1a5cdd60521b6044820152606490fd5b906040519182815491828252602082019060005260206000209260005b8181106141b15750506141af92500383613d3f565b565b845483526001948501948794506020909301920161419a565b156141d157565b60405162461bcd60e51b815260206004820152602260248201527f4f6e6c79206f776e65722063616e20706572666f726d2074686973206163746960448201526137b760f11b6064820152608490fd5b1561422857565b60405162461bcd60e51b8152602060048201526015602482015274496e76616c6964206f776e6572206164647265737360581b6044820152606490fd5b1561426c57565b60405162461bcd60e51b815260206004820152602560248201527f4f6e6c7920737570706c6965722063616e20706572666f726d2074686973206160448201526431ba34b7b760d91b6064820152608490fd5b156142c657565b60405162461bcd60e51b815260206004820152602860248201527f596f7520617265206e6f742074686520737570706c696572206f662074686973604482015267081c1c9bd91d58dd60c21b6064820152608490fd5b9060078110156102ce57815460ff60a01b191660a09190911b60ff60a01b16179055565b1561434757565b60405162461bcd60e51b815260206004820152602560248201527f4f6e6c792070726f64756365722063616e20706572666f726d2074686973206160448201526431ba34b7b760d91b6064820152608490fd5b156143a157565b60405162461bcd60e51b815260206004820152601860248201527f51756f746174696f6e20646f6573206e6f7420657869737400000000000000006044820152606490fd5b156143ed57565b60405162461bcd60e51b815260206004820152601960248201527f51756f746174696f6e206d7573742062652070656e64696e67000000000000006044820152606490fd5b81811061443d575050565b60008155600101614432565b9061445382613fda565b6144606040519182613d3f565b8281528092614471601f1991613fda565b019060005b82811061448257505050565b806060602080938501015201614476565b1561449a57565b60405162461bcd60e51b815260206004820152602560248201527f4f6e6c792072657461696c65722063616e20706572666f726d2074686973206160448201526431ba34b7b760d91b6064820152608490fd5b156144f457565b60405162461bcd60e51b815260206004820152602860248201527f596f7520617265206e6f74207468652072657461696c6572206f662074686973604482015267081c1c9bd91d58dd60c21b6064820152608490fd5b1561455157565b60405162461bcd60e51b815260206004820152602260248201527f50726f64756374206d75737420626520617661696c61626c6520666f722073616044820152616c6560f01b6064820152608490fd5b9190820180921161410e57565b156145b557565b60405162461bcd60e51b815260206004820152601f60248201527f496e73756666696369656e7420617661696c61626c65207175616e74697479006044820152606490fd5b9190820391821161410e57565b1561460e57565b60405162461bcd60e51b815260206004820152601f60248201527f5175616e74697479206d7573742062652067726561746572207468616e2030006044820152606490fd5b9061466b602091949394604084526040840190613e16565b6001600160a01b0390941691015256fea2646970667358221220c74a7b828a5d698ad96e22033b525a2728f4ef1afd0ef348a59d7dc8383ffefd64736f6c634300081c0033",
  "linkReferences": {},
  "deployedLinkReferences": {},
  "uiAddresses": {
    "owner": "0xf39Fd6e51aad88F6F4ce6aB8827279cffFb92266",
    "producers": [
      "0x70997970C51812dc3A010C7d01b50e0d17dc79C8",
      "0x9965507D1a55bcC2695C58ba16FB37d819B0A4dc",
      "0xa0Ee7A142d267C1f36714E4a8F75612F20a79720"
    ],
    "suppliers": [
      "0x3C44CdDdB6a900fa2b585dd299e03d12FA4293BC",
      "0x976EA74026E726554dB657fA54763abd0C3a0aa9",
      "0xBcd4042DE499D14e55001CcbB24a551F3b954096"
    ],
    "retailers": [
      "0x90F79bf6EB2c4f870365E785982E1f101E93b906",
      "0x14dC79964da2C08b23698B3D3cc7Ca32193d9955",
      "0x71bE63f3384f5fb98995898A86B02Fb2426c5788"
    ],
    "consumers": [
      "0x15d34AAf54267DB7D7c367839AAf71A00a2C6A65",
      "0x23618e81E3f5cdF7f54C3d65f7FBc0aBf5B21E8f",
      "0xFABB0ac9d68B0B445fB7357272Ff202C5651694a"
    ],
    "extra": [
      "0x1CBd3b2770909D4e10f157cABC84C7264073C9Ec",
      "0xdF3e18d64BC6A983f673Ab319CCaE4f1a57C7097",
      "0xcd3B766CCDd6AE721141F452C550Ca635964ce71",
      "0x2546BcD3c84621e976D8185a91A922aE77ECEc30",
      "0xbDA5747bFD65F08deb54cb465eB87D40e51B197E",
      "0xdD2FD4581271e230360230F9337D5c0430Bf44C0",
      "0x8626f6940E2eb28930eFb4CeF49B2d1F2C9C1199"
    ],
    "metamask": [
      "0x7D0A9C42B9953A1Adc0A8a15a6a66bB489994E57",
      "0x44DA5566ef04234363B4882d856D590ab435096e",
      "0x933d4350BCA858e6De702A929878a413352885d8",
      "0x2fa965d296F182848588F9A3Ed97AF2E9fdF2d76",
      "0xB6Ce9Af39c7CA87F179666C05204d72516649dfC",
      "0x5560e14d290bc0459cA186b647637238dDE2cdFb",
      "0x8567da95C79EfCD36f953478D4f3AdEC117ae179",
      "0x24dC4ef5604ee51c616c1a7F42906F44CF196afE",
      "0xE5A1385f95ACd5caD8192fb82F13F065aeBA86Cc",
      "0xd51c949838F9e35851b5C9be3f6309101B0687C2",
      "0x984E3ea2679d8Febc93D0C885712158deBcef02e",
      "0x171c52193664A2c624c5551C442A8bbde2D3a93e",
      "0xC693c588981179b5e3F951e12C38E74EA6082d1c",
      "0x34E817073401Aaa0f21215d769Cd9e3500B2e69e",
      "0x423536D127f738b31999B2259d1FF842C2d47080"
    ],
    "metamaskOwners": [
      "0x7D0A9C42B9953A1Adc0A8a15a6a66bB489994E57"
    ],
    "metamaskProducers": [
      "0x44DA5566ef04234363B4882d856D590ab435096e",
      "0x933d4350BCA858e6De702A929878a413352885d8"
    ],
    "metamaskSuppliers": [
      "0x2fa965d296F182848588F9A3Ed97AF2E9fdF2d76",
      "0xB6Ce9Af39c7CA87F179666C05204d72516649dfC"
    ],
    "metamaskRetailers": [
      "0x5560e14d290bc0459cA186b647637238dDE2cdFb",
      "0x8567da95C79EfCD36f953478D4f3AdEC117ae179"
    ],
    "metamaskConsumers": [
      "0x24dC4ef5604ee51c616c1a7F42906F44CF196afE",
      "0xE5A1385f95ACd5caD8192fb82F13F065aeBA86Cc",
      "0xd51c949838F9e35851b5C9be3f6309101B0687C2",
      "0x984E3ea2679d8Febc93D0C885712158deBcef02e",
      "0x171c52193664A2c624c5551C442A8bbde2D3a93e",
      "0xC693c588981179b5e3F951e12C38E74EA6082d1c",
      "0x34E817073401Aaa0f21215d769Cd9e3500B2e69e",
      "0x423536D127f738b31999B2259d1FF842C2d47080"
    ]
  }
}