{
  "_format": "hh-sol-artifact-1",
  "contractName": "SupplyChain",
  "sourceName": "contracts/SupplyChain.sol",
  "abi": [
    {
      "inputs": [],
      "stateMutability": "nonpayable",
      "type": "constructor"
    },
    {
      "anonymous": false,
      "inputs": [
        {
          "indexed": true,
          "internalType": "uint256",
          "name": "productId",
          "type": "uint256"
        }
      ],
      "name": "ProductAddedToStore",
      "type": "event"
    },
    {
      "anonymous": false,
      "inputs": [
        {
          "indexed": true,
          "internalType": "uint256",
          "name": "productId",
          "type": "uint256"
        },
        {
          "indexed": false,
          "internalType": "string",
          "name": "name",
          "type": "string"
        },
        {
          "indexed": false,
          "internalType": "address",
          "name": "producer",
          "type": "address"
        }
      ],
      "name": "ProductCreated",
      "type": "event"
    },
    {
      "anonymous": false,
      "inputs": [
        {
          "indexed": true,
          "internalType": "uint256",
          "name": "productId",
          "type": "uint256"
        }
      ],
      "name": "ProductReceivedByRetailer",
      "type": "event"
    },
    {
      "anonymous": false,
      "inputs": [
        {
          "indexed": true,
          "internalType": "uint256",
          "name": "productId",
          "type": "uint256"
        }
      ],
      "name": "ProductReceivedBySupplier",
      "type": "event"
    },
    {
      "anonymous": false,
      "inputs": [
        {
          "indexed": true,
          "internalType": "uint256",
          "name": "productId",
          "type": "uint256"
        },
        {
          "indexed": false,
          "internalType": "address",
          "name": "retailer",
          "type": "address"
        }
      ],
      "name": "ProductSentToRetailer",
      "type": "event"
    },
    {
      "anonymous": false,
      "inputs": [
        {
          "indexed": true,
          "internalType": "uint256",
          "name": "productId",
          "type": "uint256"
        },
        {
          "indexed": false,
          "internalType": "address",
          "name": "supplier",
          "type": "address"
        }
      ],
      "name": "ProductSentToSupplier",
      "type": "event"
    },
    {
      "anonymous": false,
      "inputs": [
        {
          "indexed": true,
          "internalType": "uint256",
          "name": "productId",
          "type": "uint256"
        },
        {
          "indexed": false,
          "internalType": "address",
          "name": "consumer",
          "type": "address"
        }
      ],
      "name": "ProductSoldToConsumer",
      "type": "event"
    },
    {
      "anonymous": false,
      "inputs": [
        {
          "indexed": true,
          "internalType": "uint256",
          "name": "productId",
          "type": "uint256"
        },
        {
          "indexed": false,
          "internalType": "string",
          "name": "shippingInfo",
          "type": "string"
        }
      ],
      "name": "ShippingInfoUpdated",
      "type": "event"
    },
    {
      "inputs": [
        {
          "internalType": "string",
          "name": "_name",
          "type": "string"
        },
        {
          "internalType": "string",
          "name": "_description",
          "type": "string"
        },
        {
          "internalType": "uint256",
          "name": "_quantity",
          "type": "uint256"
        }
      ],
      "name": "addProduct",
      "outputs": [
        {
          "internalType": "uint256",
          "name": "",
          "type": "uint256"
        }
      ],
      "stateMutability": "nonpayable",
      "type": "function"
    },
    {
      "inputs": [
        {
          "internalType": "uint256",
          "name": "_productId",
          "type": "uint256"
        }
      ],
      "name": "addToStore",
      "outputs": [],
      "stateMutability": "nonpayable",
      "type": "function"
    },
    {
      "inputs": [
        {
          "internalType": "uint256",
          "name": "_productId",
          "type": "uint256"
        }
      ],
      "name": "getProduct",
      "outputs": [
        {
          "internalType": "uint256",
          "name": "id",
          "type": "uint256"
        },
        {
          "internalType": "string",
          "name": "name",
          "type": "string"
        },
        {
          "internalType": "string",
          "name": "description",
          "type": "string"
        },
        {
          "internalType": "uint256",
          "name": "quantity",
          "type": "uint256"
        },
        {
          "internalType": "uint256",
          "name": "createdAt",
          "type": "uint256"
        },
        {
          "internalType": "address",
          "name": "producer",
          "type": "address"
        },
        {
          "internalType": "address",
          "name": "supplier",
          "type": "address"
        },
        {
          "internalType": "address",
          "name": "retailer",
          "type": "address"
        },
        {
          "internalType": "address",
          "name": "consumer",
          "type": "address"
        },
        {
          "internalType": "enum SupplyChain.ProductStatus",
          "name": "status",
          "type": "uint8"
        },
        {
          "internalType": "string",
          "name": "shippingInfo",
          "type": "string"
        }
      ],
      "stateMutability": "view",
      "type": "function"
    },
    {
      "inputs": [
        {
          "internalType": "uint256",
          "name": "_productId",
          "type": "uint256"
        }
      ],
      "name": "getProductStatus",
      "outputs": [
        {
          "internalType": "enum SupplyChain.ProductStatus",
          "name": "",
          "type": "uint8"
        }
      ],
      "stateMutability": "view",
      "type": "function"
    },
    {
      "inputs": [],
      "name": "owner",
      "outputs": [
        {
          "internalType": "address",
          "name": "",
          "type": "address"
        }
      ],
      "stateMutability": "view",
      "type": "function"
    },
    {
      "inputs": [
        {
          "internalType": "address",
          "name": "",
          "type": "address"
        }
      ],
      "name": "producers",
      "outputs": [
        {
          "internalType": "bool",
          "name": "",
          "type": "bool"
        }
      ],
      "stateMutability": "view",
      "type": "function"
    },
    {
      "inputs": [],
      "name": "productCount",
      "outputs": [
        {
          "internalType": "uint256",
          "name": "",
          "type": "uint256"
        }
      ],
      "stateMutability": "view",
      "type": "function"
    },
    {
      "inputs": [
        {
          "internalType": "uint256",
          "name": "",
          "type": "uint256"
        }
      ],
      "name": "products",
      "outputs": [
        {
          "internalType": "uint256",
          "name": "id",
          "type": "uint256"
        },
        {
          "internalType": "string",
          "name": "name",
          "type": "string"
        },
        {
          "internalType": "string",
          "name": "description",
          "type": "string"
        },
        {
          "internalType": "uint256",
          "name": "quantity",
          "type": "uint256"
        },
        {
          "internalType": "uint256",
          "name": "createdAt",
          "type": "uint256"
        },
        {
          "internalType": "address",
          "name": "producer",
          "type": "address"
        },
        {
          "internalType": "address",
          "name": "supplier",
          "type": "address"
        },
        {
          "internalType": "address",
          "name": "retailer",
          "type": "address"
        },
        {
          "internalType": "address",
          "name": "consumer",
          "type": "address"
        },
        {
          "internalType": "enum SupplyChain.ProductStatus",
          "name": "status",
          "type": "uint8"
        },
        {
          "internalType": "string",
          "name": "shippingInfo",
          "type": "string"
        }
      ],
      "stateMutability": "view",
      "type": "function"
    },
    {
      "inputs": [
        {
          "internalType": "uint256",
          "name": "_productId",
          "type": "uint256"
        }
      ],
      "name": "receiveProduct",
      "outputs": [],
      "stateMutability": "nonpayable",
      "type": "function"
    },
    {
      "inputs": [
        {
          "internalType": "uint256",
          "name": "_productId",
          "type": "uint256"
        }
      ],
      "name": "receiveProductFromSupplier",
      "outputs": [],
      "stateMutability": "nonpayable",
      "type": "function"
    },
    {
      "inputs": [
        {
          "internalType": "address",
          "name": "_producer",
          "type": "address"
        }
      ],
      "name": "registerProducer",
      "outputs": [],
      "stateMutability": "nonpayable",
      "type": "function"
    },
    {
      "inputs": [
        {
          "internalType": "address",
          "name": "_retailer",
          "type": "address"
        }
      ],
      "name": "registerRetailer",
      "outputs": [],
      "stateMutability": "nonpayable",
      "type": "function"
    },
    {
      "inputs": [
        {
          "internalType": "address",
          "name": "_supplier",
          "type": "address"
        }
      ],
      "name": "registerSupplier",
      "outputs": [],
      "stateMutability": "nonpayable",
      "type": "function"
    },
    {
      "inputs": [
        {
          "internalType": "address",
          "name": "",
          "type": "address"
        }
      ],
      "name": "retailers",
      "outputs": [
        {
          "internalType": "bool",
          "name": "",
          "type": "bool"
        }
      ],
      "stateMutability": "view",
      "type": "function"
    },
    {
      "inputs": [
        {
          "internalType": "uint256",
          "name": "_productId",
          "type": "uint256"
        },
        {
          "internalType": "address",
          "name": "_consumer",
          "type": "address"
        }
      ],
      "name": "sellToConsumer",
      "outputs": [],
      "stateMutability": "nonpayable",
      "type": "function"
    },
    {
      "inputs": [
        {
          "internalType": "uint256",
          "name": "_productId",
          "type": "uint256"
        },
        {
          "internalType": "address",
          "name": "_retailer",
          "type": "address"
        }
      ],
      "name": "sendToRetailer",
      "outputs": [],
      "stateMutability": "nonpayable",
      "type": "function"
    },
    {
      "inputs": [
        {
          "internalType": "uint256",
          "name": "_productId",
          "type": "uint256"
        },
        {
          "internalType": "address",
          "name": "_supplier",
          "type": "address"
        }
      ],
      "name": "sendToSupplier",
      "outputs": [],
      "stateMutability": "nonpayable",
      "type": "function"
    },
    {
      "inputs": [
        {
          "internalType": "address",
          "name": "",
          "type": "address"
        }
      ],
      "name": "suppliers",
      "outputs": [
        {
          "internalType": "bool",
          "name": "",
          "type": "bool"
        }
      ],
      "stateMutability": "view",
      "type": "function"
    },
    {
      "inputs": [
        {
          "internalType": "uint256",
          "name": "_productId",
          "type": "uint256"
        },
        {
          "internalType": "string",
          "name": "_shippingInfo",
          "type": "string"
        }
      ],
      "name": "updateShippingInfo",
      "outputs": [],
      "stateMutability": "nonpayable",
      "type": "function"
    }
  ],
  "bytecode": "0x6080604052348015600f57600080fd5b5033600560006101000a81548173ffffffffffffffffffffffffffffffffffffffff021916908373ffffffffffffffffffffffffffffffffffffffff160217905550613853806100606000396000f3fe608060405234801561001057600080fd5b50600436106101215760003560e01c80638da5cb5b116100ad578063bf19116911610071578063bf1911691461033c578063cf7f5e5f14610358578063d992540914610374578063e0f6ef8714610390578063f28ea1c1146103ae57610121565b80638da5cb5b1461027c5780639a268f351461029a578063a83006da146102ca578063b9db15b4146102e6578063ba1203281461032057610121565b80633c530ace116100f45780633c530ace146101d25780634a75c285146101ee5780637acc0b201461020a5780638120b970146102445780638345750b1461026057610121565b806313f6b1bb1461012657806316dc15fe1461015657806326324eff1461018657806329d78328146101b6575b600080fd5b610140600480360381019061013b91906125dc565b6103de565b60405161014d9190612680565b60405180910390f35b610170600480360381019061016b91906126f9565b610461565b60405161017d9190612741565b60405180910390f35b6101a0600480360381019061019b91906126f9565b610481565b6040516101ad9190612741565b60405180910390f35b6101d060048036038101906101cb91906125dc565b6104a1565b005b6101ec60048036038101906101e791906126f9565b61071f565b005b610208600480360381019061020391906128a2565b610809565b005b610224600480360381019061021f91906125dc565b610ac9565b60405161023b9b9a9998979695949392919061299b565b60405180910390f35b61025e600480360381019061025991906125dc565b610d48565b005b61027a60048036038101906102759190612a5b565b610fc6565b005b610284611330565b6040516102919190612a9b565b60405180910390f35b6102b460048036038101906102af91906126f9565b611356565b6040516102c19190612741565b60405180910390f35b6102e460048036038101906102df91906126f9565b611376565b005b61030060048036038101906102fb91906125dc565b611461565b6040516103179b9a9998979695949392919061299b565b60405180910390f35b61033a60048036038101906103359190612a5b565b61185c565b005b61035660048036038101906103519190612a5b565b611bc6565b005b610372600480360381019061036d91906126f9565b611ea4565b005b61038e600480360381019061038991906125dc565b611f8f565b005b61039861220d565b6040516103a59190612ab6565b60405180910390f35b6103c860048036038101906103c39190612ad1565b612213565b6040516103d59190612ab6565b60405180910390f35b6000806000808481526020019081526020016000206000015403610437576040517f08c379a000000000000000000000000000000000000000000000000000000000815260040161042e90612ba8565b60405180910390fd5b60008083815260200190815260200160002060080160149054906101000a900460ff169050919050565b60026020528060005260406000206000915054906101000a900460ff1681565b60016020528060005260406000206000915054906101000a900460ff1681565b600260003373ffffffffffffffffffffffffffffffffffffffff1673ffffffffffffffffffffffffffffffffffffffff16815260200190815260200160002060009054906101000a900460ff1661052d576040517f08c379a000000000000000000000000000000000000000000000000000000000815260040161052490612c3a565b60405180910390fd5b60008060008381526020019081526020016000206000015403610585576040517f08c379a000000000000000000000000000000000000000000000000000000000815260040161057c90612ba8565b60405180910390fd5b3373ffffffffffffffffffffffffffffffffffffffff1660008083815260200190815260200160002060060160009054906101000a900473ffffffffffffffffffffffffffffffffffffffff1673ffffffffffffffffffffffffffffffffffffffff1614610628576040517f08c379a000000000000000000000000000000000000000000000000000000000815260040161061f90612ccc565b60405180910390fd5b6001600681111561063c5761063b612609565b5b60008083815260200190815260200160002060080160149054906101000a900460ff16600681111561067157610670612609565b5b146106b1576040517f08c379a00000000000000000000000000000000000000000000000000000000081526004016106a890612d5e565b60405180910390fd5b600260008083815260200190815260200160002060080160146101000a81548160ff021916908360068111156106ea576106e9612609565b5b0217905550807fc7428d66281c5b2ce8456a9d4979a4dd51f4a2f95a6e8124350d927d924f715f60405160405180910390a250565b600560009054906101000a900473ffffffffffffffffffffffffffffffffffffffff1673ffffffffffffffffffffffffffffffffffffffff163373ffffffffffffffffffffffffffffffffffffffff16146107af576040517f08c379a00000000000000000000000000000000000000000000000000000000081526004016107a690612df0565b60405180910390fd5b60018060008373ffffffffffffffffffffffffffffffffffffffff1673ffffffffffffffffffffffffffffffffffffffff16815260200190815260200160002060006101000a81548160ff02191690831515021790555050565b600260003373ffffffffffffffffffffffffffffffffffffffff1673ffffffffffffffffffffffffffffffffffffffff16815260200190815260200160002060009054906101000a900460ff16610895576040517f08c379a000000000000000000000000000000000000000000000000000000000815260040161088c90612c3a565b60405180910390fd5b600080600084815260200190815260200160002060000154036108ed576040517f08c379a00000000000000000000000000000000000000000000000000000000081526004016108e490612ba8565b60405180910390fd5b3373ffffffffffffffffffffffffffffffffffffffff1660008084815260200190815260200160002060060160009054906101000a900473ffffffffffffffffffffffffffffffffffffffff1673ffffffffffffffffffffffffffffffffffffffff1614610990576040517f08c379a000000000000000000000000000000000000000000000000000000000815260040161098790612ccc565b60405180910390fd5b600260068111156109a4576109a3612609565b5b60008084815260200190815260200160002060080160149054906101000a900460ff1660068111156109d9576109d8612609565b5b1480610a2b5750600360068111156109f4576109f3612609565b5b60008084815260200190815260200160002060080160149054906101000a900460ff166006811115610a2957610a28612609565b5b145b610a6a576040517f08c379a0000000000000000000000000000000000000000000000000000000008152600401610a6190612e5c565b60405180910390fd5b806000808481526020019081526020016000206009019081610a8c9190613088565b50817f45eb2a65b0af2ef9e3cf2d800ea946cf7f32cc5b7d57c129e52f2a217fe5212382604051610abd919061315a565b60405180910390a25050565b6000602052806000526040600020600091509050806000015490806001018054610af290612eab565b80601f0160208091040260200160405190810160405280929190818152602001828054610b1e90612eab565b8015610b6b5780601f10610b4057610100808354040283529160200191610b6b565b820191906000526020600020905b815481529060010190602001808311610b4e57829003601f168201915b505050505090806002018054610b8090612eab565b80601f0160208091040260200160405190810160405280929190818152602001828054610bac90612eab565b8015610bf95780601f10610bce57610100808354040283529160200191610bf9565b820191906000526020600020905b815481529060010190602001808311610bdc57829003601f168201915b5050505050908060030154908060040154908060050160009054906101000a900473ffffffffffffffffffffffffffffffffffffffff16908060060160009054906101000a900473ffffffffffffffffffffffffffffffffffffffff16908060070160009054906101000a900473ffffffffffffffffffffffffffffffffffffffff16908060080160009054906101000a900473ffffffffffffffffffffffffffffffffffffffff16908060080160149054906101000a900460ff1690806009018054610cc590612eab565b80601f0160208091040260200160405190810160405280929190818152602001828054610cf190612eab565b8015610d3e5780601f10610d1357610100808354040283529160200191610d3e565b820191906000526020600020905b815481529060010190602001808311610d2157829003601f168201915b505050505090508b565b600360003373ffffffffffffffffffffffffffffffffffffffff1673ffffffffffffffffffffffffffffffffffffffff16815260200190815260200160002060009054906101000a900460ff16610dd4576040517f08c379a0000000000000000000000000000000000000000000000000000000008152600401610dcb906131ee565b60405180910390fd5b60008060008381526020019081526020016000206000015403610e2c576040517f08c379a0000000000000000000000000000000000000000000000000000000008152600401610e2390612ba8565b60405180910390fd5b3373ffffffffffffffffffffffffffffffffffffffff1660008083815260200190815260200160002060070160009054906101000a900473ffffffffffffffffffffffffffffffffffffffff1673ffffffffffffffffffffffffffffffffffffffff1614610ecf576040517f08c379a0000000000000000000000000000000000000000000000000000000008152600401610ec690613280565b60405180910390fd5b60036006811115610ee357610ee2612609565b5b60008083815260200190815260200160002060080160149054906101000a900460ff166006811115610f1857610f17612609565b5b14610f58576040517f08c379a0000000000000000000000000000000000000000000000000000000008152600401610f4f90613312565b60405180910390fd5b600460008083815260200190815260200160002060080160146101000a81548160ff02191690836006811115610f9157610f90612609565b5b0217905550807f21c4402dd4a1ebff6d7fb038f59a4fbdb8f8b1a618e6205e815677045d686d8860405160405180910390a250565b600260003373ffffffffffffffffffffffffffffffffffffffff1673ffffffffffffffffffffffffffffffffffffffff16815260200190815260200160002060009054906101000a900460ff16611052576040517f08c379a000000000000000000000000000000000000000000000000000000000815260040161104990612c3a565b60405180910390fd5b600080600084815260200190815260200160002060000154036110aa576040517f08c379a00000000000000000000000000000000000000000000000000000000081526004016110a190612ba8565b60405180910390fd5b3373ffffffffffffffffffffffffffffffffffffffff1660008084815260200190815260200160002060060160009054906101000a900473ffffffffffffffffffffffffffffffffffffffff1673ffffffffffffffffffffffffffffffffffffffff161461114d576040517f08c379a000000000000000000000000000000000000000000000000000000000815260040161114490612ccc565b60405180910390fd5b6002600681111561116157611160612609565b5b60008084815260200190815260200160002060080160149054906101000a900460ff16600681111561119657611195612609565b5b146111d6576040517f08c379a00000000000000000000000000000000000000000000000000000000081526004016111cd906133a4565b60405180910390fd5b600360008273ffffffffffffffffffffffffffffffffffffffff1673ffffffffffffffffffffffffffffffffffffffff16815260200190815260200160002060009054906101000a900460ff16611262576040517f08c379a000000000000000000000000000000000000000000000000000000000815260040161125990613410565b60405180910390fd5b8060008084815260200190815260200160002060070160006101000a81548173ffffffffffffffffffffffffffffffffffffffff021916908373ffffffffffffffffffffffffffffffffffffffff160217905550600360008084815260200190815260200160002060080160146101000a81548160ff021916908360068111156112ef576112ee612609565b5b0217905550817f91167d82f762420abffc44418508e57c6772d5991839c46a46e3ecdace56f597826040516113249190612a9b565b60405180910390a25050565b600560009054906101000a900473ffffffffffffffffffffffffffffffffffffffff1681565b60036020528060005260406000206000915054906101000a900460ff1681565b600560009054906101000a900473ffffffffffffffffffffffffffffffffffffffff1673ffffffffffffffffffffffffffffffffffffffff163373ffffffffffffffffffffffffffffffffffffffff1614611406576040517f08c379a00000000000000000000000000000000000000000000000000000000081526004016113fd90612df0565b60405180910390fd5b6001600360008373ffffffffffffffffffffffffffffffffffffffff1673ffffffffffffffffffffffffffffffffffffffff16815260200190815260200160002060006101000a81548160ff02191690831515021790555050565b60006060806000806000806000806000606060008060008e815260200190815260200160002060405180610160016040529081600082015481526020016001820180546114ad90612eab565b80601f01602080910402602001604051908101604052809291908181526020018280546114d990612eab565b80156115265780601f106114fb57610100808354040283529160200191611526565b820191906000526020600020905b81548152906001019060200180831161150957829003601f168201915b5050505050815260200160028201805461153f90612eab565b80601f016020809104026020016040519081016040528092919081815260200182805461156b90612eab565b80156115b85780601f1061158d576101008083540402835291602001916115b8565b820191906000526020600020905b81548152906001019060200180831161159b57829003601f168201915b5050505050815260200160038201548152602001600482015481526020016005820160009054906101000a900473ffffffffffffffffffffffffffffffffffffffff1673ffffffffffffffffffffffffffffffffffffffff1673ffffffffffffffffffffffffffffffffffffffff1681526020016006820160009054906101000a900473ffffffffffffffffffffffffffffffffffffffff1673ffffffffffffffffffffffffffffffffffffffff1673ffffffffffffffffffffffffffffffffffffffff1681526020016007820160009054906101000a900473ffffffffffffffffffffffffffffffffffffffff1673ffffffffffffffffffffffffffffffffffffffff1673ffffffffffffffffffffffffffffffffffffffff1681526020016008820160009054906101000a900473ffffffffffffffffffffffffffffffffffffffff1673ffffffffffffffffffffffffffffffffffffffff1673ffffffffffffffffffffffffffffffffffffffff1681526020016008820160149054906101000a900460ff16600681111561175257611751612609565b5b600681111561176457611763612609565b5b815260200160098201805461177890612eab565b80601f01602080910402602001604051908101604052809291908181526020018280546117a490612eab565b80156117f15780601f106117c6576101008083540402835291602001916117f1565b820191906000526020600020905b8154815290600101906020018083116117d457829003601f168201915b5050505050815250509050806000015181602001518260400151836060015184608001518560a001518660c001518760e001518861010001518961012001518a61014001519b509b509b509b509b509b509b509b509b509b509b505091939597999b90929496989a50565b600160003373ffffffffffffffffffffffffffffffffffffffff1673ffffffffffffffffffffffffffffffffffffffff16815260200190815260200160002060009054906101000a900460ff166118e8576040517f08c379a00000000000000000000000000000000000000000000000000000000081526004016118df906134a2565b60405180910390fd5b60008060008481526020019081526020016000206000015403611940576040517f08c379a000000000000000000000000000000000000000000000000000000000815260040161193790612ba8565b60405180910390fd5b3373ffffffffffffffffffffffffffffffffffffffff1660008084815260200190815260200160002060050160009054906101000a900473ffffffffffffffffffffffffffffffffffffffff1673ffffffffffffffffffffffffffffffffffffffff16146119e3576040517f08c379a00000000000000000000000000000000000000000000000000000000081526004016119da90613534565b60405180910390fd5b600060068111156119f7576119f6612609565b5b60008084815260200190815260200160002060080160149054906101000a900460ff166006811115611a2c57611a2b612609565b5b14611a6c576040517f08c379a0000000000000000000000000000000000000000000000000000000008152600401611a63906135c6565b60405180910390fd5b600260008273ffffffffffffffffffffffffffffffffffffffff1673ffffffffffffffffffffffffffffffffffffffff16815260200190815260200160002060009054906101000a900460ff16611af8576040517f08c379a0000000000000000000000000000000000000000000000000000000008152600401611aef90613632565b60405180910390fd5b8060008084815260200190815260200160002060060160006101000a81548173ffffffffffffffffffffffffffffffffffffffff021916908373ffffffffffffffffffffffffffffffffffffffff160217905550600160008084815260200190815260200160002060080160146101000a81548160ff02191690836006811115611b8557611b84612609565b5b0217905550817f01b0f0e8876adb51c001ea8baae2aa3b6bdf8b3c42811817358cef1d56c0af0082604051611bba9190612a9b565b60405180910390a25050565b600360003373ffffffffffffffffffffffffffffffffffffffff1673ffffffffffffffffffffffffffffffffffffffff16815260200190815260200160002060009054906101000a900460ff16611c52576040517f08c379a0000000000000000000000000000000000000000000000000000000008152600401611c49906131ee565b60405180910390fd5b60008060008481526020019081526020016000206000015403611caa576040517f08c379a0000000000000000000000000000000000000000000000000000000008152600401611ca190612ba8565b60405180910390fd5b3373ffffffffffffffffffffffffffffffffffffffff1660008084815260200190815260200160002060070160009054906101000a900473ffffffffffffffffffffffffffffffffffffffff1673ffffffffffffffffffffffffffffffffffffffff1614611d4d576040517f08c379a0000000000000000000000000000000000000000000000000000000008152600401611d4490613280565b60405180910390fd5b60056006811115611d6157611d60612609565b5b60008084815260200190815260200160002060080160149054906101000a900460ff166006811115611d9657611d95612609565b5b14611dd6576040517f08c379a0000000000000000000000000000000000000000000000000000000008152600401611dcd906136c4565b60405180910390fd5b8060008084815260200190815260200160002060080160006101000a81548173ffffffffffffffffffffffffffffffffffffffff021916908373ffffffffffffffffffffffffffffffffffffffff160217905550600660008084815260200190815260200160002060080160146101000a81548160ff02191690836006811115611e6357611e62612609565b5b0217905550817fe3ea93cf6348155aedd9f5e3a1d8f1fd886a956f1401763612b9b694b3363e8682604051611e989190612a9b565b60405180910390a25050565b600560009054906101000a900473ffffffffffffffffffffffffffffffffffffffff1673ffffffffffffffffffffffffffffffffffffffff163373ffffffffffffffffffffffffffffffffffffffff1614611f34576040517f08c379a0000000000000000000000000000000000000000000000000000000008152600401611f2b90612df0565b60405180910390fd5b6001600260008373ffffffffffffffffffffffffffffffffffffffff1673ffffffffffffffffffffffffffffffffffffffff16815260200190815260200160002060006101000a81548160ff02191690831515021790555050565b600360003373ffffffffffffffffffffffffffffffffffffffff1673ffffffffffffffffffffffffffffffffffffffff16815260200190815260200160002060009054906101000a900460ff1661201b576040517f08c379a0000000000000000000000000000000000000000000000000000000008152600401612012906131ee565b60405180910390fd5b60008060008381526020019081526020016000206000015403612073576040517f08c379a000000000000000000000000000000000000000000000000000000000815260040161206a90612ba8565b60405180910390fd5b3373ffffffffffffffffffffffffffffffffffffffff1660008083815260200190815260200160002060070160009054906101000a900473ffffffffffffffffffffffffffffffffffffffff1673ffffffffffffffffffffffffffffffffffffffff1614612116576040517f08c379a000000000000000000000000000000000000000000000000000000000815260040161210d90613280565b60405180910390fd5b6004600681111561212a57612129612609565b5b60008083815260200190815260200160002060080160149054906101000a900460ff16600681111561215f5761215e612609565b5b1461219f576040517f08c379a000000000000000000000000000000000000000000000000000000000815260040161219690613756565b60405180910390fd5b600560008083815260200190815260200160002060080160146101000a81548160ff021916908360068111156121d8576121d7612609565b5b0217905550807fed910afbb4f908c3787081c1d1df242d8cab386852b5e4553acbe05cdaf182cd60405160405180910390a250565b60045481565b6000600160003373ffffffffffffffffffffffffffffffffffffffff1673ffffffffffffffffffffffffffffffffffffffff16815260200190815260200160002060009054906101000a900460ff166122a1576040517f08c379a0000000000000000000000000000000000000000000000000000000008152600401612298906134a2565b60405180910390fd5b600460008154809291906122b4906137a5565b919050555060405180610160016040528060045481526020018581526020018481526020018381526020014281526020013373ffffffffffffffffffffffffffffffffffffffff168152602001600073ffffffffffffffffffffffffffffffffffffffff168152602001600073ffffffffffffffffffffffffffffffffffffffff168152602001600073ffffffffffffffffffffffffffffffffffffffff1681526020016000600681111561236c5761236b612609565b5b81526020016040518060200160405280600081525081525060008060045481526020019081526020016000206000820151816000015560208201518160010190816123b79190613088565b5060408201518160020190816123cd9190613088565b50606082015181600301556080820151816004015560a08201518160050160006101000a81548173ffffffffffffffffffffffffffffffffffffffff021916908373ffffffffffffffffffffffffffffffffffffffff16021790555060c08201518160060160006101000a81548173ffffffffffffffffffffffffffffffffffffffff021916908373ffffffffffffffffffffffffffffffffffffffff16021790555060e08201518160070160006101000a81548173ffffffffffffffffffffffffffffffffffffffff021916908373ffffffffffffffffffffffffffffffffffffffff1602179055506101008201518160080160006101000a81548173ffffffffffffffffffffffffffffffffffffffff021916908373ffffffffffffffffffffffffffffffffffffffff1602179055506101208201518160080160146101000a81548160ff0219169083600681111561252b5761252a612609565b5b02179055506101408201518160090190816125469190613088565b509050506004547faf6ffb6277511513e7d579327cc1fc57f0266df2fb11a60b13487b8c9cd2c388853360405161257e9291906137ed565b60405180910390a260045490509392505050565b6000604051905090565b600080fd5b600080fd5b6000819050919050565b6125b9816125a6565b81146125c457600080fd5b50565b6000813590506125d6816125b0565b92915050565b6000602082840312156125f2576125f161259c565b5b6000612600848285016125c7565b91505092915050565b7f4e487b7100000000000000000000000000000000000000000000000000000000600052602160045260246000fd5b6007811061264957612648612609565b5b50565b600081905061265a82612638565b919050565b600061266a8261264c565b9050919050565b61267a8161265f565b82525050565b60006020820190506126956000830184612671565b92915050565b600073ffffffffffffffffffffffffffffffffffffffff82169050919050565b60006126c68261269b565b9050919050565b6126d6816126bb565b81146126e157600080fd5b50565b6000813590506126f3816126cd565b92915050565b60006020828403121561270f5761270e61259c565b5b600061271d848285016126e4565b91505092915050565b60008115159050919050565b61273b81612726565b82525050565b60006020820190506127566000830184612732565b92915050565b600080fd5b600080fd5b6000601f19601f8301169050919050565b7f4e487b7100000000000000000000000000000000000000000000000000000000600052604160045260246000fd5b6127af82612766565b810181811067ffffffffffffffff821117156127ce576127cd612777565b5b80604052505050565b60006127e1612592565b90506127ed82826127a6565b919050565b600067ffffffffffffffff82111561280d5761280c612777565b5b61281682612766565b9050602081019050919050565b82818337600083830152505050565b6000612845612840846127f2565b6127d7565b90508281526020810184848401111561286157612860612761565b5b61286c848285612823565b509392505050565b600082601f8301126128895761288861275c565b5b8135612899848260208601612832565b91505092915050565b600080604083850312156128b9576128b861259c565b5b60006128c7858286016125c7565b925050602083013567ffffffffffffffff8111156128e8576128e76125a1565b5b6128f485828601612874565b9150509250929050565b612907816125a6565b82525050565b600081519050919050565b600082825260208201905092915050565b60005b8381101561294757808201518184015260208101905061292c565b60008484015250505050565b600061295e8261290d565b6129688185612918565b9350612978818560208601612929565b61298181612766565b840191505092915050565b612995816126bb565b82525050565b6000610160820190506129b1600083018e6128fe565b81810360208301526129c3818d612953565b905081810360408301526129d7818c612953565b90506129e6606083018b6128fe565b6129f3608083018a6128fe565b612a0060a083018961298c565b612a0d60c083018861298c565b612a1a60e083018761298c565b612a2861010083018661298c565b612a36610120830185612671565b818103610140830152612a498184612953565b90509c9b505050505050505050505050565b60008060408385031215612a7257612a7161259c565b5b6000612a80858286016125c7565b9250506020612a91858286016126e4565b9150509250929050565b6000602082019050612ab0600083018461298c565b92915050565b6000602082019050612acb60008301846128fe565b92915050565b600080600060608486031215612aea57612ae961259c565b5b600084013567ffffffffffffffff811115612b0857612b076125a1565b5b612b1486828701612874565b935050602084013567ffffffffffffffff811115612b3557612b346125a1565b5b612b4186828701612874565b9250506040612b52868287016125c7565b9150509250925092565b7f50726f6475637420646f6573206e6f7420657869737400000000000000000000600082015250565b6000612b92601683612918565b9150612b9d82612b5c565b602082019050919050565b60006020820190508181036000830152612bc181612b85565b9050919050565b7f4f6e6c7920737570706c6965722063616e20706572666f726d2074686973206160008201527f6374696f6e000000000000000000000000000000000000000000000000000000602082015250565b6000612c24602583612918565b9150612c2f82612bc8565b604082019050919050565b60006020820190508181036000830152612c5381612c17565b9050919050565b7f596f7520617265206e6f742074686520737570706c696572206f66207468697360008201527f2070726f64756374000000000000000000000000000000000000000000000000602082015250565b6000612cb6602883612918565b9150612cc182612c5a565b604082019050919050565b60006020820190508181036000830152612ce581612ca9565b9050919050565b7f50726f64756374206d7573742062652073656e7420746f20737570706c69657260008201527f2066697273740000000000000000000000000000000000000000000000000000602082015250565b6000612d48602683612918565b9150612d5382612cec565b604082019050919050565b60006020820190508181036000830152612d7781612d3b565b9050919050565b7f4f6e6c79206f776e65722063616e20706572666f726d2074686973206163746960008201527f6f6e000000000000000000000000000000000000000000000000000000000000602082015250565b6000612dda602283612918565b9150612de582612d7e565b604082019050919050565b60006020820190508181036000830152612e0981612dcd565b9050919050565b7f496e76616c69642070726f647563742073746174757300000000000000000000600082015250565b6000612e46601683612918565b9150612e5182612e10565b602082019050919050565b60006020820190508181036000830152612e7581612e39565b9050919050565b7f4e487b7100000000000000000000000000000000000000000000000000000000600052602260045260246000fd5b60006002820490506001821680612ec357607f821691505b602082108103612ed657612ed5612e7c565b5b50919050565b60008190508160005260206000209050919050565b60006020601f8301049050919050565b600082821b905092915050565b600060088302612f3e7fffffffffffffffffffffffffffffffffffffffffffffffffffffffffffffffff82612f01565b612f488683612f01565b95508019841693508086168417925050509392505050565b6000819050919050565b6000612f85612f80612f7b846125a6565b612f60565b6125a6565b9050919050565b6000819050919050565b612f9f83612f6a565b612fb3612fab82612f8c565b848454612f0e565b825550505050565b600090565b612fc8612fbb565b612fd3818484612f96565b505050565b5b81811015612ff757612fec600082612fc0565b600181019050612fd9565b5050565b601f82111561303c5761300d81612edc565b61301684612ef1565b81016020851015613025578190505b61303961303185612ef1565b830182612fd8565b50505b505050565b600082821c905092915050565b600061305f60001984600802613041565b1980831691505092915050565b6000613078838361304e565b9150826002028217905092915050565b6130918261290d565b67ffffffffffffffff8111156130aa576130a9612777565b5b6130b48254612eab565b6130bf828285612ffb565b600060209050601f8311600181146130f257600084156130e0578287015190505b6130ea858261306c565b865550613152565b601f19841661310086612edc565b60005b8281101561312857848901518255600182019150602085019450602081019050613103565b868310156131455784890151613141601f89168261304e565b8355505b6001600288020188555050505b505050505050565b600060208201905081810360008301526131748184612953565b905092915050565b7f4f6e6c792072657461696c65722063616e20706572666f726d2074686973206160008201527f6374696f6e000000000000000000000000000000000000000000000000000000602082015250565b60006131d8602583612918565b91506131e38261317c565b604082019050919050565b60006020820190508181036000830152613207816131cb565b9050919050565b7f596f7520617265206e6f74207468652072657461696c6572206f66207468697360008201527f2070726f64756374000000000000000000000000000000000000000000000000602082015250565b600061326a602883612918565b91506132758261320e565b604082019050919050565b600060208201905081810360008301526132998161325d565b9050919050565b7f50726f64756374206d7573742062652073656e7420746f2072657461696c657260008201527f2066697273740000000000000000000000000000000000000000000000000000602082015250565b60006132fc602683612918565b9150613307826132a0565b604082019050919050565b6000602082019050818103600083015261332b816132ef565b9050919050565b7f50726f64756374206d757374206265207265636569766564206279207375707060008201527f6c69657220666972737400000000000000000000000000000000000000000000602082015250565b600061338e602a83612918565b915061339982613332565b604082019050919050565b600060208201905081810360008301526133bd81613381565b9050919050565b7f496e76616c69642072657461696c657220616464726573730000000000000000600082015250565b60006133fa601883612918565b9150613405826133c4565b602082019050919050565b60006020820190508181036000830152613429816133ed565b9050919050565b7f4f6e6c792070726f64756365722063616e20706572666f726d2074686973206160008201527f6374696f6e000000000000000000000000000000000000000000000000000000602082015250565b600061348c602583612918565b915061349782613430565b604082019050919050565b600060208201905081810360008301526134bb8161347f565b9050919050565b7f596f7520617265206e6f74207468652070726f6475636572206f66207468697360008201527f2070726f64756374000000000000000000000000000000000000000000000000602082015250565b600061351e602883612918565b9150613529826134c2565b604082019050919050565b6000602082019050818103600083015261354d81613511565b9050919050565b7f50726f64756374206d75737420626520696e204372656174656420737461747560008201527f7300000000000000000000000000000000000000000000000000000000000000602082015250565b60006135b0602183612918565b91506135bb82613554565b604082019050919050565b600060208201905081810360008301526135df816135a3565b9050919050565b7f496e76616c696420737570706c69657220616464726573730000000000000000600082015250565b600061361c601883612918565b9150613627826135e6565b602082019050919050565b6000602082019050818103600083015261364b8161360f565b9050919050565b7f50726f64756374206d75737420626520617661696c61626c6520666f7220736160008201527f6c65000000000000000000000000000000000000000000000000000000000000602082015250565b60006136ae602283612918565b91506136b982613652565b604082019050919050565b600060208201905081810360008301526136dd816136a1565b9050919050565b7f50726f64756374206d757374206265207265636569766564206279207265746160008201527f696c657220666972737400000000000000000000000000000000000000000000602082015250565b6000613740602a83612918565b915061374b826136e4565b604082019050919050565b6000602082019050818103600083015261376f81613733565b9050919050565b7f4e487b7100000000000000000000000000000000000000000000000000000000600052601160045260246000fd5b60006137b0826125a6565b91507fffffffffffffffffffffffffffffffffffffffffffffffffffffffffffffffff82036137e2576137e1613776565b5b600182019050919050565b600060408201905081810360008301526138078185612953565b9050613816602083018461298c565b939250505056fea2646970667358221220ba8ebdde805c9981cb6418294fa54101d6ac799bdb3a5aa8dd5359945471c52664736f6c634300081c0033",
  "linkReferences": {},
  "deployedLinkReferences": {}
}